:020000040800F2
:100000000000022055340008A5330008A73300087B
:10001000A9330008AB330008AD330008000000002E
:10002000000000000000000000000000D175000882
:10003000AF3300080000000061760008B13300080B
:10004000A5340008A5340008A5340008A53400082C
:10005000A5340008C9330008A5340008A5340008F9
:10006000A5340008A5340008A5340008A53400080C
:10007000A5340008A5340008A5340008A5340008FC
:10008000A5340008A5340008A5340008A5340008EC
:10009000A5340008A5340008A5340008A5340008DC
:1000A000CD330008D9330008A5340008A534000872
:1000B000A5340008A5340008DD330008A534000885
:1000C000A5340008A5340008A5340008A5340008AC
:1000D000A5340008A5340008A5340008E933000859
:1000E000A5340008A5340008A5340008A53400088C
:1000F000A5340008F5330008A5340008A53400082D
:10010000A5340008A5340008A5340008A53400086B
:10011000A5340008A5340008A5340008A53400085B
:10012000A5340008A5340008A5340008A53400084B
:10013000A5340008A5340008A5340008A53400083B
:10014000A5340008A5340008A5340008A53400082B
:10015000A5340008A5340008A5340008A53400081B
:10016000A5340008A5340008A5340008A53400080B
:10017000A5340008A5340008A534000800000000DC
:08018000A5340008A5340008B5
:1001900010B5054C237833B9044B13B10448AFF3C1
:1001A00000800123237010BD8800002000000000A3
:1001B0003093000808B5034B1BB103490348AFF364
:1001C000008008BD000000008C0000203093000873
:1001D00001F0FF01102A2BDB10F0070F08D010F8F8
:1001E000013B013A8B422DD010F0070F42B3F6D1FC
:1001F000F0B441EA012141EA014122F007047FF015
:1002000000070023F0E80256083C85EA010586EA6B
:10021000010685FA47F5A3FA87F586FA47F6A5FAA7
:1002200087F68EB9EED1F0BC01F0FF0102F00702B3
:1002300032B110F8013B013A83EA010313B1F8D15E
:100240000020704701387047002D06BF354603383F
:10025000073815F0010F07D1013015F4807F02BF78
:10026000013015F4C03F0130F0BC0138704700BFC9
:1002700081F0004102E000BF83F0004330B54FEA57
:1002800041044FEA430594EA050F08BF90EA020FC4
:100290001FBF54EA000C55EA020C7FEA645C7FEA57
:1002A000655C00F0E2804FEA5454D4EB5555B8BF7A
:1002B0006D420CDD2C4480EA020281EA030382EAEB
:1002C000000083EA010180EA020281EA0303362D7D
:1002D00088BF30BD11F0004F4FEA01314FF4801C50
:1002E0004CEA113102D0404261EB410113F0004F62
:1002F0004FEA03334CEA133302D0524263EB430319
:1003000094EA050F00F0A780A4F10104D5F1200EB6
:100310000DDB02FA0EFC22FA05F2801841F1000111
:1003200003FA0EF2801843FA05F359410EE0A5F1E5
:1003300020050EF1200E012A03FA0EFC28BF4CF016
:10034000020C43FA05F3C01851EBE37101F00045CC
:1003500007D54FF0000EDCF1000C7EEB00006EEBD9
:100360000101B1F5801F1BD3B1F5001F0CD3490863
:100370005FEA30004FEA3C0C04F101044FEA4452BA
:1003800012F5800F80F09A80BCF1004F08BF5FEA41
:10039000500C50F1000041EB045141EA050130BD21
:1003A0005FEA4C0C404141EB0101013C28BFB1F533
:1003B000801FE9D291F0000F04BF01460020B1FA7E
:1003C00081F308BF2033A3F10B03B3F120020CDA51
:1003D0000C3208DD02F1140CC2F10C0201FA0CF02F
:1003E00021FA02F10CE002F11402D8BFC2F1200C94
:1003F00001FA02F120FA0CFCDCBF41EA0C0190404A
:10040000E41AA2BF01EB0451294330BD6FEA040492
:100410001F3C1CDA0C340EDC04F11404C4F120027D
:1004200020FA04F001FA02F340EA030021FA04F38F
:1004300045EA030130BDC4F10C04C4F1200220FAE6
:1004400002F001FA04F340EA0300294630BD21FA24
:1004500004F0294630BD94F0000F83F4801306BFEA
:1004600081F480110134013D4EE77FEA645C18BFDE
:100470007FEA655C29D094EA050F08BF90EA020F75
:1004800005D054EA000C04BF1946104630BD91EA6D
:10049000030F1EBF0021002030BD5FEA545C05D170
:1004A0004000494128BF41F0004130BD14F58004AF
:1004B0003CBF01F5801130BD01F0004545F0FE4123
:1004C00041F470014FF0000030BD7FEA645C1ABF58
:1004D000194610467FEA655C1CBF0B46024650EA8F
:1004E000013406BF52EA033591EA030F41F40021BB
:1004F00030BD00BF90F0000F04BF0021704730B541
:100500004FF4806404F132044FF000054FF0000115
:1005100050E700BF90F0000F04BF0021704730B5D6
:100520004FF4806404F1320410F0004548BF4042AB
:100530004FF000013EE700BF42004FEAE2014FEA00
:1005400031014FEA02701FBF12F07F4393F07F4FDB
:1005500081F06051704732F07F4208BF704793F0DE
:100560007F4F04BF41F40021704730B54FF46074F1
:1005700001F0004521F000411CE700BF50EA0102F4
:1005800008BF704730B54FF000050AE050EA01029D
:1005900008BF704730B511F0004502D5404261EB0D
:1005A00041014FF4806404F132045FEA915C3FF44E
:1005B000D8AE4FF003025FEADC0C18BF03325FEAEB
:1005C000DC0C18BF033202EBDC02C2F1200300FA9C
:1005D00003FC20FA02F001FA03FE40EA0E0021FAC1
:1005E00002F11444BDE600BF70B54FF0FF0C4CF4AF
:1005F000E06C1CEA11541DBF1CEA135594EA0C0F61
:1006000095EA0C0F00F0DEF82C4481EA030621EA9B
:100610004C5123EA4C5350EA013518BF52EA0335D6
:1006200041F4801143F4801338D0A0FB02CE4FF088
:100630000005E1FB02E506F00042E0FB03E54FF0B8
:100640000006E1FB03569CF0000F18BF4EF0010EB0
:10065000A4F1FF04B6F5007F64F5407404D25FEAAC
:100660004E0E6D4146EB060642EAC62141EA55515F
:100670004FEAC52040EA5E504FEACE2EB4F1FD0CA1
:1006800088BFBCF5E06F1ED8BEF1004F08BF5FEA1F
:10069000500E50F1000041EB045170BD06F00046D1
:1006A00046EA010140EA020081EA0301B4EB5C047E
:1006B000C2BFD4EB0C0541EA045170BD41F4801176
:1006C0004FF0000E013C00F3AB8014F1360FDEBF9B
:1006D000002001F0004170BDC4F10004203C35DA77
:1006E0000C341BDC04F11404C4F1200500FA05F3FA
:1006F00020FA04F001FA05F240EA020001F000429B
:1007000021F0004110EBD37021FA04F642EB060110
:100710005EEA430E08BF20EAD37070BDC4F10C043A
:10072000C4F1200500FA04F320FA05F001FA04F2FE
:1007300040EA020001F0004110EBD37041F10001EA
:100740005EEA430E08BF20EAD37070BDC4F12005F5
:1007500000FA05F24EEA020E20FA04F301FA05F25D
:1007600043EA020321FA04F001F0004121FA04F205
:1007700020EA020000EBD3705EEA430E08BF20EAD5
:10078000D37070BD94F0000F0FD101F0004640000F
:1007900041EB010111F4801F08BF013CF7D041EA91
:1007A000060195F0000F18BF704703F00046520095
:1007B00043EB030313F4801F08BF013DF7D043EA66
:1007C0000603704794EA0C0F0CEA135518BF95EA1C
:1007D0000C0F0CD050EA410618BF52EA4306D1D1A3
:1007E00081EA030101F000414FF0000070BD50EAC2
:1007F000410606BF1046194652EA430619D094EA4C
:100800000C0F02D150EA013613D195EA0C0F05D135
:1008100052EA03361CBF104619460AD181EA030189
:1008200001F0004141F0FE4141F470014FF0000041
:1008300070BD41F0FE4141F4780170BD70B54FF0DC
:10084000FF0C4CF4E06C1CEA11541DBF1CEA13555C
:1008500094EA0C0F95EA0C0F00F0A7F8A4EB05043E
:1008600081EA030E52EA03354FEA013100F0888035
:100870004FEA03334FF0805545EA131343EA1263FE
:100880004FEA022245EA111545EA10654FEA0026B3
:100890000EF000419D4208BF964244F1FD0404F56C
:1008A000407402D25B084FEA3202B61A65EB0305C8
:1008B0005B084FEA32024FF480104FF4002CB6EB85
:1008C000020E75EB030E22BFB61A754640EA0C0005
:1008D0005B084FEA3202B6EB020E75EB030E22BF45
:1008E000B61A754640EA5C005B084FEA3202B6EB86
:1008F000020E75EB030E22BFB61A754640EA9C0045
:100900005B084FEA3202B6EB020E75EB030E22BF14
:10091000B61A754640EADC0055EA060E18D04FEAD2
:10092000051545EA16754FEA06164FEAC30343EA72
:1009300052734FEAC2025FEA1C1CC0D111F4801F3F
:100940000BD141EA00014FF000004FF0004CB6E738
:1009500011F4801F04BF01430020B4F1FD0C88BFD7
:10096000BCF5E06F3FF6AFAEB5EB030C04BFB6EBE2
:10097000020C5FEA500C50F1000041EB045170BDD5
:100980000EF0004E4EEA113114EB5C04C2BFD4EB02
:100990000C0541EA045170BD41F480114FF0000E86
:1009A000013C90E645EA060E8DE60CEA135594EA02
:1009B0000C0F08BF95EA0C0F3FF43BAF94EA0C0F05
:1009C0000AD150EA01347FF434AF95EA0C0F7FF47A
:1009D00025AF104619462CE795EA0C0F06D152EACE
:1009E00003353FF4FDAE1046194622E750EA4106B2
:1009F00018BF52EA43067FF4C5AE50EA41047FF4C3
:100A00000DAF52EA43057FF4EBAE12E74FF0FF3C27
:100A100006E000BF4FF0010C02E000BF4FF0010CF8
:100A20004DF804CD4FEA410C7FEA6C5C4FEA430C71
:100A300018BF7FEA6C5C1BD001B050EA410C0CBFC0
:100A400052EA430C91EA030F02BF90EA020F002022
:100A5000704710F1000F91EA030F58BF994208BF89
:100A600090422CBFD8176FEAE37040F00100704746
:100A70004FEA410C7FEA6C5C02D150EA013C07D19D
:100A80004FEA430C7FEA6C5CD6D152EA033CD3D0E8
:100A90005DF8040B704700BF8446104662468C46E2
:100AA0001946634600E000BF01B5FFF7B7FF002815
:100AB00048BF10F1000F01BD4DF808EDFFF7F4FF3E
:100AC0000CBF012000205DF808FB00BF4DF808EDC9
:100AD000FFF7EAFF34BF012000205DF808FB00BFEC
:100AE0004DF808EDFFF7E0FF94BF012000205DF80E
:100AF00008FB00BF4DF808EDFFF7CEFF94BF0120C3
:100B000000205DF808FB00BF4DF808EDFFF7C4FFBB
:100B100034BF012000205DF808FB00BF4FEA410C04
:100B20007FEA6C5C02D150EA013C0AD14FEA430CE7
:100B30007FEA6C5C02D152EA033C02D14FF0000024
:100B400070474FF0010070474FEA410212F5001262
:100B500015D211D56FF47873B3EB625212D94FEA04
:100B6000C12343F0004343EA505311F0004F23FAEE
:100B700002F018BF404270474FF00000704750EA43
:100B8000013005D111F0004008BF6FF00040704700
:100B90004FF00000704700BF4A0011D212F500125A
:100BA00011D20DD56FF47873B3EB62520ED44FEAC5
:100BB000C12343F0004343EA505323FA02F0704745
:100BC0004FF00000704750EA013002D14FF0FF3083
:100BD00070474FF0000070474FEA4102B2F1E04326
:100BE00024BFB3F5001CDCF1FE5C0DD901F0004C14
:100BF0004FEAC0024CEA5070B2F1004F40EB830064
:100C000008BF20F00100704711F0804F21D113F18F
:100C10003872BCBF01F00040704741F480114FEAC8
:100C20005252C2F11802C2F1200C10FA0CF320FA51
:100C300002F018BF40F001004FEAC1234FEAD3236E
:100C400003FA0CFC40EA0C0023FA02F34FEA4303D8
:100C5000CCE77FEA625307D150EA01331EBF4FF061
:100C6000FE4040F44000704701F0004040F0FE407C
:100C700040F40000704700BF53B94AB9002908BFCB
:100C800000281CBF4FF0FF314FF0FF3000F070B96B
:100C9000ADF1080C6DE904CE00F006F8DDF804E0D3
:100CA000DDE9022304B070472DE9F047089E0D46A8
:100CB00004460F46002B4AD18A42944665D9B2FABF
:100CC00082F343B102FA03FCC3F120029F4020FAF1
:100CD00002F217439C404FEA1C4E1FFA8CF5B7FBFB
:100CE000FEF1220C0EFB117742EA074201FB05F0F0
:100CF00090420AD91CEB020201F1FF3780F01C81FF
:100D0000904240F2198102396244121AA4B2B2FB35
:100D1000FEF00EFB102244EA024400FB05F5A5425A
:100D20000AD91CEB040400F1FF3280F00781A542D0
:100D300040F204816444023840EA0140641B00210F
:100D40001EB1DC400023C6E90043BDE8F0878B42BA
:100D500008D9002E00F0ED800021C6E90005084604
:100D6000BDE8F087B3FA83F1002949D1AB4202D341
:100D7000824200F2F880841A65EB030201201746D4
:100D8000002EE2D0C6E90047DFE702B9FFDEB2FA83
:100D900082F3002B40F090808A1A4FEA1C471FFA1A
:100DA0008CFE0121B2FBF7F507FB1520220C42EA6D
:100DB00000420EFB05F0904208D91CEB020205F13F
:100DC000FF3802D2904200F2CB804546121AA4B2FC
:100DD000B2FBF7F007FB102244EA02440EFB00FED0
:100DE000A64508D91CEB040400F1FF3202D2A64547
:100DF00000F2BB801046A4EB0E0440EA05409FE7DA
:100E0000C1F120078B4022FA07FC4CEA030C05FADB
:100E100001F420FA07F3FD404FEA1C492343B5FBD8
:100E2000F9F81FFA8CFE09FB18551C0C44EA05441E
:100E300008FB0EF5A54202FA01F200FA01F00BD907
:100E40001CEB040408F1FF3A80F08880A54240F2D0
:100E50008580A8F102086444641B9DB2B4FBF9F3D9
:100E600009FB134445EA044403FB0EFEA64508D9DA
:100E70001CEB040403F1FF356CD2A6456AD9023B92
:100E8000644443EA0843A3FB0295A4EB0E04AC427E
:100E9000C846AE4656D353D056B1B0EB080264EB09
:100EA0000E0404FA07F7CA40CC401743C6E90074A1
:100EB00018460021BDE8F087C3F1200102FA03FCC7
:100EC00020FA01F225FA01F19D402A434FEA1C471E
:100ED0001FFA8CFEB1FBF7F007FB1015110C41EA6D
:100EE000054100FB0EF58D4204FA03F408D91CEB12
:100EF000010100F1FF382FD28D422DD90238614413
:100F0000491B92B2B1FBF7F507FB151142EA01420A
:100F100005FB0EF1914208D91CEB020205F1FF38E6
:100F200016D2914214D9023D6244521A45EA004158
:100F300038E73146304608E73946E6E61046FBE634
:100F40004845A9D2B9EB020865EB0C0E013BA3E7BB
:100F50004546EAE72B4694E74046D1E7D0467BE793
:100F6000023D624432E708460AE76444023842E739
:100F7000704700BF0B4B2D2210B51A7057225A70C4
:100F800041229A704922DA70074C54221A71236860
:100F90001BB9012005F0A7F8FBE7642005F0A3F8D2
:100FA000F5E700BFCC000020040000202DE9F04F41
:100FB00000249FB01022214606A8059406F07AFD71
:100FC000102221460BA80A9406F074FD1022214637
:100FD00010A80F9406F06EFD1022214615A8149457
:100FE00006F068FD102221461AA8199406F062FD49
:100FF000DFF81891002600274FF00008374ADFF885
:1010000010B1D2E900019BF800300393FFF79CFD7B
:10101000039B3349024605A806F02CFD05AA0A21C8
:10102000002002F007FB2F4BD3E9004532463B4638
:1010300020462946FFF740FDD8B929462046FFF74C
:1010400083FD8246FFF766FA02460B462046294694
:10105000FFF712F942464B46FFF7C6FAFFF774FD59
:1010600080EAE073A3EBE0731F4952460FA806F035
:1010700001FD0FAA1421002002F0DCFA1B4B1C49D1
:101080001A680AA806F0F6FC0AAA1E21002002F03F
:10109000D1FA184B18491A6814A806F0EBFC14AAE8
:1010A0002821002002F0C6FA144B154A1B68019350
:1010B000144B15491B68009312789BF8003019A84F
:1010C00006F0D8FC19AA3221002002F0B3FA02F08F
:1010D00019FA642005F007F890E700BFB800002077
:1010E000489300080804002056930008A00300203D
:1010F00065930008A40300206F93000810000020EF
:10110000CC000020280400207993000800408F4084
:1011100001000020000000009FED418B49A5D5E9AA
:10112000004580B5DFF824813F4F404EDFF8209125
:101130009FED3F9A384602F02FFC0A21384602F014
:10114000D0FC384602F020FDC8F80000384602F016
:10115000ADFC304602F020FC0A21304602F0C1FC12
:10116000304602F011FDC9F80000304602F09EFC46
:10117000D8F8003003EB830307EE903AF8EE677A75
:101180002C4B87EE897A83ED007A17EE100AFFF771
:10119000D3F9B0EE481AF0EE681A41EC100B07F0E4
:1011A0006BF9224651EC100B2B46FFF71DFAFFF7A7
:1011B00013FD00EE100A07F0DBF91F4BBDEEC00A6D
:1011C00083ED000AD9F8003003EB830307EE903A71
:1011D000F8EE677A194B87EE897A83ED007A17EE7D
:1011E000100AFFF7A9F9B0EE481AF0EE681A41ECC0
:1011F000100B07F041F92B4651EC100B2246FFF77C
:10120000F3F9FFF7E9FC00EE100A07F0B1F90C4B17
:10121000BDEEC00A0A2083ED000A04F064FF85E7F2
:10122000F853E3A59BC4F2BF100100205801002031
:1012300000F07F452C040020A00300203004002093
:10124000A4030020B0726891EDFC3D40A400002092
:10125000A800002070B53C210E480E4E0E4D03F044
:10126000F8FD02F0D9FA044602F0D6FA001B0A286B
:10127000FAD931682B684A6AB2F5FA4FC6BFC2F58F
:1012800080329B1A9B182B6000234B6202F0C4FA39
:101290000446E9E784020020E803002070B53C2101
:1012A0000E480E4E0E4D03F0D4FD02F0B5FA044682
:1012B00002F0B2FA001B0A28FAD931682B684A6A90
:1012C000B2F5FA4FC6BFC2F580329B189B1A2B604D
:1012D00000234B6202F0A0FA0446E9E73C0200203A
:1012E000AC03002000B595B02C22002109A806F01F
:1012F000E1FB1422002103A806F0DCFB0023194ABD
:101300000193116C41F080511164126C02F0805213
:101310000192019A144A0293116841F480411160CC
:1013200012680E9302F480420292029A02220892FC
:1013300001201022CDE90B0208A803F067FA01464C
:1013400008B172B6FEE70F23CDE90330CDE9050001
:10135000079003A803F034FC08B172B6FEE715B09D
:101360005DF804FB003802400070004080B59CB07E
:1013700002F02CFAFFF7B6FF1422002113A806F0A2
:1013800099FB0024AB4B00941A6BAB48AB4F42F077
:1013900010021A631A6B02F010020092009A019474
:1013A0001A6B42F080021A631A6B02F080020192FB
:1013B000019A02941A6B42F004021A631A6B02F04B
:1013C00004020292029A03941A6B42F001021A6319
:1013D0001A6B02F001020392039A04941A6B42F012
:1013E00002021A631A6B02F002020492049A059434
:1013F0001A6B42F008021A631B6B03F00803059393
:10140000224642F2E051059B02F0E4FD8C48224660
:101410003C2102F0DFFD22468A484FF4806102F051
:10142000D9FD012642F2E053834813A9CDE91336D2
:10143000CDE9154402F0F4FC3C23CDE91336804895
:101440001594022313A9169302F0EAFC4FF480636B
:101450007C4813A9CDE913364FF48075CDE91544C6
:1014600002F0DEFC4FF488137748159413A9CDE9F8
:10147000135302F0D5FC1022214608A806F01AFBEF
:101480001C2221460CA8714DCDE9064406F012FB42
:101490002022214613A806F00DFBA023C5E9007306
:1014A0004FF47A73C5E9033428468023AC606C613D
:1014B000AB6103F049FE08B172B6FEE74FF480530A
:1014C00008A92846089304F080F808B172B6FEE730
:1014D000284603F065FE08B172B6FEE7CDE90600C6
:1014E00006A9284604F002FA08B172B6FEE76023A6
:1014F000CDE90C30CDE910000E9012900C220CA911
:10150000284603F02FFF08B172B6FEE7CDE91300BD
:10151000CDE9150017904FF400531A9013A92846EF
:10152000189304F021FA044608B172B6FEE7284683
:10153000474D01F0CDFE21461C2214A806F0BAFA50
:101540000A274FF080434FF6FF784FF0030913A9A5
:101550002846CDE90C44C5E90034C5E90384AC60F4
:10156000AC61CDF84C901596179719961B9703F020
:101570006FFE08B172B6FEE7CDE90C000CA9284653
:1015800004F0B4F9044608B172B6FEE7314D0146E5
:101590001C2214A806F08EFA2F4B2C6113A92846A2
:1015A000CDE90C44C5E90034C5E90248AC61CDF889
:1015B0004C901596179719961B9703F049FE08B1A2
:1015C00072B6FEE7CDE90C000CA9284604F08EF9AE
:1015D00008B172B6FEE7102500262A46002108A8A9
:1015E00006F068FA1C2231460CA8CDE9066606F022
:1015F00061FA2022314613A806F05CFA174C184B0A
:10160000A660C4E90036204641F61F43C4E903360C
:10161000C4E9056603F098FD08B172B6FEE74FF421
:10162000805308A92046089303F0CFFFD0B172B6CB
:10163000FEE700BF003802400010024000000140F9
:101640000000024000040240000C0240F4010020AF
:101650003C0200208402002000040040140300200B
:1016600000040140204603F09BFD08B172B6FEE77E
:10167000CDE9060006A9204604F038F9024608B173
:1016800072B6FEE76023CDE90C30CDE90E00CDE95E
:10169000100012900CA9204603F064FE08B172B647
:1016A000FEE704220CA9204603F05CFE08B172B6E6
:1016B000FEE7CDE91300CDE9150017904FF4005374
:1016C0001A9013A92046189304F04EF908B172B687
:1016D000FEE7784B784C18614FF4E132C3E90042E1
:1016E0000C22C3E90200C3E90520D861184604F0C2
:1016F00025FA08B172B6FEE7704B7149714A18625B
:10170000C3E900124FF48042C3E90200C3E9042098
:10171000C3E90600184602F06DFD044608B172B632
:10172000FEE7CDE90C0001462A4613A806F0C2F9EF
:101730006548664B8460C0E900354FF6FF73C0E929
:101740000334846103F058FD08B172B6FEE700234C
:101750005D480CA9CDE90C3304F0C8F8024608B185
:1017600072B6FEE70126CDE914601390169013A916
:10177000554803F08BFE054608B172B6FEE7544C9F
:10178000544F0146102213A806F094F9524BA5605D
:101790002046C4E900352561257684F82050E562AD
:1017A000A762E560E66184F83050666102F04EF8A9
:1017B00008B172B6FEE70B23159013A92046CDE9B8
:1017C000133602F0E5F9054608B172B6FEE7434C60
:1017D0000146102213A806F06DF9414BA560204682
:1017E000C4E90035C4E90A752561257684F82050DE
:1017F000E560E66184F83050666102F027F808B1D0
:1018000072B6FEE70C23159013A92046CDE91336D6
:1018100002F0BEF9044608B172B6FEE701F02AFFF5
:1018200030492448324604F0D2FB2F4A2F48214643
:1018300004F012FC2E4B2F4A186021462E4804F06B
:101840000BFC2E4B2E4A186021462E4804F004FC57
:101850002D4B2E4A186021462D4804F0FDFB2D4BE0
:101860002D4A186021462D4804F0F6FB2C4B2D4ADA
:10187000186021462C4804F0EFFB2C4B2C4A1860D2
:1018800021462C4804F0E8FB2B4B2C4A18602146DB
:101890002B4804F0E1FB2B4B2B4A186021462B48C8
:1018A00004F0DAFB2A4B186004F0AAFB04F0BAFB40
:1018B000FEE700BF5C03002000480040A0010020BC
:1018C00000540040A0860100CC0200200008004027
:1018D000100100200100000F0020014058010020ED
:1018E00000210140CC0000204C940008A51A0008FB
:1018F000E400002000950008E1200008B403002067
:1019000024950008AD0F0008E0030020489500086A
:10191000750F0008F0030020B8940008192E000885
:101920000C0100202894000819110008E000002094
:101930009494000855120008F000002070940008EC
:101940009D120008EC000020DC94000881240008AF
:10195000A803002008B501220449054804F037FB1C
:10196000044A13680133136008BD00BFCC00002097
:101970005C03002028040020034B1B6800225A62ED
:101980005A6A8242FCD37047CC020020000000005B
:1019900070B5067F012E044610D1294D296871B912
:1019A00003F0B0FA274B2E60186023681A6A22F001
:1019B0000A021A621A6A42F002021A6270BD012912
:1019C000FCD1002103F09EFA1F4B2468186000230D
:1019D00063621C4B1D4E1B68984224DDC01AFEF743
:1019E00099FDC6E9000114A3D3E90023D6E900015B
:1019F000FEF7FAFD164B0022FEF7F6FD154BC3E984
:101A0000000100232B60236A23F00A032362236A68
:101A10002362114B1A68D36823F00203D3600F4B83
:101A200001221A60CAE7DEDAC3F57F43FF331844A8
:101A3000D5E700BFAFF30080006F8104C58FA13FE1
:101A4000C8000020C0000020C4000020B00000201A
:101A50000000E03FB8000020CC0200201000002071
:101A600038B50D4C0D4B012200254FF40051204696
:101A70001D6002F0AFFA0A20FFF77EFF4FF400511D
:101A80002A46204602F0A6FA054B1A68D36843F0AE
:101A90000203D36038BD00BF0010024010000020D8
:101AA000CC02002070B500210E480F4D0F4E03F000
:101AB0009BFE01F0B1FE01242B6823B1FFF7D0FF9C
:101AC0000A2004F010FB142004F00DFB002CF3D0CE
:101AD00034784C2C03D0523C18BF0124ECE700248E
:101AE000EAE700BFCC02002010000020CC0000205C
:101AF00038B5084D04464FF48061284602F06FFA6D
:101B0000204601F08FFE28464FF48061BDE8384042
:101B100002F065BA0004024070B551EC100B1DA331
:101B2000D3E90023FEF760FD044696200D4604F03D
:101B3000DAFA114A00231360104A1360104BC3E90C
:101B40000045104B1E68104B1868FEF7E3FC224658
:101B50002B46FEF793FBFEF7F7FF0C4B1860304661
:101B6000FEF7D8FC2B462246FEF788FBFEF7ECFF7B
:101B7000074B186070BD00BFE80000200004002083
:101B800020040020AC030020E8030020EC03002028
:101B9000B00300206666666666E6524008B5074BED
:101BA0001860074B952264201A8004F09CFA054ABD
:101BB00000231360044A136008BD00BF0C0000201E
:101BC00008000020E8000020000400200B4B70B546
:101BD000E6220A2055EC104B1A8004F084FA084AD9
:101BE000084E00231360084AD6E90001136022461C
:101BF0002B46FEF741FBC6E9000170BD080000203E
:101C0000E8000020F8030020000400200B4B70B512
:101C10006A220A2055EC104B1A8004F064FA084A34
:101C2000084E00231360084AD6E9000113602246DB
:101C30002B46FEF723FBC6E9000170BD080000201B
:101C4000E8000020F80300200004002038B5044616
:101C50000D4651B3002821DD01222648102102F053
:101C6000B9F900222021234802F0B4F984EAE47390
:101C7000A3EBE473B3F5FA6F2CDCB3F5FA7F2CDC3D
:101C8000C82B2DDC642B2EDC322B2FDC1A4A136878
:101C9000E4B1013313600024204638BD002215480A
:101CA000102102F097F90122DCE7002807DD01226C
:101CB0001048082102F08EF92A460421D3E70A468B
:101CC0000C48082102F086F90122F6E703F5FA73C1
:101CD0001360E1E741F64C54DEE741F27074DBE754
:101CE0004FF4FA64D8E740F2DC54D5E740F24C44B4
:101CF000D2E700BF00000240000400200000000006
:101D00002DE9F04155EC104B0646002210EE100A6A
:101D100000232946002E64D0FEF7F6FE0246002876
:101D200059D001224648102102F054F90022202106
:101D3000434802F04FF9434B002220462946FEF764
:101D400053FC0022002304460D46FEF7BFFE10B1EF
:101D500005F100431D4638A3D3E900232046294658
:101D6000FEF7D2FE002852D1374B002220462946EA
:101D7000FEF7CAFE00284DD1344B002220462946EA
:101D8000FEF7C2FE002848D1314B002220462946EA
:101D9000FEF7BAFE002843D12E4B002220462946EA
:101DA000FEF7B2FE00283ED1264B002220462946EF
:101DB000FEF7AAFE8046002838D1274F274B3E6801
:101DC000002220462946FEF79FFEE0B101363E6024
:101DD0004046BDE8F0811A48102102F0FBF80122CC
:101DE000A5E7FEF773FE024638B101221448082128
:101DF00002F0F0F8324604219AE71148082102F077
:101E0000E9F80122F7E706F5FA763E60E1E741F2EC
:101E10008830DEE74FF47A60DBE74FF4FA60D8E70A
:101E20004FF4C860D5E74FF49660D2E74FF4617085
:101E3000CFE700BFAFF300800000000000C0724099
:101E400000000240000024400000694000005940AA
:101E50000000494000003440000400200000084019
:101E6000F8B555EC104B0646002210EE100A002380
:101E70002946002E62D0FEF747FE0246002857D0C2
:101E800001224348102102F0A5F8002220214048F9
:101E900002F0A0F83F4B002220462946FEF7A4FBA3
:101EA0000022002304460D46FEF710FE10B105F196
:101EB00000431D4634A3D3E9002320462946FEF7FC
:101EC00023FE00284FD1344B002220462946FEF73E
:101ED0001BFE00284AD1314B002220462946FEF73E
:101EE00013FE002845D12E4B002220462946FEF73E
:101EF0000BFE002840D12B4B002220462946FEF73E
:101F000003FE00283BD1234B002220462946FEF742
:101F1000FBFD50B9244F254B3E6800222046294640
:101F2000FEF7F2FDE0B101363E604FF461701CE057
:101F30001748102102F04EF80122A7E7FEF7C6FD70
:101F4000024638B101221248082102F043F8324615
:101F500004219CE70E48082102F03CF80122F7E733
:101F600006F5FA76E0E74FF49650F8BD41F204002A
:101F7000FBE74FF4C860F8E74FF49660F5E740F2EE
:101F80004C40F2E7AFF300800000000000C0724058
:101F90000000024000002440000069400000594059
:101FA00000004940000034400004002000000840C8
:101FB0002DE9F047DFF81C81D8F8009055EC104B64
:101FC00006464846FEF7A6FA22462B46FEF79CFD3B
:101FD000074600286DD04FEA4900FEF79BFA2246DB
:101FE0002B46FEF749F904460D46002E4CD0002240
:101FF0003548102101F0EEFF012205E001223248B0
:10200000102101F0E7FF3A4620212F4801F0E2FFBE
:102010000022002320462946FEF758FD10B105F1A5
:1020200000431D46294B002220462946FEF76CFD41
:10203000B0BBD8F8006006F10900FEF76BFA224643
:102040002B46FEF743FD074668BB3046FEF762FAB3
:102050001F4B0022FEF712F922462B468046894686
:10206000FEF734FD10BBDFF870A022462B46404639
:102070004946DAF80060FEF73DFD60B10136CAF866
:1020800000603846BDE8F08732460F48082101F06D
:10209000A1FF012215E006F5FA76CAF80060F1E723
:1020A00041F27070EEE740F6FC00EBE74FF4617030
:1020B000E8E7002EA2D101220348082101F08AFF9F
:1020C00032460421A1E700BF000002400000444066
:1020D0000000E03F0C000020000400200000000091
:1020E0002DE9F84F0024B84DDFF82483DFF824B33E
:1020F000B6482C802146A8F8004003F073FB042169
:10210000B24803F06FFB0C21584603F06BFBDBF881
:102110000030AF4895221A641021012201F05AFFC5
:10212000AB482246202101F055FFA9480122082191
:1021300001F050FFA6482246042101F04BFF4FF466
:102140007A7003F0D0FFDFF8D092DBF80030B9F8F6
:1021500000A0C3F840A09F499F4BD1E90001D3E9FB
:102160000023FEF789F8BAF17E0F06460F4660D8C5
:102170009A4B1868012850D147EC106BFFF770FE9E
:10218000FEF7C8F98AA3D3E90023FEF72DFAFEF77C
:1021900003FD80B22880FEF7BDF987A3D3E90023B1
:1021A000FEF722FAFEF7F8FC80B2431E9BB240F223
:1021B0008232934296BF4FF49663A8F80000A8F8C5
:1021C00000300022002330463946FEF79DFC0246CF
:1021D00048B301227E48082101F0FCFE00220421C0
:1021E0007B4801F0F7FE7E4B1B681BB100232B8060
:1021F000A8F80030754BB8F800201B685A632A888D
:102200009A63012003F06FFF764B1A68B2F57A7F6C
:1022100099DD40F2E9321A6095E747EC106B012036
:10222000FFF76EFDACE76A48082101F0D3FE0122FA
:10223000D5E7BAF1BD0F39D9684B1B68012B47ECC4
:10224000106B4FF0000028D1FFF70AFE80B2A8F80B
:102250000000FEF75FF958A3D3E90023FEF7C4F9A5
:10226000FEF79AFC80B2431E9BB240F28232934248
:1022700096BF4FF4966328802B80002200233046BF
:102280003946FEF723FC024650B101225048102186
:1022900001F0A0FE00222021A2E7FFF731FDD5E7E3
:1022A0004B48102101F096FE0122F4E74E4BDFF877
:1022B0006CA11B68012B4CD14C4B002093ED000B03
:1022C000FFF776FEFEF726F939A3D3E90023FEF7E0
:1022D0008BF9FEF761FC464B1A68DAF8003082EAA7
:1022E000E271002BB8BF5B42A1EBE2718B423E4B27
:1022F00080B2B4BF013404F1FF342880B0F57A7F96
:10230000186838BF002401281FFA84FA2AD1374BF5
:1023100093ED000BFFF74CFE364B1B68504480B228
:10232000012BA8F800007FF45EAF334B1868FEF76E
:10233000F1F82E4BD3E90023FEF7C8FB2F4B002208
:1023400000286DD030463946FEF7DEFB88B18D237C
:1023500017E02B4B1868DAF800300021C01AFFF79D
:1023600075FCAFE7274B18680121801AFFF76EFC58
:10237000D2E7254B002230463946FEF7A7FB18B1BD
:102380009D23A9F800302EE7204B00223046394625
:10239000FEF72AF9194B0022FEF750FA08A3D3E9F9
:1023A0000023FDF76BFFFEF7F7FBA9F800001AE723
:1023B000F4FDD478E926F13F666666666666D63F28
:1023C0000000000000A06240E6030020140300208B
:1023D00000000240F8030020080400201804002038
:1023E000E800002000040020F4030020B8000020D2
:1023F000E8030020F40000200C000020000014403E
:10240000B0030020EC030020000014C0000020C036
:10241000E4030020F401002008000020AC030020A9
:1024200030463946FEF770FB0028A9D1054B002243
:1024300030463946FEF74AFB002888D1024B00227D
:10244000A4E700BF000014C000002040074B1A683A
:10245000042A4FF0010007DD054A1060054A0020FC
:102460001080054A18601080704700BF00040020EB
:10247000E8000020E6030020E40300200000000044
:102480002DE9F04F2DED028BBB4D87B00024BB4EE4
:102490003368002B40F05F82962003F024FEDFF8C3
:1024A0001CA39AF80030532B40F05982B44BDFF84C
:1024B00010B3B44AB44FB54E1C601A200123CBF8B8
:1024C000004013603B603460FFF768FBFFF7BEFF1E
:1024D00080460028FAD1322003F005FEDFF8E492AE
:1024E000A84BDBF80010C3F80080D9F80030A848EA
:1024F000C7F800800B44C9F80030A14BDFF8C88250
:102500001A68036813440360A24803680B44A24995
:1025100003600B68052013440B6003F0E4FD9F4A41
:102520005A2313709D4B1B785A2B00F01C829C4A37
:10253000522B146040F03082EE2319202B8003F0E0
:10254000D2FD9FED7D0B3460FFF740FBFFF77EFF70
:1025500080460028FAD1652332202B8003F0C3FD8A
:102560009FED770BC6F80080FFF750FBFFF76EFF7B
:1025700080460028FAD1EE2332202B8003F0B3FDF1
:102580009FED6D0BC6F80080FFF720FBFFF75EFFA5
:102590000028FBD1DFF83482952319202B8003F02B
:1025A000A2FDD8E900017F4B0022FDF765FEC8E9D6
:1025B00000014FF6FF737C497C48012203F0ECFADE
:1025C000774A012313607A4B93ED007B0022794B0D
:1025D000B0EE478AF0EE678A51EC170BFEF794FADB
:1025E00030B9704B51EC180B0022FEF76FFA78B13E
:1025F00001233B60624B34609FED530B1C60CBF8B2
:102600000040FFF789FAFFF721FF0028FBD138606F
:102610009AF80030442B40F0FE8195230A202B804D
:1026200003F061FD564B574A1C601C200123CBF878
:10263000004013603B603460FFF7B0FAFFF706FF1D
:102640000028FBD14F4BDBF800101860D9F80030A0
:1026500038600B44C9F800304D48494BDFF87091A1
:102660001A680368DFF86C811344036052480368FA
:102670000B440360D9F800301344484AC9F80030CD
:102680005A231370454B1B785A2B00F0C881522BEC
:1026900040F03C82E62332202B8003F024FD9FEDA6
:1026A0002C0B3460FFF792FAFFF7D0FE804600282B
:1026B000FAD1322003F017FD9523C8202B8003F0B8
:1026C00012FD9FED250BC6F80080FFF725FAFFF7F6
:1026D000BDFE0028FBD1642003F005FD9FED208B9B
:1026E000DFF8F480D8F800301D2B40F3B1816A2365
:1026F00014202B8003F0F7FC9FED1B0B3460FFF7D9
:1027000085FAFFF7A3FE82460028FAD1C82003F01D
:10271000EAFC952314202B8003F0E5FC01233B60A9
:10272000174BC6F800A09FED128BC3F800A0CBF8A2
:1027300000A0DFF8A8A053E00000000000804640A1
:102740000000000000C0574000000000000014C05E
:1027500000000000000056400000000000002AC0F9
:1027600000000000000020400000000000806640E3
:102770000000000000002C400800002004000020A1
:10278000E8030020F4030020F400002000040020EF
:10279000CC030020B8030020C0030020010000206B
:1027A0001804002000001440A29300085C030020DD
:1027B000B800002000208C40BC030020CC0000208A
:1027C000AC030020C803002096930008F803002003
:1027D000C4030020A4930008A0030020D00300201D
:1027E000D8F800301D2B40F34481DAF80030002B7C
:1027F00000F03F816A2314203C602B8003F073FCBF
:102800009FEDAB0B3460FFF701FAFFF71FFE0028C6
:10281000FBD1952314202B8003F065FCB04BD9F835
:1028200000001B683460184400EBD07043F253631F
:1028300003EB6000AB4BCBF800401860AA4B1C6068
:10284000AA4B1C6001233B60FDF764FE9AA3D3E909
:102850000023FDF7F3FFA64B0022FDF70DFD41EC31
:10286000100BFFF759F9FFF7F1FD0028FBD1A14B41
:1028700038601B78522B40F0E0816A239FED900B6B
:102880002B803060FFF7C2F9FFF7E0FD804600289B
:10289000FAD1952332202B8003F025FCC6F8008066
:1028A000DFF86082D8F80000C0EBC0003728A8BF6E
:1028B0003720FDF72FFE41EC100BFFF72DF9FFF746
:1028C000C5FD81460028FAD1322003F00CFC10220D
:1028D000494602A8CDF8049005F0ECF8D8F800209D
:1028E0008549C2EBC20201A805F0C4F801AA0A2179
:1028F000484600F09FFEE6239FED710B2B80C6F843
:102900000090FFF763F9FFF7A1FD0028FBD10A2033
:1029100003F0E9FB952314202B8003F0E4FB9523BF
:102920000A202B8003F0DFFB6F4B704A1C601620DF
:102930000123CBF8004013603B603460FFF72EF9B1
:10294000FFF784FD0028FBD1684B386018606B48A6
:1029500003F0C9FB9BE50A2003F0C5FB98E50520C1
:1029600003F0C1FB9DE59AF800304C2B01D0522BAF
:1029700002D1604A1370D5E51022002102A801940B
:1029800005F098F8414601A805F01EF901AA0A21B0
:10299000002000F04FFEC5E54C2B7FF411AE6523FF
:1029A00019202B8003F09FFB9FED470B3460FFF74E
:1029B0002DF9FFF74BFD80460028FAD1EE23322097
:1029C0002B8003F090FB9FED420BC6F80080FFF7D1
:1029D000FDF8FFF73BFD80460028FAD16523322041
:1029E0002B8003F080FB9FED3C0BC6F80080FFF7C7
:1029F0000DF9FFF72BFD0028FBD1DFF80C819523A3
:102A000019202B8003F06FFBD8E900013C4B00221A
:102A1000FDF734FCCBE5052003F065FBF8E59AF8FB
:102A200000304C2B01D0522B02D1324A137029E6D0
:102A30001022002102A8019405F03CF8414601A8AB
:102A400005F0C2F801AA0A21002000F0F3FD19E602
:102A5000B0EE480AF0EE680A3460FFF75DF8FFF761
:102A6000F5FC0028FBD1952364202B8003F03BFB71
:102A700038E6C820346003F036FBB0EE480AF0EECA
:102A8000680AFFF749F8FFF7E1FC1E4A0028FAD16F
:102A900095232B80136801331360D8F800301D2B69
:102AA000DCBF0123CAF800309AE600BFAFF3008014
:102AB00000000000008056406666666666E652408A
:102AC000000000000080514000000000000049406C
:102AD0000000000000C05740000000000080464099
:102AE000BC030020CC030020E8030020F4030020F6
:102AF00000405540010000208B930008809698000C
:102B000000001440D4030020F80300204C2B7FF475
:102B100085AE652332202B8003F0E5FA9FED6E0B26
:102B20003460FFF773F8FFF791FC80460028FAD174
:102B3000322003F0D8FA9523C8202B8003F0D3FA73
:102B40009FED670BC6F80080FEF7E6FFFFF77EFCFF
:102B50000028FBD1642003F0C6FA9FED638BDFF8F9
:102B6000BC81D8F800301D2B3ADDE62314202B80E1
:102B700003F0B9FA9FED5E0B3460FFF727F8FFF71B
:102B800065FC82460028FAD1C82003F0ACFA9523F0
:102B900014202B8003F0A7FA01233B605C4BC6F89E
:102BA00000A09FED558BC3F800A0CBF800A0DFF884
:102BB00070A1D8F800301D2B23DDDAF8003003B304
:102BC000E62314203C602B8003F08DFA9FED4C0B24
:102BD0003460FEF7FBFFFFF739FC0028FBD118E655
:102BE000B0EE480AF0EE680A3460FEF795FFFFF792
:102BF0002DFC0028FBD1952364202B8003F073FA71
:102C0000AFE7C820346003F06EFAB0EE480AF0EE89
:102C1000680AFEF781FFFFF719FC3E4A0028FAD147
:102C200095232B80136801331360D8F800301D2BD7
:102C3000DCBF0123CAF80030BBE74C2B7FF46FAE3A
:102C4000E6239FED310B2B803060FEF7BFFFFFF7CF
:102C5000FDFB80460028FAD1952332202B8003F01B
:102C600042FAC6F80080DFF8AC80D8F80000C0EB6C
:102C7000C0003728A8BF3720FDF74CFC41EC100BF3
:102C8000FEF74AFFFFF7E2FB81460028FAD1322027
:102C900003F029FA1022494602A8CDF8049004F066
:102CA00009FFD8F800201C49C2EBC20201A804F0B9
:102CB000E1FE01AA0A21484600F0BCFC6A239FED10
:102CC000120B2B80C6F80090FEF7A0FFFFF7BEFBAB
:102CD0000028FBD11BE600BF0000000000005640AA
:102CE0000000000000002AC000000000000020409A
:102CF00000000000008066400000000000002C4042
:102D0000000000000080564000000000008051409C
:102D1000E8030020D40300208B930008A4030020C4
:102D2000D003002073B50C4E0C4A0D4D10700C46AC
:102D30000A233178009301239940284601F002FBD1
:102D4000317814230093224602234900284601F0DB
:102D5000D1FB02B070BD00BF00000020F8000020D1
:102D6000A001002007B5074B074A51701978107071
:102D70001423009349000223044801F0E3FA03B04E
:102D80005DF804FB00000020F8000020A0010020F6
:102D900008B500210620FFF7E5FF0A2003F0A3F99C
:102DA00080210320FFF7DEFF0A2003F09CF90721B2
:102DB0000846FFF7D7FF0A2003F095F90121062006
:102DC000FFF7D0FF0A2003F08EF920217F20FFF7C4
:102DD000C9FF0A2003F087F92F210120FFF7C2FF66
:102DE0000A2003F080F900210846FFF7BBFF0A2004
:102DF00003F079F900217F20FFF7B4FF0A2003F0E8
:102E000072F907200021FFF7ADFFBDE808400A2056
:102E100003F069B9000000002DE9F74FFFF7B8FF94
:102E200000244FF49670ADF80040019403F05BF974
:102E30006420FEF75DFE0FF21019D9E90089444DB8
:102E4000DFF814A1019B632B4BDD6420FEF750FEDD
:102E50000198DFF808B1FDF75DFB02460B46D5E9A6
:102E60000001FDF7EBFCC5E9000100F0D5FC0FF215
:102E7000D809D9E90089374B002204461A6032206C
:102E800003F031F969463720FFF74CFFBDF800A089
:102E90009AFABAFA5046FDF73DFBD5E90023FDF753
:102EA000EBF90F46064600F0B7FC001BFDF722FBCE
:102EB00042464B46FDF7C2FC32463B46FDF794FBCB
:102EC000DBE90023FDF7DAF9CBE9000100F0A4FC0F
:102ED000019BA3EB0A030193019B01330446019379
:102EE000CDE7322003F0FFF869463720FFF71AFFDD
:102EF000BDF80000C0BAFDF70DFB0F46064600F016
:102F00008BFC001BFDF7F6FA42464B46FDF796FC9C
:102F100032463B46FDF768FBDAE90023FDF7AEF9E0
:102F2000CAE9000100F078FC3B4604463246D5E988
:102F30000001FDF7A3F9019B0133C5E900010193ED
:102F400080E700BFAFF30080000000000004D04025
:102F5000D8030020040000201004002008040020F2
:102F600013B5134B002400945A6C42F480425A6407
:102F70005A6C02F480420092009A01941A6C42F05A
:102F800080521A641B6C03F08053019322460F2178
:102F90006FF00100019B00F09DFE052108462246CE
:102FA00000F098FE052002B0BDE8104000F0C4BE5D
:102FB0000038024010B514228AB0044600210DEBFF
:102FC000020004F077FD23681E4A93421FD11E4B76
:102FD000002101915A6C42F480725A645A6C02F4D6
:102FE00080720192019A02911A6B42F004021A63F4
:102FF0001B6B03F004030293029B02230593134807
:10300000032305A9069300F00BFF0AB010BD104A78
:103010009342FAD10C4B002103915A6C42F4007296
:103020005A645A6C02F400720392039A04911A6B68
:1030300042F004021A631B6B03F004030493049B25
:103040000423DBE700200140003802400008024072
:103050000021014030B5044689B01422002103A8A4
:1030600004F028FD2268144B9A4222D1134C1448D4
:1030700000250195236B43F002032363236B03F0C8
:1030800002030193019B4FF440721223CDE9032305
:1030900003210423CDE9061303A900F0C1FE029524
:1030A000236C43F400132364236C03F40013029392
:1030B000029B09B030BD00BF005400400038024000
:1030C0000004024010B5044688B01422002103A871
:1030D00004F0F0FC2368254A93421CD10022244BC3
:1030E0000092596C41F0010159645B6C03F00103DB
:1030F000052100931820009B00F0ECFD182000F043
:103100001BFE19200022052100F0E4FD192000F02B
:1031100013FE08B010BD174A9342FAD1144B16485B
:10312000002401945A6C42F002025A645A6C02F074
:1031300002020192019A02941A6B42F004021A638D
:103140001B6B03F004030293C022029B0223CDE910
:10315000032303A90323079300F062FE2D202246D8
:10316000052100F0B7FD2D20D1E700BF0000014090
:1031700000380240000401400008024070B51422EB
:103180008AB0044600210DEB020004F093FC236892
:10319000B3F1804F37D103F50E33002400941A6C3D
:1031A000294842F001021A641A6C02F001020092EE
:1031B000009A01941A6B42F001021A631A6B02F032
:1031C00001020192019A02941A6B42F002021A6300
:1031D0001B6B03F002030293029B02264FF4004391
:1031E000012505A9CDE90536099500F019FE08234A
:1031F000CDE90536CDE907441448099505A900F045
:103200000FFE0AB070BD124A9342FAD1114B0E481C
:10321000002103911A6C42F002021A641A6C02F047
:1032200002020392039A04911A6B42F001021A639C
:103230001B6B03F001030493049BC0220223CDE91E
:103240000523099305A9DAE70000024000040240C3
:10325000000400400038024010B5044688B0142233
:10326000002103A804F026FC2268174B9A4228D1BB
:1032700003F50C33002401941A6C144842F0040244
:103280001A641A6C02F004020192019A02941A6BF9
:1032900042F008021A631B6B03F0080302934FF419
:1032A0008052029B03A90223CDE90323079300F078
:1032B000B7FD1E202246052100F00CFD1E2000F067
:1032C0003BFD08B010BD00BF00080040000C0240EC
:1032D00010B5044686B01422002101A804F0EAFBD0
:1032E00022680E4B9A4216D1002300930C4B0D48D6
:1032F0001A6B42F010021A631B6B03F01003009369
:10330000009B4FF480420223CDE9012301A9012350
:10331000059300F085FD06B010BD00BF0000014020
:10332000003802400010024010B5044688B0142254
:10333000002103A804F0BEFB2268184B9A422BD14F
:1033400003F5F833002401941A6C154842F48022E6
:103350001A641A6C02F480220192019A02941A6B88
:1033600042F004021A631B6B03F0040302934FF450
:103370004062029B0223CDE9032303210723CDE909
:10338000061303A900F04CFD27202246052100F07A
:10339000A1FC272000F0D0FC08B010BD0048004080
:1033A00000080240FEE7FEE7FEE7FEE7FEE77047A3
:1033B00008B500F025FA03F073FE012803D0BDE83C
:1033C000084004F07FB908BD70470000014801F0D3
:1033D000B3BD00BFF4010020FFF7F8BF014801F0C2
:1033E000ABBD00BFCC020020014802F08FBC00BF83
:1033F0005C030020014801F09FBD00BF14030020C2
:103400000B4A116810B5034609B90A4911601068E2
:1034100009490A4C0344091B8B4206D904F0A8FB56
:103420000C2303604FF0FF3010BD1360FCE700BFBA
:103430003404002068530020000002200004000033
:10344000034AD2F8883043F47003C2F888307047DA
:1034500000ED00E0DFF834D00D480E490E4A00239D
:1034600002E0D458C4500433C4188C42F9D30B4A38
:103470000B4C002301E013600432A242FBD3FFF7A0
:10348000DFFF04F07BFBFDF771FF704700000220B7
:10349000000000208800002070A0000888000020A4
:1034A00068530020FEE7000070B50A46044601B1EB
:1034B00001221348124E4FF4807100F08BFD082555
:1034C00000222021304600F085FD23064CBF01225A
:1034D00000224021304600F07DFD013D01222021E7
:1034E000304600F077FD640015F0FF05E4B2E7D147
:1034F000BDE87040024801224FF4807100F06ABDBF
:103500000010024070B50F4EB02400212046FFF796
:10351000CBFF00210846FFF7C7FF00211020FFF76F
:10352000C3FF002516F8350001210135FFF7BCFF68
:10353000802DF7D10134E4B2B82C06F10106E4D1B4
:1035400070BD00BF380400200023084810B41C469A
:103550000022C11801F832400132802AFAD1013329
:10356000082BF5D15DF8044BFFF7CCBF38040020E1
:10357000030610B512D43F2910D801F00703C3F198
:10358000070301249C40C908064BC1F10701C9B2D9
:1035900003EBC000435C12B12343435410BD23EA44
:1035A0000403FAE7380400202DE9F74F1F46203ABC
:1035B0001E4B9DF830B0D2B203EB021301931C4BAB
:1035C00002EB420203EB82038146884600930C46DD
:1035D0000026B74202D103B0BDE8F08F0C2F0CBF1C
:1035E000009B019B9D5D04F108035FFA83FA2B06A3
:1035F00058BFBBFA8BF2214604F101044CBF5A4676
:1036000052094846E4B2FFF7B3FFA4EB08026D008D
:10361000BA42EDB207D109F101005FFA80F9C24662
:1036200001365446D5E7A245E1D1F9E7F8990008FB
:1036300084950008F7B504460D46561E012716F876
:10364000013F0BB903B0F0BD7A2C82BF1035EDB24B
:1036500000243A2D03D9FFF777FF00252C46009769
:10366000204632780C2329460834FFF79DFFE4B248
:10367000E5E7000010B501F0ADF8404B404C1A6F83
:1036800022F001021A671A6F22F004021A6701F091
:10369000AFF800228021204600F09CFC642000F05E
:1036A000C1F801222046802100F094FC0021AE20C8
:1036B000FFF7FAFE0021D520FFF7F6FE002150208B
:1036C000FFF7F2FE0021A820FFF7EEFE00213F20C9
:1036D000FFF7EAFE0021D320FFF7E6FE00210846AF
:1036E000FFF7E2FE00214020FFF7DEFE00218D20E3
:1036F000FFF7DAFE00211420FFF7D6FE002120207C
:10370000FFF7D2FE00210220FFF7CEFE0021A1200C
:10371000FFF7CAFE0021C020FFF7C6FE0021DA2015
:10372000FFF7C2FE00211220FFF7BEFE002181201C
:10373000FFF7BAFE0021EF20FFF7B6FE0021D920E7
:10374000FFF7B2FE0021F120FFF7AEFE0021DB20E3
:10375000FFF7AAFE00213020FFF7A6FE0021A420DB
:10376000FFF7A2FE0021A620FFF79EFE0021AF205A
:10377000FFF79AFEBDE81040FFF7E6BE00380240B2
:103780000010024038B50E4B1A784FF47A73B3FB31
:10379000F2F30C4A05461068B0FBF3F000F0DAFAD9
:1037A000044658B90F2D09D8024629464FF0FF307C
:1037B00000F090FA044B20461D6038BD0120FCE764
:1037C00018000020140000201C00002008B50B4B3E
:1037D0001A6842F400721A601A6842F480621A6031
:1037E0001A6842F480721A60032000F061FA0F2018
:1037F000FFF7C8FFFFF7B4FB002008BD003C024004
:10380000034A044B11681B780B441360704700BFD8
:103810003808002018000020014B1868704700BFCE
:103820003808002038B50446FFF7F6FF631C1CBFBC
:10383000054B1B78054618BFE418FFF7EDFF431B47
:10384000A342FAD338BD00BF1800002038B50446A3
:10385000002800F09B80056C25B9FFF7ABFB656481
:1038600084F83C50236CDB0600F18E80236C23F43B
:10387000885323F0020343F002032364444B5A6845
:1038800022F440325A605A6861680A435A602368D9
:1038900021695A6822F480725A605A6842EA012209
:1038A0005A605A68A16822F040725A605A680A4306
:1038B0005A609A68E16822F400629A609A680A4342
:1038C0009A603449A26A8A4252D0996821F07061A4
:1038D000996099680A439A609A68E16A22F04052B6
:1038E0009A609A680A439A609A6822F002029A6083
:1038F0009A68217E42EA41029A6094F82020002AC8
:103900003ED05A68616A42F400625A605A6822F4F2
:1039100060425A605A68013942EA41325A60DA6AB2
:10392000E16922F47002DA62DA6A013942EA01528C
:10393000DA629A6822F400729A609A6894F83010F9
:1039400042EA41229A609A68616922F480629A6030
:103950009A68002042EA81229A606064236C23F016
:10396000030343F001032364002384F83C3038BD93
:103970009A6822F070629A609A6822F04052B2E728
:103980005A6822F40062C9E70120EDE70120EEE762
:10399000002301400100000F13B50023019390F8AC
:1039A0003C30012B024672D00168012380F83C3084
:1039B0008B68D8070CD58B6813F001031AD1116CF2
:1039C00041F010011164516C41F0010151645CE05F
:1039D0008B68304843F001038B602F4B1B68B3FBAF
:1039E000F0F303EB43030193019B002BE3D0019B16
:1039F000013BF8E7136C294C23F4E06323F0010347
:103A000043F4807313644B685B0541BF136C23F46C
:103A1000405343F480531364136C13F4805318BF62
:103A2000536C4FF0000018BF23F00603536482F874
:103A30003C006FF022031A4A0B60536813F01F0317
:103A400019D1A14206D0174881420DD1526812F017
:103A50001F0F1AD1886810F0405016D18B6843F0C0
:103A600080438B6002B010BD0F4881420DD1526877
:103A700012F0100FEDE7A142F4D18B6813F0405320
:103A8000F0D18A6842F080428A600020EAE7022092
:103A9000E8E700BF40420F00140000200020014072
:103AA00000230140002101400022014090F83C30F9
:103AB000012B14D003689A6822F001029A609B6877
:103AC000DB0707D4036C23F4885323F0010343F08E
:103AD00001030364002380F83C301846704702203D
:103AE000704703689A68520570B504460D460BD5B9
:103AF0009B68DE0508D5036C43F0200303640023B4
:103B000080F83C30012070BDFFF786FE0646236832
:103B10001A6891070CD56FF012021A60226C42F4F9
:103B2000007222649A6812F0405F17D00020EAE722
:103B3000681CEDD065B923681B6813F00203E6D159
:103B4000226C84F83C3042F0040222640320DAE75D
:103B5000FFF762FE801BA842EDD8D8E7207E002840
:103B6000E4D1DA6A12F4700F02D09B685A05DDD4F2
:103B7000236C23F480732364236CDB04D6D4236C7E
:103B800043F001032364BEE70368D86C704700006C
:103B9000F7B50023019390F83C30012B64D001234A
:103BA00080F83C300D6803688E68092DACB231D9BD
:103BB00004EB4402DF681E3A4FF0070C0CFA02FCDB
:103BC00027EA0C07DF60DF6806FA02F23A43DA60A0
:103BD0004968062901EB81022BD8596B053A1F264B
:103BE000964021EA06015963596B04FA02F20A432E
:103BF0005A632B4A934207D1122D37D1D2F804339E
:103C000043F48003C2F80433002380F83C301846A4
:103C100003B0F0BD1A6905EB450C072707FA0CF74E
:103C200022EA07021A611A6906FA0CF616431E61A7
:103C3000CEE70C294FF01F010BD81E6B233A9140A1
:103C400026EA01011963196B04FA02F20A431A63A6
:103C5000CFE7DE6A413A914026EA0101D962D96A8A
:103C600094400C43DC62C4E70220D1E7A5F11003C5
:103C7000012BC9D80B4A5368102D43F4000353603D
:103C8000C2D1094B094A1B68B3FBF2F30A22534322
:103C90000193019B002BB7D0019B013BF8E700BFCC
:103CA00000200140002301401400002040420F008A
:103CB0000749CA6822F4E0620302120403F4E063D5
:103CC000120C134343F0BF6343F40033CB607047DF
:103CD00000ED00E0164B30B5DC68C4F30224C4F1FB
:103CE0000703251D042B28BF0423062D4FF0FF35A5
:103CF0008CBF033C002405FA03F321EA0303A5402B
:103D000022EA0502A340002843EA0203ACBF00F107
:103D10006040084A4FEA0313B8BF00F00F00DBB25F
:103D2000AABF00F56140135480F8003330BD00BFD6
:103D300000ED00E014ED00E0002807DB4109044A33
:103D400000F01F000123834042F82130704700BF7C
:103D500000E100E00138B0F1807F0BD24FF0E023AA
:103D6000054A5861F02182F823100020072298614B
:103D70001A6170470120704700ED00E070B50446FD
:103D8000866DFFF749FD94F83530022B054606D0C5
:103D9000802363650120002384F8343070BD2368DC
:103DA0001A6822F016021A605A6922F080025A61DB
:103DB000226C0AB9A26C1AB11A6822F008021A60C1
:103DC0001A6822F001021A6023681B6813F00103CD
:103DD00008D1E16D3F228A40B260012284F835208B
:103DE0001846D8E7FFF718FD401B0528ECD920231B
:103DF0000320636584F83500CDE790F83530022B59
:103E000003D080234365012070470268052380F8B2
:103E10003530136823F00103136000207047000061
:103E20002DE9F74FDFF8A891674A00230D680124B8
:103E30009C4004EA050CAC4340F0B1804D6805F0AD
:103E400003044FEA43080326671E06FA08F6012F0B
:103E50006FEA060634D8876807EA060ECF6807FAC5
:103E600008F747EA0E078760476827EA0C0EC5F394
:103E700000179F4047EA0E074760C76807EA060E2B
:103E80008F6807FA08F747EA0E07022CC76019D1B6
:103E90004FEAD30A00EB8A0A03F0070BDAF8207026
:103EA0004FEA8B0B4FF00F0E0EFA0BFE27EA0E0EA9
:103EB0000F6907FA0BF747EA0E07CAF8207001E00E
:103EC000032CDAD1076804FA08F437403C4315F4B0
:103ED000403F046063D04FF0000ACDF804A0D9F849
:103EE00044603A4C46F48046C9F84460D9F84460CE
:103EF00006F480460196019E23F0030606F18046F3
:103F000006F59C3603F0030ED6F808804FEA8E0EB5
:103F10000F2707FA0EF7A04228EA070746D004F554
:103F20008064A04244D004F58064A04242D004F5ED
:103F30008064A04240D004F58064A0423ED004F5E5
:103F40008064A0423CD004F58064A0423AD004F5DD
:103F50008064A0420CBF0724082404FA0EF43C43FA
:103F6000B46094686FEA0C06EF0254BF34404CEA28
:103F700004049460D468AF0254BF34404CEA040493
:103F8000D4605468AF0354BF34404CEA0404546016
:103F90001468ED0354BF34404CEA04041460013348
:103FA000102B7FF443AF03B0BDE8F08F5446D4E745
:103FB0000124D2E70224D0E70324CEE70424CCE78F
:103FC0000524CAE70624C8E7003C0140000002407F
:103FD000003802400AB1816170470904FBE7436978
:103FE00001EA030221EA030141EA024181617047CB
:103FF00001684B6913F480634FF0000210D06FF436
:1040000080634B612023026380F83D3080F83E20BE
:10401000036C80F83C2043F00403036401207047E4
:10402000184670472DE9F84606460F4691461D464C
:104030004FEA114A3368BAF1010F0CBF5C699C6901
:1040400027EA0404A4B2B4FA84F46409A14501D0B7
:10405000002017E06A1CEED0FFF7DEFB089BC01AB9
:10406000A84201D8002DE5D100232022336386F831
:104070003D2086F83E30326C86F83C3042F020021B
:1040800032640120BDE8F8862DE9F04104460F4670
:10409000164698462568686927EA000080B2B8B1DC
:1040A0006B695A0516D52B6843F400732B606FF4C7
:1040B00080636B6120220023236384F83D2084F811
:1040C0003E30226C42F00402226484F83C3001202D
:1040D000BDE8F081731CDED0FFF79EFBA0EB08006B
:1040E000B04201D8002ED5D100232022236384F8CA
:1040F0003D2084F83E30226C42F02002E4E770B5A7
:1041000004460D46164621684B6913F0400301D062
:10411000002010E04A69D2060ED56FF010024A6105
:104120002022236384F83D2084F83E30226C2264F0
:1041300084F83C30012070BDFFF76EFB801BA84265
:1041400001D8002DDFD100232022236384F83D20F5
:1041500084F83E30226C42F02002E8E770B5044655
:104160000D46164623685B691B0601D5002070BD0D
:104170002046FFF73DFFA8B96A1CF3D0FFF74CFBC0
:10418000801BA84201D8002DECD1002320222363FC
:1041900084F83D2084F83E30226C84F83C3042F0B4
:1041A000200222640120E2E770B504460D4616465F
:1041B00023685B695B0701D5002070BD2046FFF7CF
:1041C00017FFA8B96A1CF3D0FFF726FB801BA84293
:1041D00001D8002DECD100232022236384F83D2058
:1041E00084F83E30226C84F83C3042F02002226495
:1041F0000120E2E770B5044608B9012070BD90F8CF
:104200003D3003F0FF021BB980F83C20FEF722FF8F
:10421000242384F83D3023681A6822F001021A60D2
:104220001A6842F400421A601A6822F400421A60C6
:1042300000F060FD3F4B65689D4294BF3E4B3F4B95
:1042400098428CBF00230123002BD6D12268394E1F
:1042500051683B4BB0FBF3F321F03F011943B542EA
:10426000516088BF4FF49676116A88BF734321F07E
:104270003F0184BF4FF47A76B3FBF6F301330B436F
:104280001362D169431E2B4821F44F41854221F02E
:10429000FF0132D86D0040F6FC70B3FBF5F301333B
:1042A000034242D0C3F30B031943D161D4E9073071
:1042B0001168034321F0C0010B4313609168D4E9F6
:1042C000030321F40341034321F0FF010B439360F7
:1042D000D4E90530D168034321F0FF010B43D360DB
:1042E000136843F00103136000202023206484F846
:1042F0003D30206384F83E0080E7A06850B905EBAC
:104300004505B3FBF5F30133C3F30B037BB143F472
:104310000043C9E719206843B3FBF0F30133C3F34B
:104320000B0323B143F44043BEE70423BCE701235E
:10433000BAE700BFA08601007F841E00FF083D0091
:1043400040420F002DE9F043044685B098460C9F8B
:104350000D469146FFF760FA94F83D30202B064653
:1043600004D00225284605B0BDE8F08300905D49E1
:10437000192301222046FFF755FE0028F1D194F8B9
:104380003C30012BEDD02168012384F83C300B68D0
:10439000DA075EBF0B6843F001030B600B6823F480
:1043A00000630B60212384F83D30102384F83E30F5
:1043B00000232364A4F82A80638D23854A4BE3629B
:1043C000E36AC4F82490082B04D0012B02D013F523
:1043D000803F04D10B6843F480730B6002E0236BD1
:1043E000122BF7D0002200963B464FF001112046D9
:1043F000FFF718FE226838B11368DB0544BF4FF49D
:10440000007323640125ADE72369B3F5804F21D103
:1044100005F0FE051561354933463A462046FFF75B
:1044200033FE05460028EDD1236803905A690392B4
:104430009B690393039B238DF3B921680A6842F4B7
:1044400000720A60202284F83D2084F83C3084F811
:104450003E3087E7EB1103F0060343F0F0031361EE
:10446000234933463A462046FFF70EFE0028C9D1BD
:104470002368EDB21D61CEE7324639462046FFF78C
:104480006DFE40B1236C042BBCD12268136843F449
:1044900000731360B6E7636A20681A4612F8011BBE
:1044A00001616262628D013A92B26285228DD0F81A
:1044B00014C0511E89B21CF0040F21850AD049B1E5
:1044C0005978016102336362638D013B9BB2023A0A
:1044D00063852285324639462046FFF765FE00286F
:1044E000A9D0CFE7020010000000FFFF020001008A
:1044F000080001002DE9F043044689B09846109F5A
:104500000E469146FFF788F994F83D30202B05467A
:1045100004D00226304609B0BDE8F08300909A49E5
:10452000192301222046FFF77DFD0028F1D194F8E0
:104530003C30012BEDD02168012384F83C300B681E
:10454000DB075EBF0B6843F001030B600B6823F4CD
:1045500000630B60222384F83D30102384F83E3042
:1045600000232364A4F82A80638D2385874BE362AC
:10457000E36A0A68C4F8249042F48062082B0A6057
:1045800004D0012B02D013F5803F04D10B6843F413
:1045900080730B6002E0236B112BF7D03B46009534
:1045A00000224FF001112046FFF73CFD236838B18F
:1045B0001B68D80544BF4FF4007323640126A9E7A4
:1045C0002269B2F5804F27D146F00106F6B21E618E
:1045D0006F492B463A462046FFF756FD064600280F
:1045E000ECD1238D2168002B4BD103904B690393B1
:1045F0008B690393039B0B6843F400730B60DFF834
:104600009881238D002B64D1202284F83D2084F8EA
:104610003C3084F83E307DE74FEAE61808F00608A3
:1046200048F0F0021A615B492B463A462046FFF7F4
:104630002BFD0028C2D123685549F6B21E613A46C7
:104640002B462046FFF720FD02460028B6D12368FE
:10465000079059690791996907910799196841F479
:1046600080711960204600953B464FF00111FFF71D
:10467000D9FC226808B113689BE748F0F103136185
:10468000A6E7012B0AD10B6823F480630B6004902A
:104690004B6904938B690493049BACE7022B0B6872
:1046A0000DD123F480630B600B6843F400630B604F
:1046B00005904B6905938B690593059B9FE743F430
:1046C00080630B6006904B6906938B690693069B8B
:1046D00095E7032B62D8012B16D12A46394620468E
:1046E000FFF70DFD00287FF469AF23681A69636A3C
:1046F0001A70636A01336362238D013B2385638DE6
:10470000013B9BB263857CE7022B00953B464FF053
:104710000002414620461AD1FFF784FC00287FF4AE
:104720004DAF23681A6842F400721A601A69636A0E
:104730001A70626A531C6362238D013B2385638D6B
:10474000013B9BB2638523681B695370D1E7FFF778
:1047500069FC024600287FF431AF2368196821F410
:10476000806119601969636A1970636A0095013381
:104770006362238D013B2385638D013B9BB263857F
:1047800041463B462046C7E7020010000000FFFFFD
:104790000200010008000100040001002A46394619
:1047A0002046FFF7ACFC00287FF408AF23681A69A5
:1047B000636A1A70626A531C6362238D013B23850E
:1047C000638D013B9BB263852368596949077FF577
:1047D00018AFB9E7044B01221A62044B82B01B6880
:1047E0000193019B02B0704700000E420070004030
:1047F000044B00221A62044B82B01B680193019B98
:1048000002B0704700000E42007000402DE9F341F5
:10481000044640B30368DD0710D4236898075BD4CF
:1048200023681A0700F19D8023685B0700F1BD80B3
:10483000A069002840F0248100202CE08D4B9A686C
:1048400002F00C02042A07D09A6802F00C02082A2F
:104850000BD15B68590208D5864B1B689A03DCD5DF
:104860006368002BD9D1012015E06368814DB3F551
:10487000803F13D12B6843F480332B60FEF7CCFFCD
:104880007C4E054633689B03C7D4FEF7C5FF401B2B
:104890006428F7D9032002B0BDE8F081B3F5A02F5A
:1048A00004D12B6843F480232B60E3E72A6822F4C9
:1048B00080322A602A6822F480222A60002BDDD10F
:1048C000FEF7AAFF06462B689F03A6D5FEF7A4FFB6
:1048D000801B6428F7D9DDE7664B9A6812F00C0F4D
:1048E00007D09A6802F00C02082A11D15B685E02B8
:1048F0000ED4604A13689D0702D5E368012BB2D13C
:104900001368216923F0F80343EAC103136087E7C2
:10491000E268594BB2B101221A60FEF77DFF554D96
:1049200006462B68980707D52B68226923F0F80301
:1049300043EAC2032B6073E7FEF76EFF801B022879
:10494000EFD9A7E71A60FEF767FF4A4E05463368BE
:1049500099077FF565AFFEF75FFF401B0228F6D988
:1049600098E76269444B82B10122C3F8802EFEF7BA
:1049700053FF404E0546736F9F073FF555AFFEF757
:104980004BFF401B0228F6D984E7C3F8802EFEF7C0
:1049900043FF384E0546736F98077FF545AFFEF726
:1049A0003BFF401B0228F6D974E7324B1A6C12F019
:1049B000805228D101921A6C42F080521A641B6C0A
:1049C00003F080530193019B01272C4D2B68D905DF
:1049D0001BD5A368274D012B27D12B6F43F0010373
:1049E0002B67FEF719FF234E054641F28838336FD7
:1049F0009B0739D5002F3FF41BAF1E4A136C23F0E1
:104A00008053136414E70027DFE72B6843F48073B7
:104A10002B60FEF701FF06462B68DA05D9D4FEF7B6
:104A2000FBFE801B0228F7D934E7052B04D12B6F3E
:104A300043F004032B67D0E72A6F22F001022A67B4
:104A40002A6F22F004022A67002BCAD1FEF7E4FE87
:104A500041F2883806462B6F9807CBD5FEF7DCFE6F
:104A6000801B4045F7D915E7FEF7D6FE401B4045B1
:104A7000BDD90FE7003802400000474200700040F7
:104A8000364DAB6803F00C03082B3DD0344B0022AD
:104A900002281A662BD1FEF7BFFE06462B68990145
:104AA0001FD4D4E907321343626A43EA8213E26AED
:104AB00043EA0263A26A5208013A43EA02436B6086
:104AC000274B264D01221A66FEF7A6FE04462B68E8
:104AD0009A013FF5B1AEFEF79FFE001B0228F6D902
:104AE000D8E6FEF799FE801B0228D7D9D2E6FEF75A
:104AF00093FE04462B689B017FF59EAEFEF78CFE6D
:104B0000001B0228F6D9C5E601283FF4C4AE6B6845
:104B1000E26903F4800191427FF4A5AE216A03F0BB
:104B20003F028A427FF49FAE616A47F6C0721A4024
:104B3000B2EB811F7FF497AEA26A520803F44031B2
:104B4000013AB1EB024F7FF48EAEE26A03F070637C
:104B5000B3EB026F3FF470AE85E600BF0038024051
:104B600000004742134908B58B6803F00C03042B7F
:104B70001CD0082B1CD14A684B68496813F4800389
:104B800014BF0D480D48C1F3881118BF002302F06F
:104B90003F02A1FB0001FCF76FF8064B5B68C3F313
:104BA000014301335B00B0FBF3F008BD0248FCE7B2
:104BB0000248FAE70038024040787D010024F40002
:104BC0002DE9F0410D46044610B90120BDE8F08101
:104BD000434B1A6802F007028A4228D321688F07E4
:104BE0002DD4C80740D43E4B1A6802F00702AA42EF
:104BF00065D8226851076BD4130707D5394A216954
:104C0000936823F4604343EAC1039360FFF7AAFF6C
:104C1000344B354A9B68C3F30313D35CD840334B02
:104C20001860334B1868FEF7ADFD0020CEE7CAB21E
:104C30001A701B6803F007038B42C6D1CEE7294BDD
:104C400011F0040F1EBF9A6842F4E0529A600E07FA
:104C500042BF9A6842F460429A609A68A06822F063
:104C6000F00202439A60BCE762681E4B012A1CD125
:104C70001B6813F4003FA8D01A4EB36823F0030357
:104C80001343B360FEF7C8FD41F288380746B368A6
:104C9000626803F00C03B3EB820FA4D0FEF7BCFDF7
:104CA000C01B4045F3D9032090E7911E01291B68E2
:104CB00002D813F0007FDEE713F0020FDBE7EAB261
:104CC0001A701B6803F00703AB427FF47EAF90E7D6
:104CD0000449E0688B6823F4E05303438B608BE75F
:104CE000003C0240003802406C950008140000208F
:104CF0001C000020044B054A9B68C3F38223D35C4D
:104D0000034A1068D8407047003802407C9500087C
:104D100014000020044B054A9B68C3F34233D35C64
:104D2000034A1068D8407047003802407C9500085C
:104D300014000020036A23F001030362036A70B5C4
:104D4000446882690D6822F073022A438D6823F05B
:104D500002032B430E4DA84202D00E4EB04210D19A
:104D6000CE6823F008033343A84223F0040302D0A3
:104D7000084DA84205D1D1E9055624F440743543C5
:104D80002C43446082614A684263036270BD00BF85
:104D90000000014000040140036A23F480730362B1
:104DA000036A70B54468C2690D6822F073022A4331
:104DB0008D6823F4007343EA0523114DA84203D004
:104DC00005F58065A84214D1CD6823F4006343EA59
:104DD00005230B4DA84223F4806303D005F58065BD
:104DE000A84206D1D1E9055624F44054354344EA9B
:104DF00005144460C2614A68C263036270BD00BFAB
:104E000000000140036A23F480530362036A30B553
:104E10004468C2690D6822F4E64242EA05228D68C0
:104E200023F4005343EA0533084DA84203D005F5A7
:104E30008065A84204D14D6924F4804444EA851475
:104E40004460C2614A680264036230BD00000140F0
:104E5000704730B5034690F83E0093F83F2093F832
:104E6000425093F84340C0B2D2B2EDB2E4B2C1B9FD
:104E7000012845D1012D13D1022283F83E2083F869
:104E800042201A68116A21F001011162116A41F091
:104E9000010111621A68136843F0010313600020D6
:104EA00030BD042911D1012A2AD1012C28D1022296
:104EB00083F83F2083F843201A68116A21F010011B
:104EC0001162116A41F01001E3E7012818D1012AAB
:104ED000E6D1012DE4D1012CE2D1022283F83E205B
:104EE00083F83F2083F8422083F843201A68116A30
:104EF00021F001011162116A41F001011162DCE748
:104F00000120CDE7082910D004D841B1042909D0E7
:104F1000002070470C29FBD10368186C70470368A8
:104F2000586B70470368986B70470368D86B70477D
:104F3000704770477047704703681A69910710B54A
:104F400004460ED5DA6892070BD56FF002021A619B
:104F5000012202779B699B0777D0FCF719FD00239C
:104F6000237723681A69500710D5DA6851070DD5E1
:104F70006FF004021A61022222779B6913F4407FCA
:104F8000204668D0FCF704FD0023237723681A69C4
:104F900012070FD5DA6810070CD56FF008021A61F6
:104FA00004222277DB69990720465AD0FCF7F0FCEF
:104FB0000023237723681A69D20610D5DA68D00651
:104FC0000DD56FF010021A6108222277DB6913F405
:104FD000407F20464BD0FCF7DBFC0023237723687F
:104FE0001A69D10708D5DA68D20705D56FF0010232
:104FF0001A612046FFF79CFF23681A69100608D53E
:10500000DA68110605D56FF080021A61204600F0BB
:10501000D2FC23681A69520608D5DA68500605D50D
:105020006FF040021A612046FFF785FF23681A6976
:10503000910622D5DA6892061FD56FF0200220462D
:105040001A61BDE8104000F0B5BCFFF772FF2046C2
:10505000FFF770FF83E7FFF76CFF2046FFF76AFF5B
:1050600092E7FFF766FF2046FFF764FFA0E7FFF730
:1050700060FF2046FFF75EFFAFE710BD304A0368D0
:10508000904212D0B0F1804F0FD0A2F57C429042F6
:105090000BD002F58062904207D002F58062904208
:1050A00003D002F57842904219D14A6823F0700388
:1050B0001343234A904229D0B0F1804F26D0A2F565
:1050C0007C42904222D002F5806290421ED002F5CE
:1050D000806290421AD002F57842904216D0194A66
:1050E000904213D002F5806290420FD002F58062A8
:1050F00090420BD0A2F59832904207D002F5806220
:10510000904203D002F58062904203D1CA6823F432
:10511000407313434A6923F08003134303608B6891
:10512000C3620B688362064B984203D003F5806329
:10513000984201D10B69036301234361704700BFAB
:10514000000001400040014010B5044630B390F823
:105150003D3003F0FF021BB980F83C20FDF7B2FFA1
:105160000223206884F83D30211DFFF787FF0123CB
:1051700084F84630002084F83E3084F83F3084F8CC
:10518000403084F8413084F8423084F8433084F869
:10519000443084F8453084F83D3010BD0120FCE7F0
:1051A00010B5044630B390F83D3003F0FF021BB950
:1051B00080F83C20FFF74CFE0223206884F83D3045
:1051C000211DFFF75BFF012384F84630002084F89F
:1051D0003E3084F83F3084F8403084F8413084F821
:1051E000423084F8433084F8443084F8453084F801
:1051F0003D3010BD0120FCE710B5044630B390F8F7
:105200003D3003F0FF021BB980F83C20FEF724F884
:105210000223206884F83D30211DFFF72FFF012372
:1052200084F84630002084F83E3084F83F3084F81B
:10523000403084F8413084F8423084F8433084F8B8
:10524000443084F8453084F83D3010BD0120FCE73F
:10525000F8B50D46044600284CD090F83D3003F0D8
:10526000FF021BB980F83C20FDF788FF214602238E
:1052700084F83D3051F8040B836823F4804323F015
:1052800007038360FFF7FAFE81682A688369AE69C5
:10529000076A1143AA6823F4407323F0030342EA28
:1052A00006221A432B69EE691B0143EA0623EE68C6
:1052B00033432E6A22F47C4222F0FC0243EA063396
:1052C00013436E696A68816027F0AA0742EA0612F2
:1052D000836117430123076284F84630002084F875
:1052E0003E3084F83F3084F8423084F8433084F80C
:1052F0003D30F8BD0120FCE7036A23F01003036290
:10530000036A70B5446882690D6822F4E64242EA95
:1053100005228D6823F0200343EA0513104DA842AF
:1053200003D005F58065A84214D1CD6823F0800331
:1053300043EA05130A4DA84223F0400303D005F5C4
:105340008065A84206D1D1E9055624F4406435436E
:1053500044EA8504446082614A688263036270BDE6
:105360000000014070B590F83C30012B054650D04C
:105370000123082A80F83C303BD007D8C2B1042A68
:1053800027D01846002385F83C3070BD0C2AF8D190
:105390000068FFF737FDC3690A6943F40063C3611E
:1053A000C36923F48063C361C36943EA02232EE027
:1053B0000068FFF7BFFC83690A6943F00803836153
:1053C000836923F0040383618369134383610020AD
:1053D000D8E70068FFF790FF83690A6943F4006328
:1053E0008361836923F480638361836943EA0223D1
:1053F000ECE70068FFF7D0FCC3690A6943F00803D3
:10540000C361C36923F00403C361C3691343C36168
:10541000DDE70220B9E7000070B5046A1A4E24F0F7
:1054200001040462B0428469056A29D0B0F1804F5A
:1054300026D0A6F57C46B04222D006F58066B04262
:105440001ED006F58066B0421AD006F57846B04206
:1054500016D006F57056B04212D0A6F59436B0427A
:105460000ED044F001021B0122F0F002DBB2134324
:1054700001F00A0125F00A0211438361016270BD47
:1054800024F003042243EEE700000140F8B590F851
:105490003C30012B05460C4600F08B80012380F840
:1054A0003C3092B90068CB68D1E90012FFF7B4FF35
:1054B0008369A26823F00C038361836913438361CA
:1054C0000020002385F83C30F8BD042A24D103686D
:1054D000186A20F01000D1E90027C968186298699D
:1054E0001E6A20F4407040EA0720090320F470404F
:1054F00089B21201014302F0A00226F0A00002438B
:1055000099611A629A69A16822F440629A619A6963
:1055100042EA01229A61D3E7082A22D103681E6A6F
:1055200026F48076D1E90020C9681E62DF691E6A10
:1055300027F003073843090120F0F000C9B2120236
:10554000014302F4206226F420600243D9611A620A
:10555000DA69A16822F00C02DA61DA690A43DA61D9
:10556000AEE70C2A23D10368186A20F48050D1E9F1
:105570000027C9681862D8691E6A20F4407040EAA2
:105580000720090320F4704089B21203014302F49A
:10559000204226F420400243D9611A62DA69A168E8
:1055A00022F44062DA61DA6942EA0122D7E718465A
:1055B00087E7022088E710B58468114324F47F440C
:1055C00041EA03232343836010BD38B590F83C3093
:1055D000012B04464FF0020300F08E80012280F878
:1055E0003D3080F83C200068836823F47F4323F03B
:1055F000770383600B68602B4FD032D8402B64D088
:1056000016D8202B0DD00AD833F0100109D0012371
:1056100084F83D30002384F83C30104638BD302BF0
:10562000F5D1826822F07002134343F0070328E0AB
:10563000502BECD14A68CD68016A036A23F001035C
:105640000362836921F00A0123F0F00343EA0513A2
:105650000A4383610262836823F0700343F05703B7
:105660000FE0B3F5805F0DD0B3F5005F0CD0702B69
:10567000CDD1CB68D1E90121FFF79DFF836843F0CD
:10568000770383600022C2E7CB68D1E90121FFF7ED
:1056900092FF836843F48043F3E7036A4D68C96867
:1056A00023F0100303628269036A22F4704223F03C
:1056B000A00343EA051342EA013282610362836870
:1056C00023F0700343F06703DBE74A68CD68016AA3
:1056D000036A23F001030362836921F00A0123F0C6
:1056E000F00343EA05130A4383610262836823F0EF
:1056F000700343F04703C4E71A468EE7036A01F0DC
:105700001F0110B501248C4023EA04030362036ADD
:105710008A401A43026210BD08B529B990F83E309C
:10572000012B18D001202CE004290DD190F83F3036
:10573000013B18BF0123002BF4D104294FF00203D1
:1057400020D180F83F3009E008290CBF90F84030A4
:1057500090F84130ECE7022380F83E3000680122E7
:10576000FFF7CCFF1C4A904213D01C4B984210D03C
:10577000B0F1804F14D1836803F00703062B26D1C4
:10578000002008BD08290CBF80F8403080F8413067
:10579000E4E7436C904243F400434364EBD0E7E713
:1057A0000F4B9842E7D003F580639842E3D003F5AE
:1057B00080639842DFD003F578439842DBD003F54D
:1057C00070539842D7D0A3F594339842D3D003684E
:1057D00043F001030360D3E70000014000040140EF
:1057E00000040040FFF798BF08B50346002942D1E6
:1057F00090F83E0093F84220C0B20128D2B271D195
:10580000012A70D1022200294BD1186883F83E206A
:1058100083F84220C26842F00202C2601868012286
:10582000FFF76CFF304B98421AD0B0F1804F17D081
:10583000A3F57C43984213D003F5806398420FD0C0
:1058400003F5806398420BD003F57843984207D064
:1058500003F57053984203D0A3F59433984204D1D2
:10586000836803F00703062B03D0036843F00103AA
:105870000360002037E0042905D190F83F0093F839
:105880004320C0B2B9E708290BBF90F8400093F855
:10589000410093F8442093F845200CBFC0B2C0B239
:1058A000ABE7042908D1186883F83F2083F8432028
:1058B000C26842F00402B0E7082908D1186883F8EA
:1058C000402083F84420C26842F00802A5E70C2972
:1058D00083F8412083F8452005D11868C26842F05A
:1058E00010029AE7012008BD0000014030B590F891
:1058F0003C30012B4FF0020332D080F83D3003687A
:105900000D685C689A6824F070042C435C60154C48
:10591000A3421AD0B3F1804F17D0A4F57C44A34220
:1059200013D004F58064A3420FD004F58064A34231
:105930000BD004F57844A34207D004F57054A34279
:1059400003D0A4F59434A34204D1496822F0800224
:105950000A439A60012380F83D30002380F83C30F0
:10596000184630BD0000014090F83C30012B1FD09C
:10597000CB688A6823F4407313434A6823F4806336
:1059800013430A6823F4006313430A6923F4805322
:1059900013434A6923F400531343CA6923F4804331
:1059A000134302685364002380F83C301846704764
:1059B0000220704770477047026802F10C0353E8F9
:1059C000003F23F490730C3242E800310268002952
:1059D000F2D102F1140353E8003F23F0010302F176
:1059E000140C4CE800310029F3D1036B012B0BD1CF
:1059F00002F10C0353E8003F23F0100302F10C0CFA
:105A00004CE800310029F3D1202380F83E300023F8
:105A1000036370470268C168136923F440530B4362
:105A200070B51361054683680069D16803436869EE
:105A30000343E86921F4164121F00C0103430B43B1
:105A4000D3605369A96923F440730B4353611F4B1F
:105A50009A4203D003F580639A4223D1FFF75AF9A3
:105A6000EB691921B3F5004FD5E90046A0FB010110
:105A70001BD1B2194FF000035B41FBF7FDF8642224
:105A8000B0FBF2F102FB1103DB003233B3FBF2F3A4
:105A900003F007025B0002EB011203F4F8731344F6
:105AA000A36070BDFFF726F9DAE7B200B30FFBF78A
:105AB000E3F86422B0FBF2F102FB11031B01323365
:105AC000B3FBF2F303EB0113EAE700BF0010014060
:105AD000F8B504460E4617461D462268136836EA96
