:020000040800F2
:100000005062002031030008DD380008E92F0008A5
:10001000F9360008E50C00087562000800000000D1
:10002000000000000000000000000000790200084D
:10003000C123000800000000CD0200084D53000855
:100040004B0300084B0300084B0300084B03000858
:100050004B0300084B0300084B0300084B03000848
:100060004B0300084B0300084B0300084B03000838
:100070004B0300084B0300084B0300084B03000828
:100080004B0300084B0300084B0300084B03000818
:10009000B50E00084B0300084B0300084B03000893
:1000A0004B030008C15700084B0300082154000807
:1000B000D1570008E1570008F55700084B03000826
:1000C0004B0300084B0300084B0300084B030008D8
:1000D0004B030008F15C0008095E00083560000869
:1000E0004B0300084B0300084B0300084B030008B8
:1000F0004B0300084B0300084B0300084B030008A8
:100100004B0300084B030008095800084B03000884
:100110004B0300084B0300084B0300084B03000887
:100120004B0300084B0300084B0300084B03000877
:100130004B0300084B0300084B0300084B03000867
:100140004B0300084B0300084B0300084B03000857
:100150004B0300084B0300084B0300084B03000847
:100160004B0300084B0300084B0300084B03000837
:100170004B0300084B0300084B0300084B03000827
:100180004B0300084B03000800F002F800F064F88D
:100190000AA090E8000C82448344AAF10107DA45E2
:1001A00001D100F059F8AFF2090EBAE80F0013F0D0
:1001B000010F18BFFB1A43F00103184724D60000B3
:1001C00044D600000A444FF0000C10F8013B13F035
:1001D000070408BF10F8014B1D1108BF10F8015BA0
:1001E000641E05D010F8016B641E01F8016BF9D193
:1001F00013F0080F1EBF10F8014BAD1C0C1B09D1EA
:100200006D1E58BF01F801CBFAD505E014F8016B5B
:1002100001F8016B6D1EF9D59142D6D370470000ED
:100220000023002400250026103A28BF78C1FBD8FF
:10023000520728BF30C148BF0B607047642900F0E7
:100240000381732900F03E82002070471FB50BF038
:10025000C8FE1FBD10B510BD00F0B0FA1146FFF783
:10026000F5FF08F011FA00F0CEFA03B4FFF7F2FF41
:1002700003BC07F049FD00002A4B19680868B0E884
:10028000F04F80F30988BFF36F8F4FF0000080F3C9
:10029000118870470000000006480068006880F37D
:1002A000088862B661B6BFF34F8FBFF36F8F00DF70
:1002B00000BF00BF08ED00E0DFF80C00016841F46A
:1002C00070010160704700BF88ED00E0EFF3098026
:1002D000BFF36F8F134B1A681EF0100F08BF20ED8D
:1002E000108A20E9F04F106008B44FF0500080F3FE
:1002F0001188BFF34F8FBFF36F8F0AF0F3F94FF000
:10030000000080F3118808BC19680868B0E8F04F55
:100310001EF0100F08BFB0EC108A80F30988BFF3FD
:100320006F8F7047D0000020EFF30580704700000A
:100330000948804709480047FEE7FEE7FEE7FEE779
:10034000FEE7FEE7FEE7FEE7FEE7FEE704480549B5
:10035000054A064B704700006153000889010008F8
:10036000505C002050620020505E0020505E002053
:10037000704700000FB4044910B503AA029800F0BA
:10038000A5F910BC5DF814FBBC0000202DE9F0417C
:100390000E460446002020622046E168884730B3BC
:1003A000252805D0D4E901219047206A401CF2E7B6
:1003B000E168204600278847050018D0A5F14100D4
:1003C000192802D820354FF40067324629462046C6
:1003D0002760FFF733FF40B1012804D0F61D26F057
:1003E00007060836D8E7361DD6E72846DAE7206A3A
:1003F000BDE8F08170B50C460546012A05D0287885
:10040000800600D5EA69002302E0012305E05B1CB9
:10041000934202D2E05C0028F9D1A869E618C01A1C
:10042000A861286A184428622846AFF3008004E0D7
:10043000D5E9012114F8010B9047B442F8D32846BE
:10044000AFF3008070BD00002DE9F04106460024A6
:1004500010687529314616A510D0AFF3008000282A
:1004600002DA404213A507E031688A0701D512A5D8
:1004700002E0490704D511A5012401E0AFF3008093
:1004800000210A2206F1240709E0B0FBF2FCB0FBD0
:10049000F2F302FB1C00303078541846491C002847
:1004A000F3D123462A463046BDE8F04100F086B835
:1004B000000000002D0000002B00000020000000C4
:1004C000032A40F2308010F0030C00F0158011F880
:1004D000013BBCF1020F624498BF11F801CB00F858
:1004E000013B38BF11F8013BA2F1040298BF00F8AC
:1004F00001CB38BF00F8013B11F0030300F0F88096
:10050000083AC0F0088051F8043B083A51F804CB8F
:10051000A0E80810F5E7121D5CBF51F8043B40F855
:10052000043BAFF30080D20724BF11F8013B11F860
:1005300001CB48BF11F8012B24BF00F8013B00F8A4
:1005400001CB48BF00F8012B704702F0FF0343EADC
:10055000032242EA024200F002B84FF000020429EE
:10056000C0F0128010F0030C00F0F680CCF1040C07
:10057000BCF1020F18BF00F8012BA8BF20F8022B16
:10058000A1EB0C0100F0E8B85FEAC17C24BF00F8E1
:10059000012B00F8012B48BF00F8012B7047704772
:1005A00070477047704710B500F0FCF8006810BD48
:1005B00010B5044600F0F6F8046010BD2DE9F047D0
:1005C0000D4699469246044600F1240801688806C3
:1005D00004D5E06921F01001216000E00120A8426B
:1005E00001DD471B00E00027A1697A1902EB090031
:1005F000081AA0612078C00602D42046AFF300801C
:10060000002608E0D4E901211AF806009047206A84
:10061000401C761C20624E45F4DB2078C0060AD5CB
:100620002046AFF3008006E0D4E901213020904756
:10063000206A401C2062381EA7F10107F4DC07E0A5
:10064000D4E9012118F805009047206A401C206277
:10065000281EA5F10105F3DC2046AFF300802078C9
:10066000000602D50220BDE8F0870120FBE700006C
:1006700001694A1C02610878704700B58FB0CDE966
:1006800001310021059105497944CDE90310114656
:100690006846FFF77BFE0FB000BD0000E5FFFFFFDF
:1006A00010B5436913B1AFF3008001E0FFF7A2FE7C
:1006B000012010BD127800F124010A7000224A7056
:1006C0000122EDE711684FF0FF32E9E7074B70B503
:1006D0000D467B44FFF7D1FF0446284600F066F83C
:1006E00010B14FF0FF3070BD204670BD537A00004E
:1006F00010B5203AC0F00B80B1E81850203AA0E8BD
:100700001850B1E81850A0E81850BFF4F5AF5FEAF0
:10071000027C24BFB1E81850A0E8185044BF18C9A3
:1007200018C0BDE810405FEA827C24BF51F8043B4A
:1007300040F8043B08BF7047D20728BF31F8023B9E
:1007400048BF11F8012B28BF20F8023B48BF00F832
:10075000012B70474FF0000200B5134694469646B1
:10076000203922BFA0E80C50A0E80C50B1F12001C4
:10077000BFF4F7AF090728BFA0E80C5048BF0CC072
:100780005DF804EB890028BF40F8042B08BF7047D0
:1007900048BF20F8022B11F0804F18BF00F8012B42
:1007A0007047000000487047F05B0020007B00F0BD
:1007B0008000704700487047F05B00207546FFF7E7
:1007C000F9FFAE4605006946534620F0070085460E
:1007D00018B020B5FFF7BAFDBDE820404FF0000685
:1007E0004FF000074FF000084FF0000B21F0070119
:1007F000AC46ACE8C009ACE8C009ACE8C009ACE85C
:10080000C0098D46704710B50446AFF300802046FE
:10081000BDE81040FFF729BD0029816802D041F0F2
:10082000010101E021F0010181607047084B10B522
:10083000D3F8042307490A40D0E900142143D0E942
:100840000240044321431143C3F8041310BD0000C8
:1008500000200140E030FCFFC06C80B270470246CF
:10086000002012680A4200D00120704730B542686B
:100870000F4B0C791A400B6842EA04221343436081
:1008800082680C4B4D791A40D1E9034323438C68AD
:1008900044EA4504234313438360C26A097D22F47A
:1008A0007002491EC9B242EA0151C16230BD000066
:1008B000FFFEFFFCFDF7FFC070B5072609290AD926
:1008C000C568A1F10A0404EB4404A640B543A34063
:1008D0001D43C56007E0056901EB4104A640B5432F
:1008E000A3401D4305611F23072A09D2446B521EF2
:1008F00002EB820293409C4391400C43446370BDE1
:100900000D2A09D2046BD21F02EB820293409C4352
:1009100091400C43046370BDC46A0D3A02EB82023D
:1009200093409C4391400C43C46270BD816841F088
:10093000804181607047000038B535489FED351A19
:100940009FED350AD0ED000A10EE810AF3EE0B0A96
:1009500080EE201ABDEEC10A10EE103A642B00DDC5
:1009600064232E48DFED2E0A90ED000A20EE200AC7
:10097000BDEEC00A10EE100A002800DA40422949F4
:1009800091ED000A20EE200ABDEEC00A10EE101A0A
:10099000002900DA4942244C2278A2B100222270B8
:1009A000224C2578012D10D0214DB5F904403AB3E1
:1009B000B5F90220B5F9001001B02346BDE830407A
:1009C0001CA0FFF7D7BC0122E9E71E4890ED000A02
:1009D0001D48BDEEC00A10EE103A90ED000A1B480B
:1009E000BDEEC00A10EE102A90ED000A18A0BDEE70
:1009F000C00A10EE101AFFF7BDFC0020207038BDB1
:100A0000CAB2C1B216A00094FFF7B4FC38BD000012
:100A10001800002000007A4400401C46C45A002000
:100A20000000C842D85A00207C020020A301002008
:100A3000BE0200207B4225643A25643A25647D2469
:100A400000000000500100204C010020480100205F
:100A50007B4325643A25643A25647D240000000028
:100A60007B4125643A25643A25643A25647D240057
:100A7000F0B58DB00121062003F0AEFF01210F0279
:100A8000384603F0C1FF032601258DF81C600024C1
:100A900006958DF81F4006A9184802F08DF8102021
:100AA00006908DF81C608DF81F4006A9144802F0CE
:100AB00083F80121384603F0B3FF0021384603F0E4
:100AC000AFFF089428040B94CDE9090408A8FFF7A8
:100AD000ADFE8DF8044000948DF805400294049416
:100AE000084C8DF8145069462046FFF7BFFE0121DF
:100AF0002046FFF791FE0DB0F0BD0000000402405B
:100B000000080240002001401CB507F019FBDFF887
:100B100098A1DFF898B1664F664C674DDFF89C816D
:100B200040F6B839002601900A2101A809F008FC16
:100B3000DAF80400484502DA401CCAF8040002F062
:100B400087F9DBF8000010B100F046FBECE75C48E9
:100B5000007810B102F098F816E05A48007810B109
:100B600003F0E0FF10E05848007810B103F060FE99
:100B70000AE0564890ED001A5548D0ED000A554855
:100B800090ED000A01F01EFC02F0E8FC524890EDE6
:100B9000000ABDEEC00A10EE100A05F08BF828B16D
:100BA00000231A4619461846009677E0D7ED020A48
:100BB00097ED000A02F0C2FB00EE100AB8EEC00A80
:100BC00087ED010AD4ED020A94ED000A02F0F4FB6D
:100BD00000EE100AB8EEC00A84ED010AD5ED020A53
:100BE00095ED000A02F026FC00EE100AB8EEC00AED
:100BF00085ED010AD8ED020A98ED000A02F058FCD2
:100C000000EE100A3548B8EEC00A88ED010A0078F7
:100C1000062889D2DFE800F0031327450345BDEE1F
:100C2000C00A009610EE103A95ED010ABDEEC00A1A
:100C300010EE102A94ED010AB1EE400A22E0BDEE5A
:100C4000C00A009610EE103A95ED010ABDEEC00AFA
:100C500010EE102A94ED010ABDEEC00A10EE101A33
:100C600097ED010A16E01E4800680090BDEEC00A2C
:100C700010EE103A95ED010ABDEEC00A10EE102AF2
:100C800094ED010ABDEEC00A10EE101A97ED010AAC
:100C9000B1EE400ABDEEC00A10EE100A04F04AFAA6
:100CA00042E70096E2E70000B80100205C01002066
:100CB000C45A0020D85A0020EC5A0020005B0020C3
:100CC0005501002056010020540100208801002019
:100CD0008401002080010020180000204501002030
:100CE0007C010020FEE700001CB50121022003F07A
:100CF00073FE4FF48060009001208DF80400002105
:100D00008DF8061003218DF805108DF8070069464F
:100D1000014801F051FF1CBD000402402DE9FE4FC7
:100D20000024D8B3D1B3CAB3C3B3401E491EC7B25F
:100D3000CEB2521E5B1E02F0FF099DB201210820B7
:100D400003F04AFE0121480603F052FE02218DF80D
:100D500004104FF0030B4FF000088DF806808DF85B
:100D600005B04FF0010ACDF800B08DF807A0694634
:100D70004D4801F021FF092200214B4801F058FFA6
:100D800009220121484801F053FF4848C0F800807B
:100D9000016841F001010160021D09E0FFE7012047
:100DA000BDE8FE8F641CA4B2642C01D90220F7E7D1
:100DB0001168C907F6D03D4801680160016801600B
:100DC00001680160016841F0100101600168016083
:100DD00001680160354943461C31C1F80080D1F8F3
:100DE0000080DDF830C048EA8C7CC1F800C0D1F842
:100DF00000C04CEA07670F600F6847EA06560E60AE
:100E00000F6847EA09460E600E682E430E600168BF
:100E100021F0010101604FF6F07005E0641CA4B2FE
:100E2000844201D90320BBE71168C907F6D12048E5
:100E3000016841F0010101601D491C310A6822F07E
:100E400001020A601A4A0C32146844F0010414606A
:100E5000021D14681460164A143214681460144A8F
:100E600040321360121D13600A6842F001020A60EA
:100E7000016803600D481430016841F0020101600F
:100E800014208DF808008DF809A08DF80AB08DF8AF
:100E90000BA002A802F024FD01220221034800F069
:100EA00067F900207CE70000000C0240006400406D
:100EB0000066004010B588B002A907A8CDE900017E
:100EC00006AB05AA04A9002000F064F80498A0F578
:100ED0008071813947D1264901202D4C0870254960
:100EE00000200870244908702449087024490870BB
:100EF0009DF809009DF8081000EB012000B24FF4A6
:100F00007A7190FBF1F000EE100A1E48B8EEC00AAC
:100F100080ED000A9DF80B009DF80A2000EB0220EE
:100F200000B290FBF1F000EE900A1748F8EEE00AEC
:100F3000C0ED000A9DF80D009DF80C2000EB02208A
:100F400000B290FBF1F200EE902A104AF8EEE00AAF
:100F50001278022A09D090FBF1F000EE100AB8EEE8
:100F6000C00A84ED000A08B010BD05F085F9F8E765
:100F70005701002054010020560100205501002097
:100F8000580100208001002084010020450100203C
:100F900088010020F0B5224CDDE9057504EB001452
:100FA000D4F8B06516F004061670D4F8B02532D027
:100FB000D2080A60D4F8B01501F002011970D4F813
:100FC000B41501F00F013970D4F8B8152970D4F8B0
:100FD000B815090A6970D4F8B815090CA970D4F8C5
:100FE000B815090EE970D4F8BC152971D4F8BC15F0
:100FF000090A6971D4F8BC15090CA971D4F8BC159B
:10100000090EE97148B1012804D10648016841F090
:1010100020010160F0BD520DCBE70248001FF5E74B
:10102000006000401064004038B50024009108239F
:101030002246214600F014F8054640F6FF7301E011
:10104000641CA4B2284600F061F8072801D09C4235
:10105000F6D39C4201D3012038BD002038BD0000EA
:10106000F0B506462748059D0468640101D50020B7
:1010700008E00468240101D5012003E00068C000F5
:101080003CD50220204C002704EB0014C4F88075E6
:1010900099B3F600D4F880753743C4F88075D4F856
:1010A000806546EA8101C4F88015D4F8801541EACC
:1010B0004201C4F88015D4F8842503F00F0122F012
:1010C0000F02C4F88425D4F884250A43C4F8842583
:1010D0002979D5F8052041EA0221C4F88C15297830
:1010E000D5F8012041EA0221C4F88815D4F880150A
:1010F00041F00101C4F88015F0BD01E0FF20FBE7DD
:101100007605C7E70864004000600040174928B131
:10111000012810D002281BD00520704708680A68F3
:1011200000F0010002F002020243086800F0806053
:1011300042EA1060704708680A6800F0010002F097
:1011400002020243086800F0006042EA5060704703
:1011500008680A6800F0010002F002020243086811
:1011600000F0805042EA9060704700000864004040
:10117000002A426901D00A4300E08A434261704775
:101180007CB5144C00206D46215C2954401CC0B233
:101190000828F9D3294640F20110FFF745FF002047
:1011A0002118097A2954401CC0B20828F8D369468E
:1011B0004FF48170FFF738FF00202118097C295473
:1011C000401CC0B20828F8D3694640F20310FFF76C
:1011D0002BFF7CBD1A0700202DE9F04FFA48FB4A8F
:1011E00000262DED028B83B00068D0B31068F8495B
:1011F000401C10600968002935D0F649F64C91ED85
:10120000000AD4ED0B0AB4EEE00AF1EE10FA01DDAB
:1012100084ED0B0AD4ED0C0AB4EEE00AF1EE10FAFC
:1012200001D284ED0C0AED49C823DFF8ACB3D1F844
:1012300000E00BF1800B0EFB03F10191491C0091C2
:10124000814216DBE6490B8873B14B8863B189880C
:1012500051B1E4490B883BB14B882BB1898819B156
:1012600007E0FFE71660F5E3DBF830305B1CCBF8F6
:10127000303040F2DC579FEDDC8ADC49DFF870A3A8
:10128000DFF87093097800287EDDDFF840836FF087
:101290000205C82828DA012806D100231A46194673
:1012A0001846009703F046FF00231A46194641F2FC
:1012B0009410009703F03EFFD8F8000064283DDD4D
:1012C000D9F8000060B1A84203DAE06940F00100FB
:1012D000E061A06B5A28F2DDE06940F004002CE0E8
:1012E000A06B401CA063F4E7CEDD4FF4C8729042BF
:1012F00029DAC92806D100231A461946184600974C
:1013000003F018FF00231A461946BB48009703F064
:1013100011FFD8F80000B0F5967FD0DDD9F80000B5
:1013200068B1032803DDE06940F00200E061E06B92
:101330005A28C4DDE06940F00800E0611CE2E06B7F
:10134000401CE063F3E790429EDD4FF4167290423A
:101350002DDA40F29111814206D100231A46194636
:101360001846009703F0E6FE00231A4641F2941156
:101370001846009703F0DEFED8F80000B0F5FA7FBB
:10138000DCDDD9F8040000E092E060B1A84203DAA5
:10139000206A40F001002062206C5A28CEDD206ACD
:1013A00040F004002FE0206C401C2064F4E79042E1
:1013B0007EDD4FF4487290422BDA40F2592181428F
:1013C00006D100231A4619461846009703F0B2FECC
:1013D00000231A4688491846009703F0ABFED8F858
:1013E0000000B0F52F7FA9DDD9F8040068B103280B
:1013F00003DD206A40F002002062606C5A289DDD07
:10140000206A40F00800206298E7606C401C60642D
:10141000F3E790424CDD4FF47A72904230DA19B122
:10142000012901D0042943D140F22131814206D162
:1014300000231A4619461846009703F07BFE002346
:1014400041F2941219461846009703F073FED8F83B
:101450000000B0F5617FD7DDD9F8080060B1A8427F
:1014600003DA606A40F001006062A06C5A28CBDDAC
:10147000606A40F0040037E0A06C401CA064F4E710
:10148000904275DD4FF49662904233DA19B101292A
:1014900001D004296CD140F2E931814206D1002308
:1014A0001A4619461846009703F044FE002300E050
:1014B0005EE0514A19461846009703F03BFED8F803
:1014C000001040F24C4081429EDDD9F8080068B11E
:1014D000032803DD606A40F002006062E06C5A2875
:1014E00092DD606A40F00800606245E1E06C401CFB
:1014F000E064F3E790423BDD4FF4AF6290422FDAB5
:1015000009B1042934D140F2B141814206D100230E
:101510001A4619461846009703F00CFE002241F2C5
:10152000941311461046009703F004FED8F80010FB
:1015300040F214508142D8DDD9F80C0060B1A842C5
:1015400003DAA06A40F00100A062206D5A28CCDDC9
:10155000A06A40F0040080E0206D401C2065F4E7A4
:10156000904205DDB0F5C86F02DA61B304294FD0AF
:10157000224DC823DFED220A2A684FF0C8085343E2
:1015800002F1010C0CFB08FC83427DDA84457BDD13
:101590005B1C834206D100231A4619461846009761
:1015A00003F0C8FD1749184D184BC1ED020A85ED2F
:1015B000028A0E488AED028A83ED028A0078D146BB
:1015C000042850D053E023E05C0100206801002093
:1015D0006001002018000020B801002070010020E8
:1015E000BE020020C40200200000000045010020CF
:1015F000EC5A0020145B00206CEEFFFF6C01002011
:101600009A9999BEC45A0020D85A0020005B002045
:1016100040F27951814206D100231A4619461846F4
:10162000009703F087FD0022FC4B114610460097FF
:1016300003F080FDD8F80000B84288DDD9F80C002E
:1016400068B1032803DDA06A40F00200A062606D6B
:101650005A28F2DDA06A40F00800A0628CE0606DBC
:10166000401C6065F3E7B0EE601A85ED021A88460B
:1016700091ED000A01F062FE00EE100AE848B8EEB3
:10168000C00A88ED010A00E09CE00078042812D02E
:1016900085ED018A89ED018A83ED018A40F6B83033
:1016A00001F08EFFDE48007806283ED2DFE800F029
:1016B0001022657D107DD5ED020A95ED000A01F03E
:1016C0007BFE00EE100AB8EEC00A85ED010AE5E7E0
:1016D000009693ED010ABDEEC00A10EE103A99EDA6
:1016E000010ABDEEC00A10EE102A95ED010AB1EE16
:1016F000400A51E0009693ED010ABDEEC00A10EEDB
:10170000103A99ED010ABDEEC00A10EE102A95EDCF
:10171000010ABDEEC00A10EE101A98ED010ABDEEE6
:10172000C00A10EE100A03F005FDBE48C82100688B
:10173000401C4843BC496438096888428EDABB487B
:1017400040F2E732B0F9041001F2F311914204D2F1
:10175000DBF834305B1CCBF83430B54BD8F80000E4
:10176000984205DAB34EB04202D2E068401CE06015
:10177000AB48007804281AD0E2E0009793ED010A04
:10178000BDEEC00A10EE103A99ED010ABDEEC00A96
:1017900010EE102A95ED010ABDEEC00A10EE101AE7
:1017A00098ED010AB1EE400AB9E70096E6E79142EA
:1017B00004D2DBF83810491CCBF83810286898425E
:1017C0007ADBBDE0DFED9C1A964BC8251B689B1C9D
:1017D0006B43844571DA83426FDD0CF1010C844563
:1017E00006D100231A4619461846009703F0A2FCBA
:1017F000DFF84882DFF84892F0EE610A88ED028A4D
:10180000904DC9ED020A86488AED028A85ED028A6A
:10181000007804281CD088ED018A99ED000A01F0B7
:10182000CBFD00EE100AB8EEC00A89ED010A8AED80
:10183000018A85ED018A40F6B83001F0C1FE784892
:101840000078062855D2DFE800F025397C942594ED
:1018500089ED028ACAED020AC5ED020A88ED018A05
:1018600089ED018A53469AED000A01F0E3FD00EE8E
:10187000100AB8EEC00A83ED010AD5ED020A95ED13
:10188000000A01F015FE00EE100AB8EEC00A85ED60
:10189000010AD0E7009695ED010ABDEEC00A10EEF0
:1018A000103A9AED010ABDEEC00A10EE102A99ED29
:1018B000010AB1EE400A53E03CE07FE0009695ED6E
:1018C000010ABDEEC00A10EE103A9AED010ABDEE13
:1018D000C00A10EE102A99ED010ABDEEC00A10EE02
:1018E000101A98ED010ABDEEC00A10EE100A03F0BE
:1018F00021FC4C48C8210068801C48434A49643890
:10190000096888421CDA464800780428474832D0E3
:10191000B0F9040040F2E73100F2F310884204D23B
:10192000DBF83810491CCBF838104149D9F80000D1
:101930008842E7DA3F49884202D22069401C206190
:101940002DE1009795ED010ABDEEC00A10EE103AA8
:101950009AED010ABDEEC00A10EE102A99ED010AB7
:10196000BDEEC00A10EE101A98ED010AB1EE400A61
:10197000B9E70096E6E7B0F9041040F2E73201F269
:10198000F311914204D2DBF83C305B1CCBF83C30C5
:10199000274BDAF80000984205DA264EB04202D210
:1019A0006069401C6061914204D2DBF84010491C20
:1019B000CBF84010286898427DDBF0E0194D4FF0DD
:1019C000C80C2D68ED1C05FB0CF5834204DA85423A
:1019D00002DDE9B3012955D0854205DAC823121D7D
:1019E0005A43824200DDA1B3AEF10203C822534341
:1019F000154AC8251268521E6A43834203DA82429E
:101A000001DD00297DD0114D82427BDA01998142AE
:101A100078DD521C824224D100231CE06CEEFFFFD3
:101A2000450100206C01002068010020BE0200205A
:101A30000AD7A33C0AD7A3BC9A99993EC45A00205E
:101A4000D85A0020005B00207001002074010020A3
:101A500018E0C1E0FDE31A4619461846009703F066
:101A600069FBFE48007802287ED00328FCD00528B8
:101A7000FAD09FEDFB1A042877D00128FCD000286B
:101A800074D019E25B1C834206D100231A46194622
:101A90001846009703F04EFBDFF8C893DFF8C883C1
:101AA000F24B89ED028A88ED028ACAED020A554698
:101AB00083ED028A00E00EE189ED018A88ED018A5A
:101AC0009AED000A01F0B6FC00EE100A40F6B830BC
:101AD000B8EEC00A85ED010A83ED018A01F070FDC0
:101AE000DE480078062834D2DFE800F003185A7484
:101AF0000374009693ED010ABDEEC00A10EE103A91
:101B000001E00BE1DCE295ED010ABDEEC00A10EE4A
:101B1000102A98ED010AB1EE400A52E0009693EDCA
:101B2000010ABDEEC00A10EE103A95ED010ABDEEB5
:101B3000C00A10EE102A98ED010ABDEEC00A10EEA0
:101B4000101A99ED010ABDEEC00A10EE100A03F05A
:101B5000F1FAC748C8210068C01C4843C549643829
:101B6000096888421BDA02E094E19AE19CE1C248EC
:101B700040F2E731B0F9040000F2F310884204D2D9
:101B8000DBF83C10491CCBF83C10BC492868884263
:101B9000E8DABB49884202D26069401C606173E3A5
:101BA000B8480068009093ED010ABDEEC00A10EE3F
:101BB000103A95ED010ABDEEC00A10EE102A98ED1C
:101BC000010ABDEEC00A10EE101A99ED010AB1EE3D
:101BD000400AB8E70096E6E76D1C854206D100236F
:101BE0001A4619461846009703F0A4FADFF87492D3
:101BF000DFF874829D4D89ED028A88ED028A8AEDB4
:101C0000028AC5ED021A89ED018A88ED018A8AED02
:101C1000018AF0EE610A95ED000A01F049FC00EE40
:101C2000100A40F6B830B8EEC00A85ED010A01F09E
:101C3000C7FC8A480078062831D2DFE800F0031597
:101C4000536D036D009695ED010ABDEEC00A10EECE
:101C5000103A9AED010ABDEEC00A10EE102A98ED76
:101C6000010AB1EE400A4EE0009695ED010ABDEE84
:101C7000C00A10EE103A9AED010ABDEEC00A10EE4D
:101C8000102A98ED010ABDEEC00A10EE101A99ED67
:101C9000010ABDEEC00A10EE100A03F04BFA7448B8
:101CA000C8210068001D48437249643809688842A9
:101CB00017DA714840F21F31B0F9040000F28F10BA
:101CC000884204D2DBF84010491CCBF840106B4925
:101CD00028688842ECDA6A49884202D2A069401C2E
:101CE000A061D1E267480068009095ED010ABDEE61
:101CF000C00A10EE103A9AED010ABDEEC00A10EECD
:101D0000102A98ED010ABDEEC00A10EE101A99EDE6
:101D1000010AB1EE400ABCE70096E6E75B1C83428D
:101D200007D100231A4619461846009703F002FA15
:101D300007E0B0EE480AF0EE610AB0EE401A00F09B
:101D400041FBDFF820B1DBED020A9BED000A01F058
:101D5000F5FA00EE100ADFF81081B8EEC00A8BED3C
:101D6000010AD8ED020A98ED000A01F025FB00EE09
:101D7000100A5546B8EEC00A88ED010ADAED020AEB
:101D80009AED000A01F056FB00EE100A374BB8EE50
:101D9000C00A85ED010AD3ED020A93ED000A01F0B5
:101DA00087FB00EE100A4FF4FA60B8EEC00A83ED2C
:101DB000010A01F005FC009693ED010ABDEEC00A90
:101DC00010EE103A95ED010ABDEEC00A10EE102A91
:101DD00098ED010AB1EE400ABDEEC00A10EE101AED
:101DE0009BED010AB1EE400ABDEEC00A10EE100AEA
:101DF00003F0A0F92448C8210068401E48431D494B
:101E00006438096888427DDAD9F80010484611B96B
:101E1000A16D491CA165416811B9E16D491CE165DD
:101E2000816811B9216E491C2166D9F80C0010B9DE
:101E3000606E401C60661048B0F9041001F57A41EC
:101E4000B1F5FA3F02D940F2F5118180B0F90400F2
:101E500000F5FA70B0F57A7FA06E17E0450100201A
:101E6000DB0FC93FC45A0020D85A0020005B002075
:101E70006C01002068010020BE0200200AD7A33CAC
:101E80000AD7A3BC7C0100207001002001D9401CAE
:101E9000A06610E1B6EE001AF0EE480A9FEDFE0AC9
:101EA00008E0F0EE480A03E0F0EE480AB0EE601AEF
:101EB000B0EE610A00F086FADFF8E0B35B46DBEDD6
:101EC000020A9BED000A01F039FA00EE100ADFF871
:101ED000D083B8EEC00A83ED010A4346D8ED020A6A
:101EE00098ED000A01F068FA00EE100AB8EEC00A98
:101EF00083ED010A5346DAED020A9AED000A01F079
:101F000099FA00E0CEE000EE100AB8EEC00A83EDC8
:101F1000010AE44BD3ED020A93ED000A01F0C8FA7E
:101F200000EE100A4FF4FA60B8EEC00A83ED010A21
:101F300001F046FBDC480078062831D2DFE800F0EB
:101F400003153F590359009693ED010ABDEEC00AEF
:101F500010EE103A9AED010ABDEEC00A10EE102AFA
:101F600098ED010AB1EE400A3AE0009693ED010ABD
:101F7000BDEEC00A10EE103A9AED010ABDEEC00A9D
:101F800010EE102A98ED010ABDEEC00A10EE101AEC
:101F90009BED010ABDEEC00A10EE100A03F0CAF86C
:101FA000C248C82100684843C149A0F164020968D9
:101FB0008A4277DAD9F800304A46E3B11EE0BD48DC
:101FC0000068009093ED010ABDEEC00A10EE103AD1
:101FD0009AED010ABDEEC00A10EE102A98ED010A32
:101FE000BDEEC00A10EE101A9BED010AB1EE400AD8
:101FF000D0E70096E6E7E36E5B1CE366536813B92F
:10200000236F5B1C2367936813B9636F5B1C636763
:10201000D9F80C2012B9A26F521CA267801E884208
:102020002ED1207F10F00C0F06D0E06E1E2803DAB0
:10203000286840F00800286094F8200010F00C0F89
:1020400006D0206F1E2803DA286840F020002860A0
:1020500094F8240010F00C0F06D0606F1E2803DAED
:10206000286840F08000286094F8280010F00C0FD9
:1020700006D0A06F1E2803DA286840F4007028609C
:102080008D48B0F9041001F57A41B1F5FA3F02D953
:1020900040F2F51181808449B0F90400097811B14A
:1020A00064280ADBF0E000F5FA70B0F57A7FE06FA3
:1020B00001D9401CE067502801DD01206063E3E0A6
:1020C0000099814279D164210EFB01F0DBF83010D8
:1020D00000EBD0705A46B1EB600F03DD286840F486
:1020E00000502860D4ED0B0A94ED0C1A734970EE81
:1020F000C10A10EE900A884203DD286840F40060AF
:10210000286010EE100A6E49884203DA286840F011
:10211000010028606B48D0F8000218B9286840F028
:10212000020028606849E069096A102805D1102971
:1021300003D12B6843F004032B6000F00F0001284B
:1021400004D0022802D0032808D103E0286840F018
:10215000080002E0286840F01000286001F00F003D
:10216000012804D0022802D0032808D103E02868FF
:1021700040F0200002E0286840F04000286094F819
:10218000240000F00F00012804D0022802D0032808
:1021900008D103E0286840F0800002E0286840F49D
:1021A0008070286094F8280000F00F00012805D006
:1021B000022803D0032809D104E065E0286840F430
:1021C000007002E0286840F4806028603E48516B4F
:1021D000C068502905DB50280BDD286840F0080056
:1021E00006E0502805DD2868010702D440F480305D
:1021F00028603548916B0069502905DB50280BDDBC
:10220000286840F0200006E0502805DD2868810697
:1022100002D440F4003028602B48D16B406950292B
:1022200005DB50280BDD286840F0800006E05028D0
:1022300005DD2868010602D440F480202860224889
:10224000DBF8401080695A2907DB50280DDD28682B
:1022500000E08CE040F4007006E0502805DD2868BE
:10226000810502D440F400202860606B012806D16B
:1022700016492868084202D140F48040286001F0E5
:102280006BFB1349012008600848C82100684843D7
:102290000749401C09681DE09A99193EC45A00205C
:1022A000D85A0020005B002045010020700100206A
:1022B000680100207C010020BE0200200000A04038
:1022C0000000204100004242B8010020F8070F0042
:1022D0006401002088424ADC00231A461946184649
:1022E000009702F027FF254E254BF0EE480AC6ED79
:1022F000020A244DC3ED020ACAED020AC5ED020A24
:10230000C6ED010AC3ED010ACAED010AC5ED010AD5
:10231000544696ED000A01F011F800EE100AB8EEEE
:10232000C00A86ED010AD3ED020A93ED000A01F01E
:1023300043F800EE100AB8EEC00A83ED010AD4EDAE
:10234000020A94ED000A01F075F800EE100AB8EEEA
:10235000C00A84ED010AD5ED020A95ED000A01F0EC
:10236000A7F800EE100AB8EEC00A85ED010A03B026
:102370000020BDEC028BBDE8F08F0000C45A0020A5
:10238000D85A0020005B002030B503460020012908
:1023900008D10022094C03E0A55C6840521CD2B26F
:1023A0009A42F9D3002908D1044A323203E0545C3E
:1023B0006040491CC9B29942F9D330BD1A070020C8
:1023C000704700002DE9F0472DED0E8BF0EE418AAD
:1023D000B0EE408AB0EE0CEAFD4BDFF8F883FE4E1B
:1023E0001878FE4FB8EE0CCA9FEDFDDBDFEDFECA9C
:1023F000FE4AFF4DFF4CB6EE00AA08B1012810D1ED
:10240000B0EE681AB0EE480A02F0F4FEFA4890ED19
:10241000008A90ED019AD0ED028A187868B30128FD
:1024200052D0C0B202287CD0032803D0042879D02F
:10243000052878D192ED000AB0EE4E1A68EE800AB7
:10244000B0EE480A00EECA0A00EE8A8AF0EE4C0AA4
:1024500085ED020A84ED028A07F086FC85ED020A0A
:1024600094ED020AB0EE4E1AF0EE4C0A07F07CFC36
:1024700084ED020AC6ED02CAB8E098ED000A92EDBA
:10248000001A79EE080A30EE010A38EE491AF0EE29
:10249000601A48EEC00A48EE801AC5ED020AB0EE96
:1024A000602AF0EE410A08EE801A48EEC00AB0EE4B
:1024B000420AC4ED020AC6ED021A87ED021AB0EE16
:1024C0004E1AF0EE4C0A76E1DFF83083F0EE490A5E
:1024D00098ED000A40EE280A20EE280A10EE100AB5
:1024E000C5ED020A09F00CFD69EE0AEA41EC1B0B8E
:1024F0001EEE900A09F004FD41EC1A0B18EE100ACA
:1025000009F0FEFC41EC190BB0EE4D0AF0EE6D0A3D
:1025100004F0DEFE9FEDBA1B51EC100B53EC112BB7
:1025200002E069E02DE163E009F0F4F953EC192BC6
:1025300009F0F0F953EC1A2B09F0F8FB53EC1B2BC4
:1025400008F03EFF08F00AFFA06098ED000A20EEB8
:10255000280A10EE100A09F0D3FC41EC190B1EEE0C
:10256000900A09F0CDFC41EC1A0B18EE100A09F0A4
:10257000C7FC41EC180BB0EE4D0AF0EE6D0A04F00A
:10258000A7FE9FEDA11B51EC100B53EC112B09F092
:10259000C1F953EC182B09F0BDF953EC1A2B09F0D3
:1025A000C5FB53EC192B08F00BFF08F0D7FEB06009
:1025B00095ED020AB0EE4E1AF0EE4C0A07F0D4FB8D
:1025C00085ED020A94ED020AB0EE4E1AF0EE4C0AC6
:1025D00007F0CAFB84ED020A96ED020AB0EE4E1A2D
:1025E000F0EE4C0A07F0C0FB86ED020AC7ED02CA06
:1025F000BDEC0E8BBDE8F087DFED85AA92ED000AF9
:10260000914620EE0A0A10EE100A09F079FC41EC1E
:10261000190B18EE900A09F073FC41EC100B04F052
:1026200097FEB0EE40BAF0EE60BAD8F8000009F0BC
:1026300067FC53EC1B2B08F07FFF53EC192B09F0C0
:1026400075FB08F08BFE02EE100A9FED721ADFEDAB
:10265000720AB0EE680A07F087FBB5EEC00AF0EE2A
:10266000408AF1EE10FA16D099ED000AF0EE420A17
:1026700040EE4A0A60EE880A80EE821AF0EE420AC4
:1026800040EE0A0A20EE880AC0EE020A85ED021A20
:10269000C4ED020A03E085ED028A84ED028A9FED13
:1026A0005F0A28EE800A10EE100A09F029FC41ECBE
:1026B0001B0B18EE900A09F023FC41EC100B9FED68
:1026C000581B03F0DDFF9FED581B51EC100B53EC32
:1026D000112B09F01FF941EC190B18EE900A09F0C3
:1026E0000FFC41EC100BB0EE4D1AF0EE6D1A03F03A
:1026F000C7FF9FED4F1B51EC100B53EC112B09F052
:1027000009F953EC192B08F05BFE53EC1B2B09F075
:102710000DFB9FED491B53EC112B08F051FE08F007
:102720001DFE00EE100ADFED460A70EE600A9FED16
:10273000450A454BB0EE4E1A00EEAA0AF0EE4C0ADE
:10274000BDEEC00A83ED000A95ED020A07F00CFB0E
:1027500085ED020A94ED020AB0EE4E1AF0EE4C0A34
:1027600007F002FB84ED020AC6ED02CAC7ED02CAF9
:1027700040F698024FF44871186807F005FB18609E
:1027800036E792ED000AD8ED000AB0EE4E1A30EEB0
:10279000200A60EE280AB0EE480A00EECA0A00EEEF
:1027A0008A8AF0EE4C0A85ED020A84ED020A86ED73
:1027B000028A87ED028A07F0D7FA85ED020A94EDC6
:1027C000020AB0EE4E1AF0EE4C0A07F0CDFA3DE0E8
:1027D0004501002098010020EC5A0020005B0020F9
:1027E00000000000000008400000000094010020EC
:1027F000C45A0020D85A0020B85A00209C0100205A
:10280000000000000000E0BF000000000000E03F0A
:10281000D7231F440AD7A33E48E1FABEE5D0E23FE2
:10282000000000000000004000000000D34DF43F15
:10283000000000809318E4BF00000000022BF93F65
:102840004C37C93F0080BB447C01002084ED020A64
:1028500096ED020AB0EE4E1AF0EE4C0A07F084FA3A
:1028600086ED020A97ED020AB0EE4E1AF0EE4C0A1F
:1028700007F07AFA87ED020ABAE600001CB50121DA
:10288000102002F0A9F800218DF804100321012086
:102890008DF8051000908DF807006946014800F09A
:1028A0008BF91CBD00100240F0B5012189B008462B
:1028B00002F09EF80121032002F08EF803258DF826
:1028C000055002264FF400408DF8046001242B4F80
:1028D00000908DF806408DF807406946384600F0B4
:1028E0006BF98DF805508DF804608DF806408DF871
:1028F00007400820224C00906946204600F05CF911
:1029000001220F21384600F093F9012203212046CD
:1029100000F08EF902A803F0C3F900244FF6FF700F
:10292000ADF8084003907507ADF81040ADF80A40C7
:1029300002A9284603F076F900231A460321284607
:1029400002F091FF05A803F011F8ADF81C4005A9AD
:10295000284602F0B5FF0121284602F069FF012256
:102960001146284603F00AF80021284603F030F902
:102970000121284602F062FF09B0F0BD00000240CC
:102980000004024030B589B00121022002F030F885
:102990000121084602F020F8C020039003208DF8A2
:1029A000110002208DF8100001208DF81200224C39
:1029B0008DF8130003A9204600F0FEF8022206213C
:1029C000204600F035F902220721204600F030F9B8
:1029D000684603F065F900244FF6FF70174DADF817
:1029E00000400190ADF80840ADF802406946284625
:1029F00003F018F900231A460321284602F033FF9A
:102A000005A802F0B3FFADF81C4005A9284602F066
:102A100057FF0121284602F00BFF012211462846EC
:102A200002F0ACFF0021284603F0D2F8012128462D
:102A300002F004FF09B030BD000002400004004075
:102A400030B589B00121042001F0D2FF012102201C
:102A500001F0C2FFC020039003208DF81100022076
:102A60008DF8100001208DF81200224C8DF8130013
:102A700003A9204600F0A0F802220621204600F01B
:102A8000D7F802220721204600F0D2F8684603F06A
:102A900007F900244FF6FF70174DADF80040019084
:102AA000ADF80840ADF802406946284603F0BAF890
:102AB00000231A460321284602F0D5FE05A802F09D
:102AC00055FFADF81C4005A9284602F0F9FE01218A
:102AD000284602F0ADFE01221146284602F04EFFC4
:102AE0000021284603F074F80121284602F0A6FED2
:102AF00009B030BD000402400008004030B589B084
:102B00000121082001F074FF0121084601F064FF53
:102B1000032003908DF8110002208DF81000012091
:102B20008DF81200224C8DF8130003A9204600F006
:102B300043F802220021204600F07AF80222012107
:102B4000204600F075F8684603F0AAF800244FF616
:102B5000FF70184DADF800400190ADF80840ADF899
:102B600002406946284603F05DF800231A46032117
:102B7000284602F078FE05A802F0F8FEADF81C40E9
:102B800005A9284602F09CFE0121284602F050FECD
:102B900001221146284602F0F1FE0021284603F0EA
:102BA00017F80121284602F049FE09B030BD0000A7
:102BB00000000240000C0040F0B5002201274FF059
:102BC000030C0B6807FA02F52B40AB422CD10668C8
:102BD00053000CFA03F4A64306600E79D0F800E027
:102BE0009E4046EA0E0606600E79012E01D0022EA6
:102BF00012D18668A64386604E79D0F808E09E40E0
:102C000046EA0E0686604668AE43466045688E79A1
:102C10009640B6B235434560C568A543C560CC79DA
:102C20009C40C3681C43C460521C102AC9D3F0BD29
:102C30004B07DB0E9A40C90810B500EB8100016A12
:102C40000F249C40A1430162016A1143016210BD3F
:102C5000418370470183704710B50A4C0146072332
:102C600001222046FDF728FE2046FDF75FFE0221E7
:102C70002046FDF7F4FD0028F9D02046BDE81040BD
:102C8000FDF7EABD00200140F0B4644864490278D1
:102C900064480E780578644804789FED641A644BA4
:102CA000DFED642ADFED641A644F9FED652A654805
:102CB00097ED000A6449F1EE400A52B1012A08D0AA
:102CC000092C66D2DFE804F0654346494E51565957
:102CD0006200092C24D2DFE804F02305080B10134E
:102CE000181B200080ED000A0CE080ED000A01E0D6
:102CF00080ED001AC3ED000A53E0C0ED000AF9E7C9
:102D0000C0ED000A83ED001A4BE0C0ED000A01E0BF
:102D100080ED001A83ED000A43E080ED000AF9E738
:102D200080ED001A83ED001A012E04D0012D07D08A
:102D300081ED001A35E0C0EE220A60EE820A03E05F
:102D4000C0EE220A60EEA10AC1ED000A29E080ED82
:102D5000000A0CE080ED000A01E080ED001AC1EDF0
:102D6000001A0EE0C0ED000AF9E7C0ED000A81ED9F
:102D7000001A06E0C0ED000A01E080ED001A81EDC6
:102D8000002A012E08D0012D09D00AE080ED000AAA
:102D9000F5E780ED001AEAE781ED002A01E0C1EDD8
:102DA000001A022A06D0032A11D0052A0FD0042ABD
:102DB0000DD01FE091ED000AF0EE000A20EE200A8F
:102DC000F2EE020A80EE201A81ED001A12E0D0ED38
:102DD000000AF5EEC00AF1EE10FAD1ED000A03D2B6
:102DE000F1EE600AC1ED000A20EE800AC0EE220A70
:102DF000C1ED000AD0ED000A9FED141A80EE810AA1
:102E000080ED000AD3ED001AC1EE810AC3ED000A7D
:102E100091ED001AF0BCFFF7D5BA00004501002083
:102E2000A0010020A10100205901002000000000A5
:102E3000840100200000FA43DB0FC9BF48010020D5
:102E4000DB0FC93F800100208801002000007A4488
:102E500010B502202DED048B01F044FE334C2060B0
:102E6000032001F03FFE6060042001F03BFEA06003
:102E7000052001F037FE2E49E0600978062911D2BD
:102E8000DFE801F03F034A4A3F4A94ED000A47E079
:102E9000B8EEC09A94ED020AF8EEC08A00EE100A6D
:102EA000B8EEC08A9FED231A234869EE810A90ED9F
:102EB000000A224860EE801AD0ED000A204881EE18
:102EC000A02A69EE011A61EE801A80ED002A81EED7
:102ED000A02A68EE811A1B4828EE011A61EE801ABA
:102EE00021EE000A80EE201A80ED002A164881EEBD
:102EF000A02A80ED002A154880ED001ABDEC048B55
:102F000010BD2168494200EE101A6168F8EEC09ABF
:102F1000494200EE101ABBE72168494200EE101A40
:102F2000F8EEC09A94ED010AB2E70000145B0020AD
:102F3000450100200000C842900100208C010020C3
:102F4000C45A0020D85A0020EC5A0020005B002010
:102F50002DE9F04100250E4607462C4608E038468C
:102F6000FFF77AFE0544052005F094F8641CE4B2EE
:102F7000B442F4D3B5FBF6F080B2BDE8F0810000B6
:102F800010B50E20FFF768FE08F074FC9FED0E1BD5
:102F900053EC112B08F0BEFC9FED0D1B53EC112BD5
:102FA00008F0B8FC9FED0C1B53EC112B08F0B2FCA1
:102FB0009FED0B1B53EC112B08F0ACFC08F0CEF985
:102FC00000EE100A10BD00006666666666660A407E
:102FD000000000000000264000000040E17AF03FC1
:102FE000000000000000303FFEE7000070B50D4C0F
:102FF0000025C4F8A0520C48016821F4402101606A
:10300000016841F480210160C4F8A452012004F554
:10301000287405F05BF80120206005F057F8256062
:1030200070BD000000804042000402401CB5012138
:10303000084601F0D1FC4FF44070012400908DF857
:10304000044000208DF8060003208DF805008DF85F
:10305000074069460448FFF7AFFD0448C0F8A042A6
:10306000C0F8A4421CBD00000004024000804042A1
:1030700070B50D4C0026C4F8A0620C48016821F41C
:1030800040210160016841F4802101600125C4F8FC
:10309000A452284604F5287405F018F8256001208C
:1030A00005F014F8266070BD008040420004024024
:1030B0002DE9F047814618480025016821F4402198
:1030C000016001680160154E2C462F464FF0010843
:1030D000C6F8A072012004F0F9FFC6F8A0826806C5
:1030E000D6F82412000E11B140F0010501E020F0E5
:1030F0000105012004F0EAFF641CE4B2082CE7D3C8
:10310000B9F1000F04D0FFF7B3FF2846BDE8F08700
:10311000FFF76CFFF9E70000000402400080404226
:1031200070B50D46044600F01BF8204600F08AF802
:1031300000F05EF8284600F085F800F059F800F03D
:103140000FF844F0010000F07DF800F051F8012084
:10315000FFF7AEFF044600F02BF8204670BD0000DC
:1031600070B51148016821F440210160016841F403
:10317000802101600D4C0120C4F8A402D4F824126F
:1031800000290FD0C4F8A00204F0A0FF0025C4F865
:10319000A452D4F82402002804D1012004F096FFA0
:1031A000C4F8A05270BD00000004024000804042FC
:1031B0000D4810B5016821F440210160016841F417
:1031C00080210160094C0020C4F8A002C4F8A402C8
:1031D000012004F5287404F079FF0120206060606C
:1031E000BDE8104004F072BF00040240008040427D
:1031F00070B512480024016821F440210160016883
:1032000001600F4D0126C5F8A462304604F05EFF50
:10321000C5F8A06207E0641CE4B2322C03D9FFF7C2
:10322000C7FF002070BD012004F050FFD5F8240234
:103230000028F0D1C5F8A002012070BD00040240B2
:10324000008040422DE9F04105461448016821F410
:1032500040210160016841F480210160104E002787
:10326000C6F8A0723C464FF00108E809C6F8A4026F
:103270006806050E012004F029FFC6F8A08201208F
:1032800004F024FFC6F8A072012004F01FFF641CA4
:10329000E4B2082CE9D3BDE8F0810000000402404C
:1032A0000080404270B515460E460446FFF758FFB1
:1032B0002046FFF7C7FFFFF79BFF3046FFF7C2FF2F
:1032C000FFF796FF2846FFF7BDFFFFF791FFBDE828
:1032D0007040FFF76DBF000008B504F031FF164DD8
:1032E00000274FF47A78A5F13004AE1D00900A2132
:1032F000684607F025F82078401C2070A0684045FB
:1033000007DA401CA060D4F82A00C4F81E00E08D43
:1033100060842A1D0848A91C04F020FF00F0B6F9BB
:1033200020780D28E3D30448321D801DB11C04F021
:1033300035FF2770DBE70000C4020020174830EE9D
:10334000C00A1749D0ED020A174A91ED001A70EE33
:10335000600A144960EE810A91ED001A41EE000AFC
:1033600090ED011A70EE810A10EE901AC0ED010A7C
:10337000914203DDDFED0D0AC0ED010A10EE901A57
:103380000B4A914203D9DFED0B0AC0ED010A80ED33
:10339000020ABDEEE00A10EE100A70473802002063
:1033A0004C0100205001002000408346004083462D
:1033B000004083C6004083C6174830EEC00A174954
:1033C000D0ED050A174A91ED001A70EE600A144913
:1033D00060EE810A91ED001A41EE000A90ED041AA8
:1033E00070EE810A10EE901AC0ED040A914203DDDE
:1033F000DFED0D0AC0ED040A10EE901A0B4A91425F
:1034000003D9DFED0B0AC0ED040A80ED050ABDEE1D
:10341000E00A10EE100A7047380200204C0100202C
:10342000500100200040834600408346004083C690
:10343000004083C6174830EEC00A1749D0ED080A8D
:10344000174A91ED001A70EE600A144960EE810A85
:1034500091ED001A41EE000A90ED071A70EE810A14
:1034600010EE901AC0ED070A914203DDDFED0D0A60
:10347000C0ED070A10EE901A0B4A914203D9DFED16
:103480000B0AC0ED070A80ED080ABDEEE00A10EE57
:10349000100A7047380200204C0100205001002023
:1034A0000040834600408346004083C6004083C6F8
:1034B000174830EEC00A1749D0ED0B0A174A91EDB4
:1034C000001A70EE600A144960EE810A91ED001A4C
:1034D00041EE000A90ED0A1A70EE810A10EE901A81
:1034E000C0ED0A0A914203DDDFED0D0AC0ED0A0AC4
:1034F00010EE901A0B4A914203D9DFED0B0AC0ED92
:103500000A0A80ED0B0ABDEEE00A10EE100A7047C1
:10351000380200204C01002050010020004083466A
:1035200000408346004083C6004083C61CB501218D
:10353000082001F051FA4FF48070009000208DF8BF
:10354000040003208DF8050001208DF8070069466E
:103550000148FFF731FB1CBD000C024010B53220C2
:1035600004F0D4FB022805D1044903480A6802602C
:103570008988818010BD0000B2020020B8020020BE
:103580007CB50121102001F027FA01208DF80400FC
:1035900000228DF8062003218DF80510074D4FF409
:1035A00080648DF80700009469462846FFF704FB05
:1035B00021462846FFF74EFB7CBD0000001002406C
:1035C00000EE900A41421E4AB8EEE01A00EE901A50
:1035D00000B592ED010AF8EEE00A06F0C5FB00EE38
:1035E000900A82ED010A174AB8EEE01A00EE901A2E
:1035F00092ED010AF8EEE00A06F0B6FB00EE900A42
:1036000082ED010A104AB8EEE01A00EE901A92ED2F
:10361000010AF8EEE00A06F0A7FB00EE900A82ED40
:10362000010A0A4AB8EEE01A00EE901A92ED010A79
:10363000F8EEE00A06F098FB82ED010A00BD0000FA
:10364000C45A0020D85A0020EC5A0020005B002009
:103650000C4A0023508A18B90B49D1F8201209B13D
:10366000138209E0118A491C89B211820F2903D9FA
:103670000120508213827047012800D1538200201C
:1036800070470000200000200080414270B5174CB8
:10369000221D2046A11C04F063FDA4F12A004FF472
:1036A0007A738068124A1349984203DA012008604D
:1036B000107018E0984201D1002010700B4B4FF4AD
:1036C000967008609B1F2188198062885A80A088A4
:1036D00098809B1F1E88891B21805988511A618000
:1036E0009988401AA080284670BD0000BE020020C4
:1036F0004401002034000020FEE700002DE9FC47D3
:103700000121172001F068F901248DF804400025FB
:103710003C208DF806500226DFF8B8A000908DF806
:1037200005608DF8074069465046FFF745FA8DF869
:1037300004404FF408408DF80650DFF89C8000905C
:103740008DF805608DF8074069464046FFF734FA6A
:103750008DF8044020208DF80650DFF8809000900E
:103760008DF805608DF8074069464846FFF724FA52
:103770008DF804408DF806508DF8056027038DF80C
:103780000740174C009769462046FFF715FA0821B5
:103790005046FFF75DFA04215046FFF759FA102111
:1037A0005046FFF755FA20215046FFF751FA3946A7
:1037B0002046FFF74DFA20214846FFF749FAE11469
:1037C0004046FFF745FAB1034046FFF741FABDE82E
:1037D000FC87000000000240000402400008024094
:1037E000001002402DE9F041884607468AB00121C9
:1037F000022001F009F90121042001F0EDF8354E15
:10380000032206213046FFF713FA03220721304630
:10381000FFF70EFA032208213046FFF709FA0322C8
:1038200009213046FFF704FA4FF47070059002202A
:103830008DF8180003208DF8190000248DF81A4027
:1038400001258DF81B5005A93046FFF7B5F9224E2A
:10385000ADF81C800897ADF82450ADF81E4007A9BC
:10386000304602F0DFF96020ADF80000ADF80250FC
:10387000ADF80C406946304602F088F8694630469B
:1038800002F0C0F86946304602F010F96946304649
:1038900002F05AF90121304601F0DAFF08213046E2
:1038A00002F0AAF80821304602F0F6F80821304666
:1038B00002F044F90821304602F080F90121304637
:1038C00001F0ACFF0121304601F0B8FF0AB0BDE8BD
:1038D000F081000000080240000401407047000031
:1038E00030B50F23C27801780125FAB1144A126865
:1038F00001F1E02102F4E062C2F5E062C2F30722C6
:10390000C2F10404D3404278A24084781C4014439E
:10391000220181F80024007800F01F018D40400949
:10392000800000F1E020C0F8005130BD01F01F0020
:1039300085404809800000F1E020C0F8805130BD8A
:103940000CED00E00249084302490860704700009E
:103950000000FA050CED00E010B40021084B0A4607
:10396000002003EBC004401CC0B262548028F8D38E
:10397000491CC9B20829F3D310BC00F0B9B8000043
:10398000D002002010B57F2816D83F2914D807236D
:10399000A3EBD10301F00701C1F107040121A1400C
:1039A000064CDBB204EBC000002AC25CC9B201D0F5
:1039B0000A4300E08A43C25410BD0000D002002038
:1039C0007CB50121102001F007F801268DF8046074
:1039D00000244FF4F0708DF8064000908DF80540FB
:1039E0008DF8074069464048FFF7E6F801210807CF
:1039F00000F0FEFF012000F0E9FF002001F064F874
:103A0000002000F0E3FF394DC5F89C42642005F525
:103A1000277504F03FFB2E600021AE2000F0B6FCBD
:103A20000021D52000F0B2FC0021502000F0AEFCB7
:103A30000021A82000F0AAFC00213F2000F0A6FCF5
:103A40000021D32000F0A2FC0021084600F09EFCDB
:103A50000021402000F09AFC00218D2000F096FC0F
:103A60000021142000F092FC0021202000F08EFCA8
:103A70000021022000F08AFC0021A12000F086FC39
:103A80000021C02000F082FC0021DA2000F07EFC42
:103A90000021122000F07AFC0021812000F076FC49
:103AA0000021EF2000F072FC0021D92000F06EFC14
:103AB0000021F12000F06AFC0021DB2000F066FC10
:103AC0000021302000F062FC0021A42000F05EFC08
:103AD0000021A62000F05AFC0021AF2000F056FC87
:103AE000FFF73AFF7CBD0000001002400000424298
:103AF00070B5104E002505F1B000C0B2002100F0F5
:103B000045FC0021084600F041FC0021102000F097
:103B10003DFC002406EBC4000121405D00F036FCB2
:103B2000641CE4B2802CF5D36D1CEDB2082DE2D3F9
:103B300070BD0000D002002010B50446B031C8B2FC
:103B4000002100F023FC102040EA1410002100F0B6
:103B50001DFC04F00F00BDE81040002100F016BC71
:103B60002DE9FF4F9946DDF8348092468B460025BB
:103B70004FEAD80716E00BEB0500C1B20098FFF73B
:103B8000DBFF07FB0A500A49002401EB001605E0A1
:103B9000305D012100F0FAFB641CE4B24C45F7D320
:103BA0006D1CEDB2B5EBD80FE5D3BDE8FF8F00007B
:103BB0004ACB00082DE9F04F203A98460D4683463F
:103BC000894602F0FF0A00262EE0B8F10C0F08D05B
:103BD000174901EB0A100027845D200607D5099AD2
:103BE00008E014490AEB4A0001EB8000F3E709986A
:103BF00090B1002229465846FFF7C4FE6D1C6006AE
:103C0000EDB2040EA5EB0901414507D10BF101000E
:103C10004D4600F0FF0B05E00122EBE77F1CFFB2F1
:103C2000082FDAD3761CF6B24645CED3BDE8F08F26
:103C30005AC50008E6C00008F8B52D4D0020102434
:103C40006870C2B2C2EB0210C0B21023052100940A
:103C5000FFF786FF6878401CC0B268700828F0D370
:103C600008206870C2B21146083AC2EB02100A4638
:103C7000C0B2102303210094FFF772FF6878401C44
:103C8000C0B268700C28EDD30C266E7000946A7870
:103C9000102311460C3AC2EB02100A46C0B20121B1
:103CA000FFF75EFF6878401CC0B268700F28EDD344
:103CB0001048642101230068009690FBF1F0C0F1E8
:103CC00005022D21302000F005FB0F206870C2B2E4
:103CD000C2EB0210AA38C0B2102301210094FFF7F2
:103CE0003FFF6878401CC0B268701328EFD3F8BD5E
:103CF0007C020020680100202DE9F84FFE4F0524CA
:103D0000FE4E38784FF01005C00713D02820707091
:103D1000C2B2C2EB0210A0F249202146C0B2102369
:103D20000095FFF71DFF7078401CC0B270702C2802
:103D3000EED3A41E3878800713D52C207070C2B241
:103D4000C2EB0210A0F28520E1B2C0B210230095B0
:103D5000FFF706FF7078401CC0B270703228EED3B7
:103D6000A41E3878B84600074FF037094FF00A070D
:103D70001DD5C4F1050007EBC000C1B2E0A21420BC
:103D800000F0E4FA484686F80190C2B2C2EB021095
:103D9000A0F21B30E1B2C0B210230095FFF7E0FEA5
:103DA0007078401CC0B270703B28EED3A41E98F807
:103DB0000000C246C0064FF032081DD5C4F1050010
:103DC00007EBC000C1B2CEA2142000F0BFFA4046FB
:103DD00086F80180C2B2C2EB0210A0F53470E1B2E5
:103DE000C0B210230095FFF7BBFE7078401CC0B234
:103DF00070703728EED3A41E9AF8000080061DD5F7
:103E0000C4F1050007EBC000C1B2BEA2142000F04F
:103E10009DFA484686F80190C2B2C2EB0210A0F2A9
:103E20001B30E1B2C0B210230095FFF799FE707805
:103E3000401CC0B270703B28EED3A41E9AF800005C
:103E400040061DD5C4F1050007EBC000C1B2ADA20C
:103E5000142000F07BFA404686F80180C2B2C2EB23
:103E60000210A0F53470E1B2C0B210230095FFF744
:103E700077FE7078401CC0B270703728EED3A41E55
:103E80009AF8000000061DD5C4F1050007EBC0003C
:103E9000C1B29DA2142000F059FA484686F801905C
:103EA000C2B2C2EB0210A0F21B30E1B2C0B21023CA
:103EB0000095FFF755FE7078401CC0B270703B282B
:103EC000EED3A41EBAF80000C0051DD5C4F105004C
:103ED00007EBC000C1B28CA2142000F037FA4046B4
:103EE00086F80180C2B2C2EB0210A0F53470E1B2D4
:103EF000C0B210230095FFF733FE7078401CC0B2AB
:103F000070703728EED3A41EBAF8000080051DD5C6
:103F1000C4F1050007EBC000C1B27CA2142000F080
:103F200015FA484686F80190C2B2C2EB0210A0F220
:103F30001B30E1B2C0B210230095FFF711FE70787C
:103F4000401CC0B270703B28EED3A41EBAF800002B
:103F500040051DD5C4F1050007EBC000C1B26BA23E
:103F6000142000F0F3F9404686F80180C2B2C2EB9B
:103F70000210A0F53470E1B2C0B210230095FFF733
:103F8000EFFD7078401CC0B270703728EED3A41ECD
:103F9000BAF80000D046000513D540207070C2B2B8
:103FA000C2EB0210A0F2B130E1B2C0B21023009512
:103FB000FFF7D6FD7078401CC0B270704528EED374
:103FC000A41EB8F80000C00412D545207070C2B21B
:103FD000C2EB0210001DE1B2C0B210230095FFF742
:103FE000BFFD7078401CC0B270704928EFD3A41E8A
:103FF000B8F8000010F4404F13D049207070C2B2DE
:10400000C2EB0210A0F58760E1B2C0B210230095A8
:10401000FFF7A6FD7078401CC0B270704E28EED33A
:10402000A41ED8F80000C146C0034FF03B081DD5C0
:10403000C4F1050007EBC000C1B231A2142000F0AA
:1040400085F9404686F80180C2B2C2EB0210A0F2A8
:104050005730E1B2C0B210230095FFF781FD7078B0
:10406000401CC0B270704028EED3A41ED9F80000E6
:1040700080031DD5C4F1050007EBC000C1B221A229
:10408000142000F063F9404686F80180C2B2C2EB0A
:104090000210A0F25730E1B2C0B210230095FFF732
:1040A0005FFD7078401CC0B270704028EED3A41E33
:1040B000D9F8000040031DD5C4F1050007EBC0008E
:1040C000C1B211A2142000F041F9404686F80180E7
:1040D000C2B2C2EB0210A0F25730E1B2C0B210235C
:1040E0000095FFF73DFD7078401CC0B2707040280D
:1040F000EED3A41E0CE00000740100207C0200201E
:1041000041000000420000004300000044000000A5
:10411000D9F8000000031ED5C4F1050007EBC0006C
:10412000C1B2AFF21802142000F010F9404686F830
:104130000180C2B2C2EB0210A0F25730E1B2C0B2AD
:1041400010230095FFF70CFD7078401CC0B2707012
:104150004028EED3A41EB9F800004F46800423D5B2
:1041600039207070C2B2C2EB0210C01FE1B2C0B2FF
:1041700010230095FFF7F4FC7078401CC0B27070FB
:104180003B28EFD3A41E012C02DA29A22C2108E03F
:10419000032C02DA26A21B2103E0052C04DA24A258
:1041A0000A21142000F0D2F8386898B94E207070B7
:1041B000C2B2C2EB0210A0F28340E1B2C0B210233F
:1041C0000095FFF7CDFC7078401CC0B2707052288B
:1041D000EED3A41E052C29DA01231A46072100205C
:1041E000009500F077F80A2113A2084600F0AEF817
:1041F000032C1BDA0123022218210020009500F075
:1042000069F80DA21B210A2000F0A0F8012C0DDA9C
:104210000123032229210020009500F05BF8BDE86E
:10422000F84F2C2104A20A2000F090B8BDE8F88FC6
:104230004D505539323530002E000000F8B5224C73
:10424000132010256070C2B21146133AC2EB02105F
:104250000A46C0B2102305210095FFF781FC607863
:10426000401CC0B260701828EDD30C2601231A46FA
:104270001C210520009600F02DF818206070C2B2B5
:10428000C2EB0210A0F5AB70C0B210230321009561
:10429000FFF766FC6078401CC0B260701C28EED34B
:1042A0000A480223006800EBC00101EB0010084936
:1042B00009680096C1EBC000642190FBF1F21C215B
:1042C000052000F007F8F8BD7C02002070010020F6
:1042D000680100202DE9FF4F81B00027DDF838B0DC
:1042E0001D46924680463C464FF001094FEA5B0668
:1042F00027E0281B401EC1B20A2004F0E1F9BAFBF6
:10430000F0F00A21B0FBF1F201FB120027B9691E9F
:104310008C4201DA48B101273030C2B206FB04807A
:10432000C0B25B46CDF8009006E006FB0480C0B248
:104330005B462022CDF800900299FFF73BFC641CFD
:10434000E4B2AC42D5D305B0BDE8F08FF8B516465F
:104350000D460446012714E07A2C02D900241035BA
:10436000EDB23A2D03D900242546FFF7F5FA009760
:1043700032780C2329462046FFF71CFC0834E4B2AF
:10438000761C30780028E7D1F8BD000030B5002356
:104390000E4A012411B1C2F8A04201E0C2F8A032D5
:1043A0000021C2F89432050602D5C2F8984201E015
:1043B000C2F89832C2F894424006491C000EC9B2B5
:1043C0000829EED3C2F8A04230BD000000004242EE
:1043D0000020044A01461154401CC0B20928FAD3F7
:1043E00070470000D00600202DE9F84F01258046D7
:1043F000ADF800501D4800264670ADF800501C4F27
:104400001C4CDFF874B081464FF6FF7A25E0BDF80A
:10441000000010EA080F02D0C7F88C5201E0C7F87C
:104420008C62C4F8B052052003F050FEC4F8B062AC
:10443000052003F04BFEC4F8B052DBF83C0230B16B
:1044400099F80110BDF80020114389F80110BDF85A
:1044500000100AEA4100ADF80000BDF80000FF2896
:10446000D5D9BDE8F84F102003F030BED0060020AB
:1044700000804142008040420000424270B5FFF798
:10448000A7FF00F01FF90B480B4AB0F803400A4899
:10449000083244800020012512F8103000F101009C
:1044A0005B1E05FA03F12142C0B202D01028F3D3FB
:1044B000002070BDD00600203C00002010B5154C37
:1044C0000020C4F8B402102004F52D7403F0FEFDA2
:1044D0000120FFF789FF4320FFF786FF0020FFF749
:1044E00083FF0120FFF780FF0020FFF77DFF002002
:1044F000FFF77AFF0020FFF777FF0020FFF774FF38
:104500000020FFF771FF01202060BDE8104010205F
:1045100003F0DCBD0080404210B5154C0020C4F80B
:10452000B402102004F52D7403F0D0FD0120FFF734
:104530005BFF4320FFF758FF0020FFF755FF0020E7
:10454000FFF752FF5A20FFF74FFF5A20FFF74CFFAB
:104550005A20FFF749FF5A20FFF746FF5A20FFF77E
:1045600043FF01202060BDE81040102003F0AEBDE5
:10457000008040427CB501211A2000F02DFA012470
:104580008DF80440002508208DF806500226009082
:104590008DF805608DF8074069461048FEF70CFB62
:1045A000E00300908DF8045003208DF805008DF88D
:1045B000076069460A48FEF7FFFA8DF804404FF499
:1045C00040508DF8065000908DF805608DF807403A
:1045D00069460448FEF7F0FA7CBD0000000C02407A
:1045E000001002400004024010B5FFF747FF00EE44
:1045F000100A26482B4BB8EE400A012280ED000A33
:104600002348C17900EE901A2249F8EE600AC1ED04
:10461000000A017A00EE901A1F49F8EE600AC1ED17
:10462000000A417901EE101A1C49B8EE411A81EDD9
:10463000001A807910EE101A01EE100A1848B1F134
:10464000814FB8EE411A80ED001A174801D1017868
:10465000D1B15968002916D010EE901A134B994227
:1046600011DA017800290ED111490968B1F57A7F74
:1046700009DB10490270002008700F4908700F49CB
:1046800008700F49087010BD5A60E5E7B4010020BA
:10469000D0060020A4010020A8010020AC010020C9
:1046A000B00100203C000020540100200000EC423A
:1046B0009C020020560100205501002057010020D7
:1046C000580100202DE9FC4700268DF800600125E7
:1046D000ADF80450234CC4F8B462234F3878FFF788
:1046E00083FE7878FFF780FE02208DF80000DFF867
:1046F0007C801F4F4FF6FF792CE0ADF804501DE091
:10470000C4F8B052052003F0E1FCC4F8B062052003
:1047100003F0DCFCC4F8B052D8F83C0240B19DF87C
:104720000000BDF80410385C08439DF80010785470
:10473000BDF8041009EA4100ADF80400BDF804001A
:10474000FF28DDD9102003F0C1FC9DF80000401CBB
:104750008DF800009DF800000928CED3C4F8B452AB
:10476000BDE8FC87008040423C000020000042423F
:10477000D006002010B500F00DF800F00BF800F0A6
:1047800009F8FFF79BFE00F027F8BDE81040FFF79F
:10479000C3BE000010B50F4C0020C4F8B4021020B6
:1047A00004F52D7403F092FC0120FFF71DFE42205A
:1047B000FFF71AFE0020FFF717FE0020FFF714FE98
:1047C0000020FFF711FE01202060BDE810401020FE
:1047D00003F07CBC0080404210B5144C0020C4F8AB
:1047E000B402012004F52D74FFF7FEFD4420FFF70D
:1047F000FBFD0020FFF7F8FD0120FFF7F5FD03208A
:10480000FFF7F2FD0020FFF7EFFD0020FFF7ECFDC2
:104810000020FFF7E9FD0020FFF7E6FD0120206002
:10482000BDE81040102003F051BC00000080404261
:10483000554830B4D0ED000A9FED540A54486FF04B
:10484000130370EE600AFDEEE00A10EE901AD0ED50
:10485000000A504870EE600AFDEEE00A10EE902A61
:10486000D0ED000A9A4230EE600ABDEEC00A10EEAA
:10487000100A02DD142A00DA0022994202DD14290E
:1048800000DA0021984202DD142800DA0020424BB1
:10489000434C424D1B6894ED000AF1EE040AAB4212
:1048A00002D130EE200A04E03E4DAB4203D130EE9F
:1048B000600A84ED000AB5EEC00AF1EE10FA03D2E8
:1048C0009FED390A84ED000A00EE102A01EE901ADD
:1048D000D4ED000AB8EEC00A02EE100AF8EEE11AB2
:1048E000DFED352AB8EEC22A20EE201A9FED2F0AFE
:1048F00061EEA01A22EE222A21EE001A2C4A61EE65
:10490000801A2C4B22EE000A2C4982ED001A2C480A
:10491000C3ED001A81ED000A00789FED2A2AF0B15C
:1049200001281CD0022806D003280FD005280DD05E
:1049300004280BD019E0F0EE000A20EE200AF2EE77
:10494000020A80EE202A81ED002A0EE0B5EEC01AA0
:10495000F1EE10FA03D2B1EE400A81ED000A20EE2A
:10496000200AC0EE020AC1ED000A9FED172A81EE6F
:10497000020AC1EE820A82ED000AC3ED000A91ED3F
:10498000001A30BCFDF71EBDA4010020000000434A
:10499000A8010020AC010020B4010020000030413B
:1049A0004801002000001041000000000000003C11
:1049B0008001002084010020DB0FC93F8801002016
:1049C000450100200000FA4300007A4401490862D2
:1049D0007047000000000E42044A0029116801D00F
:1049E000014300E08143116070470000303802400D
:1049F000044A0029116801D0014300E0814311609D
:104A00007047000040380240044A0029116801D074
:104A1000014300E0814311607047000044380240C8
:104A2000044A0029116801D0014300E0814311606C
:104A3000704700002438024070B5204B1968204CA4
:104A400011F00C0104D06610042903D0082903D00A
:104A500004601BE0066019E0184A121F1168C1F3D8
:104A60008055116801F03F0115B1B6FBF1F101E08D
:104A7000B4FBF1F114681268C4F388146143C2F303
:104A80000142521C5200B1FBF2F1016019680F2281
:104A900002EA11110B4A545C0168E14041601C6854
:104AA000072505EA9424145D21FA04F484601B6848
:104AB00005EA5333D25CD140C16070BD0838024072
:104AC0000024F400C0000020054900220A700A708A
:104AD000012802D0042801D1052008707047000089
:104AE000703802400021022807D003280BD0042888
:104AF0000BD005280BD0002070474FF08042506A41
:104B0000516200B27047044A02E0044A00E0044ADD
:104B10001068116000B2704724040040240800406F
:104B2000240C00402DE9F0414FF4FA66614B7710F8
:104B300032463946186805F027F95F4D186032464D
:104B40003946286805F020F95C4C28603246394621
:104B5000206805F019F93246594E20603946306810
:104B600005F012F930602A6821681B686FF0630451
:104B7000A2F2DC52A0F2DC50A1F2DC51A3F2DC5331
:104B8000A24202DD642A00DA0022A04202DD64288B
:104B900000DA0020A14202DD642900DA0021A342EC
:104BA00002DD642B00DA002300EE101A454CB8EE4B
:104BB000C00AD4ED000A30EE800ABDEEC00A10EE45
:104BC000101A002900DA00214FF4FA754A4392FBCB
:104BD000F5F24042484390FBF5F000EE102ADFED7D
:104BE0003C1A394CF8EEC00A00EE100A5842374D14
:104BF000B8EEC01A00EE100A374AC4ED000AB8EE4B
:104C0000C00A364885ED001A20EE212ADFED311A60
:104C100082EE210A82ED000A007850B1012808D006
:104C200002280DD0032812D0052810D004280ED059
:104C300022E002EE101AB8EEC22A20EE020A17E0B5
:104C4000F0EE001A20EE210AF2EE021A10E0F5EE64
:104C5000C00AF1EE10FA03D2B1EE400A82ED000A6A
:104C6000B0EE402A00EE101AB8EEC00A22EE000A9A
:104C700080EE212A82ED002A9FED190A1949C0EE23
:104C8000801AC1EE000AC4ED001AC5ED000A0878CA
:104C900038B19FED150A401E84ED000A82ED000A2E
:104CA000087092ED001A94ED000ABDE8F041FDF79E
:104CB00089BB0000780000207C00002080000020DC
:104CC0008400002048010020800100208401002091
:104CD000DB0FC93F0000FA43880100204501002096
:104CE00000007A44B80100200000000010B551EC2B
:104CF000100B2DED068BB0EE439AF0EE629AB0EEFB
:104D000042AAF0EE618AB0EE418A06F027FBBDEEC2
:104D1000CA0A154910EE102ABDEEE90A086081EDB5
:104D2000018A10EE103AC1ED058AC1E9022381ED36
:104D3000049A9900514300EE101A0C49B8EEC00ACB
:104D400081ED000A9FED0A0A0A4929EE000A81ED69
:104D5000000A09490860094880ED008A0848C0ED4A
:104D6000008ABDEC068B10BD245B00208C01002066
:104D7000DB0F4940900100209401002098010020A1
:104D80009C01002070B53E4C4FF4AD700A212060AC
:104D90000820FEF7DDF821683A4C90FBF1F0C0B234
:104DA0002070052801D905202070C0B29FED361A69
:104DB0009FED363A06281DD2DFE800F003102934B3
:104DC0003D48F0EE411A9FED323AF2EE0A2AB3EE78
:104DD0000E2A9FED301A9FED300B09E09FED303A1F
:104DE000F2EE0A2AB3EE0E2ADFED2E1A9FED2E0BFD
:104DF000FFF77CFF2578082404222D482D4907233E
:104E0000062D38D2DFE805F02D3038383438F0EE92
:104E1000411AF2EE0A2AB3EE0E2A9FED271A9FEDF1
:104E2000270BE5E7F2EE0A2AB3EE0E2AF0EE411A5E
:104E30009FED240BDCE7F0EE411AF2EE0A2AB3EE06
:104E40000E2A9FED221A9FED220BD1E79FED223A09
:104E5000F2EE0A2AB3EE0E2AF0EE411A9FED1F0B76
:104E6000C6E704600E2005E0062202600A2001E089
:104E700004600B20086070BD02600B6070BD000014
:104E8000780100204501002000000000B81E853D8B
:104E90009A99993D7B14AE3D022B8716D9CEB73F28
:104EA0008FC2753D643BDF3D000000000000000044
:104EB0006C01002070010020BC74133E00000080D3
:104EC0006ABCC43F000000A0EFA7C63FE926313E00
:104ED000000000C09DEFC73FC520303D000000E04E
:104EE0007A14CE3F2DE9F0478A46814601218EB0E3
:104EF0000846FFF789FD01211020FFF76DFD02250F
:104F00008DF80450032768038DF805700024DFF83E
:104F1000688100908DF8064001268DF8076069468B
:104F20004046FDF749FE8DF8045028028DF80570C3
:104F300000908DF806408DF8075069464046FDF711
:104F40003BFE8DF80450A8028DF8057000908DF896
:104F500006408DF8075069464046FDF72DFE8DF856
:104F6000045028038DF8057000908DF806408DF8E8
:104F7000075069464046FDF71FFE012209214046C1
:104F8000FDF756FE01220B214046FDF751FE01229E
:104F90000D214046FDF74CFE01220E214046FDF753
:104FA00047FE364DADF828A0CDF82C90ADF8304036
:104FB000ADF82A400AA9284600F034FEADF80840B2
:104FC000ADF80C60ADF80A40ADF80E40ADF81040F9
:104FD00002A9284600F074FC0420ADF80800ADF8E2
:104FE0000C60ADF80A40ADF80E40ADF8104002A9D3
:104FF000284600F065FC0820ADF80800ADF80C600C
:10500000ADF80A40ADF80E40ADF8104002A92846B0
:1050100000F056FC6020ADF81400ADF8166007945F
:10502000ADF82040ADF8244005A9284600F08CFDDD
:105030000821284600F0C2FD1B208DF834008DF8B1
:1050400035608DF836408DF837600DA8FEF748FCC6
:1050500001220E21284600F091FC0121284600F093
:10506000F7FB0121284600F0E9FB40F2DC50286400
:105070000EB0BDE8F08700000010024000000140C3
:105080000CB50022274900920192086840F4803054
:1050900008604FF4A043086800F4003001900098C5
:1050A000401C0090019810B900989842F3D108680C
:1050B000800334D5012001901A484030026842F044
:1050C000805202601848026842F44042026015486B
:1050D000083002680260026842F40042026002681E
:1050E00042F4A0520260031F104A1A600A6842F09C
:1050F00080720A600A689201FCD50D4940F205727F
:105100000A60016821F003010160016841F00201B9
:1051100001600168C1F381010229FAD10CBD01923D
:105120000CBD0000003802400070004008544007E9
:10513000003C0240F0B5264E00240125059F0028C2
:1051400004DAC6F88842C6F88C5203E0C6F88852E2
:10515000C6F88C4201DAC0F10000DFF878C0CCF864
:105160000000002904DAC6F89452C6F8904203E021
:10517000C6F89442C6F8905201DAC1F1000116480F
:10518000016016491648002A04DDC1F89442C0F8AF
:10519000B05203E0C1F89452C0F8B04201DAC2F153
:1051A0000002104802601048002B04DDC0F8BC4229
:1051B000C0F8AC5203E0C0F8BC52C0F8AC4201DA0F
:1051C000C3F100030948036009480764F0BD00000B
:1051D00000004042340401403804014000004142D4
:1051E000000042423C040140008040424004014033
:1051F0000000014000B5B0EE412AF0EE602AB0EEAA
:10520000401A9FED490A4948D0ED001ADFED480ADF
:10521000B5EEC01AF1EE10FA02DD71EE801A0EE062
:10522000B5EEC01AF1EE10FA02D271EEC01A06E025
:10523000B5EEC01AF1EE10FA03D161EEA01AC0ED7E
:10524000001A3A49F5EEC02AD1ED011AF1EE10FA32
:1052500002DD71EE801A0EE0F5EEC02AF1EE10FAD2
:1052600002D271EEC01A06E0F5EEC02AF1EE10FA95
:1052700003D161EEA01AC0ED011A2C49B5EEC02A87
:10528000D1ED021AF1EE10FA02DD31EE800A0EE0E5
:10529000B5EEC02AF1EE10FA02D231EEC00A06E0F5
:1052A000B5EEC02AF1EE10FA03D121EEA00A80ED8E
:1052B000020AB0EE410A02F02FFFF0EE400AB0EE13
:1052C000410A02F029FFF1EE401AB0EE601A90EDAB
:1052D000000AF0EE610A04F047FD80ED000AB0EE2E
:1052E000620A02F019FFB0EE401AB0EE620A02F054
:1052F00013FFF1EE400A90ED010A04F035FD80ED58
:10530000010AB0EE420A02F007FFB0EE401AB0EE1A
:10531000420A02F001FFF1EE400A90ED020A04F0A9
:1053200023FD80ED020A00BD0AD7233CB85A0020B5
:105330006666663F4FF0E0210428086903D020F03C
:1053400004000861704740F00400FAE710B505F06A
:105350009DFD012803D0BDE8104005F08BBA10BDBB
:10536000124810B5016841F47001016010480168ED
:1053700041F0010101600E4A00210832116002680B
:105380000C4B1A400260031D0B4A1A60026822F49B
:105390008022026006480C300160FFF771FE03496D
:1053A0004FF000608039086010BD000088ED00E01B
:1053B00000380240FFFFF6FE1030002470B5048C68
:1053C00024F001040484058B048C4FF6FF7606EA72
:1053D0000313134325F0F3052B4324F00A020A4379
:1053E00042F001010383018470BDF0B5048C24F008
:1053F00010040484078B068C4FF6FF7404EA011531
:1054000027F4734704EA0331394304EA02220A43CA
:1054100026F0A001294341F0100102830184F0BD70
:105420002DE9F0478F4800248169B1F5C86F11DD7F
:105430008D490A7872B98D4A1268B2F57A7F09DB14
:1054400001220A708A490C708A490C708A490C70D2
:105450008A490C7080460078894D000642F20F762A
:105460004FF4FA772DD40221284600F01DFA40B3FC
:105470000221284600F0DFF998F80000400628468F
:105480003DD500F009FA80B2A8F80600B8F804107B
:105490004246884201D2566300E05463401A516B81
:1054A00008445061516A401A00D54042B84200DDBC
:1054B00051615069506288F800400021284600F090
:1054C00095FA98F8010000063AD40421284600F025
:1054D000EBF9A8B30421284600F0ADF998F80100D3
:1054E000400628464AD500F0D9F980B2A8F80A004B
:1054F000B8F80810424688420ED296630DE000F0DC
:10550000CBF90146A8F8041098F8001041F04001CA
:1055100088F800100221D1E79463401A916B084487
:105520009061916A401A00D54042B84200DD916115
:105530009069906288F801400021284600F0A2FAA4
:1055400098F8020000063AD40821284600F0ACF989
:10555000A8B30821284600F06EF998F8020040062A
:1055600028464FD500F09CF980B2A8F80E00B8F894
:105570000C10424688420ED2D6630DE000F08EF940
:105580000146A8F8081098F8011041F0400188F889
:1055900001100221D1E7D463401AD16B0844D061D5
:1055A000D16A401A00D54042B84200DDD161D069CD
:1055B000D06288F802400021284600F0B5FA314850
:1055C000007802284CD098F80300C146000647D462
:1055D0001021284600F068F9002841D01021A84683
:1055E000284600F028F999F803004D4640062BD5CF
:1055F000404600F057F980B26882298A88420ED26C
:105600002E640DE000F04CF90146A8F80C1098F853
:10561000021041F0400188F802100221CCE72C640E
:10562000401A296C08442862296B401A00D5404270
:10563000B84200DD2962286A2863EC7000214046E8
:10564000BDE8F04700F0B0BA4446404600F02AF901
:105650002882E878022140F04000E8702046EFE719
:10566000BDE8F08764000020560100209C02002065
:10567000550100205401002057010020580100204E
:105680000000014045010020F0B50D46064601210D
:1056900089B00846FFF7B8F901211020FFF79CF9FF
:1056A0004FF4D440022203908DF8102003208DF88F
:1056B00011000024404F8DF812408DF8132003A9EB
:1056C0003846FDF779FA012209213846FDF7B0FA8C
:1056D00001220B213846FDF7ABFA01220D21384695
:1056E000FDF7A6FA01220E213846FDF7A1FA06962B
:1056F000324EADF81450ADF81C40ADF8164005A977
:10570000304600F08FFA01250F20ADF80040ADF8CB
:105710000450ADF80800ADF80240ADF80640694607
:10572000304600F0CDF80420ADF80000ADF804508C
:10573000ADF80240ADF80640ADF808406946304685
:1057400000F0BEF80820ADF80000ADF80450ADF848
:105750000240ADF80640ADF808406946304600F01A
:10576000AFF80C20ADF80000ADF80450ADF80240E1
:10577000ADF80640ADF808406946304600F0A0F8A4
:105780001B208DF820008DF821408DF822408DF8E7
:10579000235008A8FEF7A4F801221E21304600F08D
:1057A000EDF80121304600F053F80121304600F0B9
:1057B00045F809B0F0BD00000010024000000140B3
:1057C0000248018A21F00101018270470000014076
:1057D0004FF08040018A018A21F001010182704767
:1057E00003480188018821F0010101807047000011
:1057F0001004004003480188018821F00101018064
:10580000704700001008004003480188018821F01B
:105810000101018070470000100C00400029018840
:1058200002D041F0800101E021F080010180704749
:10583000C94301827047C94301827047002901882A
:1058400002D041F0010101E021F001010180704727
:10585000002930F8441F02D041F4004101E0C1F3B7
:105860000E010180704770B50589048B068C25F008
:1058700007050D434FF6FC410C4040F201110C436B
:105880004FF6FF7101EA031126F02206114331435E
:1058900005810483018470BD406B7047806B704745
:1058A000C06B7047006C704702460020138A9289D3
:1058B0000B4202EA010202D0002A00D00120704708
:1058C0002DE9F0410C460E884988A28823890546B7
:1058D00016B3042E28D0082E2E8C4FF6FF702BD036
:1058E00026F480562E84AF8B2E8C00EA022200EA2A
:1058F000013127F473473A4300EA0330104326F49A
:1059000020420A4342F48051A8832984E188284632
:10591000BDE8F04100F07AB9FFF750FDE188284674
:10592000BDE8F04100F056B9FFF75FFDE188284679
:10593000BDE8F04100F056B926F480762E84AF8B96
:105940002E8C00EA012100EA0310104327F0F30730
:10595000384326F420620A4342F48071A8832984E4
:10596000E1882846BDE8F04100F048B900210180F7
:10597000418001228280C18001817047002A828992
:1059800001D00A4300E08A438281704730B5028C1F
:1059900022F001020284028C8388048B22F002022E
:1059A00024F073050C882C438D8915434A882A43BB
:1059B0000C4DA84202D00C4DA8420DD122F0080592
:1059C000CA8923F440732A4322F004058A882A43B3
:1059D0000D8A1D434B8A2B4383800483896841636E
:1059E000028430BD0000014000040140028C22F01E
:1059F00002020A4302847047028B22F008020A4323
:105A00000283704770B5028C22F010020284028C6F
:105A10008388048B0D8824F4E6464FF6FF7404EA6D
:105A2000052535438E8922F0200204EA0616164326
:105A30004A8804EA02123243104EB04202D0104E9D
:105A4000B04215D122F08006CA8923F4406304EAEB
:105A50000212324322F040068A8804EA02123243DC
:105A60000E8A04EA86061E434B8A04EA8303334304
:105A70008380058389688163028470BD00000140D2
:105A800000040140028C4FF6FF7322F0200203EA6B
:105A90000111114301847047028B4FF6FF7322F40A
:105AA000006203EA012111430183704770B5028C43
:105AB00022F480720284028C8388848B0D8824F007
:105AC000730425438E894FF6FF7422F4007204EAB2
:105AD000062616434A8804EA02223243104EB04298
