:020000040800F2
:1000000000000220113F0008A93C0008AF3C000896
:10001000B53C0008BB3C0008C13C000800000000E3
:1000200000000000000000000000000051B20008C5
:10003000C73C000800000000A1B40008D53C00083F
:10004000613F0008613F0008613F0008613F000810
:10005000613F0008EF3C0008613F0008613F000875
:10006000613F0008613F0008613F0008613F0008F0
:10007000613F0008613F0008613F0008613F0008E0
:10008000613F0008613F0008613F0008613F0008D0
:10009000613F0008613F0008613F0008613F0008C0
:1000A000FD3C0008113D0008613F0008613F000869
:1000B000613F0008613F0008253D0008613F0008DE
:1000C000613F0008613F0008613F0008613F000890
:1000D000613F0008613F0008613F0008393D0008AA
:1000E000613F0008613F0008613F0008613F000870
:1000F000613F00084D3D0008613F0008613F000876
:10010000613F0008613F0008613F0008613F00084F
:10011000613F0008613F0008613F0008613F00083F
:10012000613F0008613F0008613F0008613F00082F
:10013000613F0008613F0008613F0008613F00081F
:10014000613F0008613F0008613F0008613F00080F
:10015000613F0008613F0008613F0008613F0008FF
:10016000613F0008613F0008613F0008613F0008EF
:10017000613F0008613F0008613F00080000000087
:08018000613F0008613F000827
:1001900010B5054C237833B9044B13B10448AFF3C1
:1001A00000800123237010BDF0010020000000003A
:1001B0008CE7000808B5034B1BB103490348AFF3B4
:1001C000008008BD00000000F40100208CE700085A
:1001D00001F0FF01102A2BDB10F0070F08D010F8F8
:1001E000013B013A8B422DD010F0070F42B3F6D1FC
:1001F000F0B441EA012141EA014122F007047FF015
:1002000000070023F0E80256083C85EA010586EA6B
:10021000010685FA47F5A3FA87F586FA47F6A5FAA7
:1002200087F68EB9EED1F0BC01F0FF0102F00702B3
:1002300032B110F8013B013A83EA010313B1F8D15E
:100240000020704701387047002D06BF354603383F
:10025000073815F0010F07D1013015F4807F02BF78
:10026000013015F4C03F0130F0BC0138704700BFC9
:10027000034613F8012B002AFBD1181A01387047E6
:1002800081F0004102E000BF83F0004330B54FEA47
:1002900041044FEA430594EA050F08BF90EA020FB4
:1002A0001FBF54EA000C55EA020C7FEA645C7FEA47
:1002B000655C00F0E2804FEA5454D4EB5555B8BF6A
:1002C0006D420CDD2C4480EA020281EA030382EADB
:1002D000000083EA010180EA020281EA0303362D6D
:1002E00088BF30BD11F0004F4FEA01314FF4801C40
:1002F0004CEA113102D0404261EB410113F0004F52
:100300004FEA03334CEA133302D0524263EB430308
:1003100094EA050F00F0A780A4F10104D5F1200EA6
:100320000DDB02FA0EFC22FA05F2801841F1000101
:1003300003FA0EF2801843FA05F359410EE0A5F1D5
:1003400020050EF1200E012A03FA0EFC28BF4CF006
:10035000020C43FA05F3C01851EBE37101F00045BC
:1003600007D54FF0000EDCF1000C7EEB00006EEBC9
:100370000101B1F5801F1BD3B1F5001F0CD3490853
:100380005FEA30004FEA3C0C04F101044FEA4452AA
:1003900012F5800F80F09A80BCF1004F08BF5FEA31
:1003A000500C50F1000041EB045141EA050130BD11
:1003B0005FEA4C0C404141EB0101013C28BFB1F523
:1003C000801FE9D291F0000F04BF01460020B1FA6E
:1003D00081F308BF2033A3F10B03B3F120020CDA41
:1003E0000C3208DD02F1140CC2F10C0201FA0CF01F
:1003F00021FA02F10CE002F11402D8BFC2F1200C84
:1004000001FA02F120FA0CFCDCBF41EA0C01904039
:10041000E41AA2BF01EB0451294330BD6FEA040482
:100420001F3C1CDA0C340EDC04F11404C4F120026D
:1004300020FA04F001FA02F340EA030021FA04F37F
:1004400045EA030130BDC4F10C04C4F1200220FAD6
:1004500002F001FA04F340EA0300294630BD21FA14
:1004600004F0294630BD94F0000F83F4801306BFDA
:1004700081F480110134013D4EE77FEA645C18BFCE
:100480007FEA655C29D094EA050F08BF90EA020F65
:1004900005D054EA000C04BF1946104630BD91EA5D
:1004A000030F1EBF0021002030BD5FEA545C05D160
:1004B0004000494128BF41F0004130BD14F580049F
:1004C0003CBF01F5801130BD01F0004545F0FE4113
:1004D00041F470014FF0000030BD7FEA645C1ABF48
:1004E000194610467FEA655C1CBF0B46024650EA7F
:1004F000013406BF52EA033591EA030F41F40021AB
:1005000030BD00BF90F0000F04BF0021704730B530
:100510004FF4806404F132044FF000054FF0000105
:1005200050E700BF90F0000F04BF0021704730B5C6
:100530004FF4806404F1320410F0004548BF40429B
:100540004FF000013EE700BF42004FEAE2014FEAF0
:1005500031014FEA02701FBF12F07F4393F07F4FCB
:1005600081F06051704732F07F4208BF704793F0CE
:100570007F4F04BF41F40021704730B54FF46074E1
:1005800001F0004521F000411CE700BF50EA0102E4
:1005900008BF704730B54FF000050AE050EA01028D
:1005A00008BF704730B511F0004502D5404261EBFD
:1005B00041014FF4806404F132045FEA915C3FF43E
:1005C000D8AE4FF003025FEADC0C18BF03325FEADB
:1005D000DC0C18BF033202EBDC02C2F1200300FA8C
:1005E00003FC20FA02F001FA03FE40EA0E0021FAB1
:1005F00002F11444BDE600BF70B54FF0FF0C4CF49F
:10060000E06C1CEA11541DBF1CEA135594EA0C0F50
:1006100095EA0C0F00F0DEF82C4481EA030621EA8B
:100620004C5123EA4C5350EA013518BF52EA0335C6
:1006300041F4801143F4801338D0A0FB02CE4FF078
:100640000005E1FB02E506F00042E0FB03E54FF0A8
:100650000006E1FB03569CF0000F18BF4EF0010EA0
:10066000A4F1FF04B6F5007F64F5407404D25FEA9C
:100670004E0E6D4146EB060642EAC62141EA55514F
:100680004FEAC52040EA5E504FEACE2EB4F1FD0C91
:1006900088BFBCF5E06F1ED8BEF1004F08BF5FEA0F
:1006A000500E50F1000041EB045170BD06F00046C1
:1006B00046EA010140EA020081EA0301B4EB5C046E
:1006C000C2BFD4EB0C0541EA045170BD41F4801166
:1006D0004FF0000E013C00F3AB8014F1360FDEBF8B
:1006E000002001F0004170BDC4F10004203C35DA67
:1006F0000C341BDC04F11404C4F1200500FA05F3EA
:1007000020FA04F001FA05F240EA020001F000428A
:1007100021F0004110EBD37021FA04F642EB060100
:100720005EEA430E08BF20EAD37070BDC4F10C042A
:10073000C4F1200500FA04F320FA05F001FA04F2EE
:1007400040EA020001F0004110EBD37041F10001DA
:100750005EEA430E08BF20EAD37070BDC4F12005E5
:1007600000FA05F24EEA020E20FA04F301FA05F24D
:1007700043EA020321FA04F001F0004121FA04F2F5
:1007800020EA020000EBD3705EEA430E08BF20EAC5
:10079000D37070BD94F0000F0FD101F000464000FF
:1007A00041EB010111F4801F08BF013CF7D041EA81
:1007B000060195F0000F18BF704703F00046520085
:1007C00043EB030313F4801F08BF013DF7D043EA56
:1007D0000603704794EA0C0F0CEA135518BF95EA0C
:1007E0000C0F0CD050EA410618BF52EA4306D1D193
:1007F00081EA030101F000414FF0000070BD50EAB2
:10080000410606BF1046194652EA430619D094EA3B
:100810000C0F02D150EA013613D195EA0C0F05D125
:1008200052EA03361CBF104619460AD181EA030179
:1008300001F0004141F0FE4141F470014FF0000031
:1008400070BD41F0FE4141F4780170BD70B54FF0CC
:10085000FF0C4CF4E06C1CEA11541DBF1CEA13554C
:1008600094EA0C0F95EA0C0F00F0A7F8A4EB05042E
:1008700081EA030E52EA03354FEA013100F0888025
:100880004FEA03334FF0805545EA131343EA1263EE
:100890004FEA022245EA111545EA10654FEA0026A3
:1008A0000EF000419D4208BF964244F1FD0404F55C
:1008B000407402D25B084FEA3202B61A65EB0305B8
:1008C0005B084FEA32024FF480104FF4002CB6EB75
:1008D000020E75EB030E22BFB61A754640EA0C00F5
:1008E0005B084FEA3202B6EB020E75EB030E22BF35
:1008F000B61A754640EA5C005B084FEA3202B6EB76
:10090000020E75EB030E22BFB61A754640EA9C0034
:100910005B084FEA3202B6EB020E75EB030E22BF04
:10092000B61A754640EADC0055EA060E18D04FEAC2
:10093000051545EA16754FEA06164FEAC30343EA62
:1009400052734FEAC2025FEA1C1CC0D111F4801F2F
:100950000BD141EA00014FF000004FF0004CB6E728
:1009600011F4801F04BF01430020B4F1FD0C88BFC7
:10097000BCF5E06F3FF6AFAEB5EB030C04BFB6EBD2
:10098000020C5FEA500C50F1000041EB045170BDC5
:100990000EF0004E4EEA113114EB5C04C2BFD4EBF2
:1009A0000C0541EA045170BD41F480114FF0000E76
:1009B000013C90E645EA060E8DE60CEA135594EAF2
:1009C0000C0F08BF95EA0C0F3FF43BAF94EA0C0FF5
:1009D0000AD150EA01347FF434AF95EA0C0F7FF46A
:1009E00025AF104619462CE795EA0C0F06D152EABE
:1009F00003353FF4FDAE1046194622E750EA4106A2
:100A000018BF52EA43067FF4C5AE50EA41047FF4B2
:100A10000DAF52EA43057FF4EBAE12E74FF0FF3C17
:100A200006E000BF4FF0010C02E000BF4FF0010CE8
:100A30004DF804CD4FEA410C7FEA6C5C4FEA430C61
:100A400018BF7FEA6C5C1BD001B050EA410C0CBFB0
:100A500052EA430C91EA030F02BF90EA020F002012
:100A6000704710F1000F91EA030F58BF994208BF79
:100A700090422CBFD8176FEAE37040F00100704736
:100A80004FEA410C7FEA6C5C02D150EA013C07D18D
:100A90004FEA430C7FEA6C5CD6D152EA033CD3D0D8
:100AA0005DF8040B704700BF8446104662468C46D2
:100AB0001946634600E000BF01B5FFF7B7FF002805
:100AC00048BF10F1000F01BD4DF808EDFFF7F4FF2E
:100AD0000CBF012000205DF808FB00BF4DF808EDB9
:100AE000FFF7EAFF34BF012000205DF808FB00BFDC
:100AF0004DF808EDFFF7E0FF94BF012000205DF8FE
:100B000008FB00BF4DF808EDFFF7CEFF94BF0120B2
:100B100000205DF808FB00BF4DF808EDFFF7C4FFAB
:100B200034BF012000205DF808FB00BF4FEA410CF4
:100B30007FEA6C5C02D150EA013C0AD14FEA430CD7
:100B40007FEA6C5C02D152EA033C02D14FF0000014
:100B500070474FF0010070474FEA410212F5001252
:100B600015D211D56FF47873B3EB625212D94FEAF4
:100B7000C12343F0004343EA505311F0004F23FADE
:100B800002F018BF404270474FF00000704750EA33
:100B9000013005D111F0004008BF6FF000407047F0
:100BA0004FF00000704700BF4A0011D212F500124A
:100BB00011D20DD56FF47873B3EB62520ED44FEAB5
:100BC000C12343F0004343EA505323FA02F0704735
:100BD0004FF00000704750EA013002D14FF0FF3073
:100BE00070474FF00000704753B94AB9002908BF59
:100BF00000281CBF4FF0FF314FF0FF3000F070B9FC
:100C0000ADF1080C6DE904CE00F006F8DDF804E063
:100C1000DDE9022304B070472DE9F047089E0D4638
:100C200004460F46002B4AD18A42944665D9B2FA4F
:100C300082F343B102FA03FCC3F120029F4020FA81
:100C400002F217439C404FEA1C4E1FFA8CF5B7FB8B
:100C5000FEF1220C0EFB117742EA074201FB05F080
:100C600090420AD91CEB020201F1FF3780F01C818F
:100C7000904240F2198102396244121AA4B2B2FBC6
:100C8000FEF00EFB102244EA024400FB05F5A542EB
:100C90000AD91CEB040400F1FF3280F00781A54261
:100CA00040F204816444023840EA0140641B0021A0
:100CB0001EB1DC400023C6E90043BDE8F0878B424B
:100CC00008D9002E00F0ED800021C6E90005084695
:100CD000BDE8F087B3FA83F1002949D1AB4202D3D2
:100CE000824200F2F880841A65EB03020120174665
:100CF000002EE2D0C6E90047DFE702B9FFDEB2FA14
:100D000082F3002B40F090808A1A4FEA1C471FFAAA
:100D10008CFE0121B2FBF7F507FB1520220C42EAFD
:100D200000420EFB05F0904208D91CEB020205F1CF
:100D3000FF3802D2904200F2CB804546121AA4B28C
:100D4000B2FBF7F007FB102244EA02440EFB00FE60
:100D5000A64508D91CEB040400F1FF3202D2A645D7
:100D600000F2BB801046A4EB0E0440EA05409FE76A
:100D7000C1F120078B4022FA07FC4CEA030C05FA6C
:100D800001F420FA07F3FD404FEA1C492343B5FB69
:100D9000F9F81FFA8CFE09FB18551C0C44EA0544AF
:100DA00008FB0EF5A54202FA01F200FA01F00BD998
:100DB0001CEB040408F1FF3A80F08880A54240F261
:100DC0008580A8F102086444641B9DB2B4FBF9F36A
:100DD00009FB134445EA044403FB0EFEA64508D96B
:100DE0001CEB040403F1FF356CD2A6456AD9023B23
:100DF000644443EA0843A3FB0295A4EB0E04AC420F
:100E0000C846AE4656D353D056B1B0EB080264EB99
:100E10000E0404FA07F7CA40CC401743C6E9007431
:100E200018460021BDE8F087C3F1200102FA03FC57
:100E300020FA01F225FA01F19D402A434FEA1C47AE
:100E40001FFA8CFEB1FBF7F007FB1015110C41EAFD
:100E5000054100FB0EF58D4204FA03F408D91CEBA2
:100E6000010100F1FF382FD28D422DD902386144A3
:100E7000491B92B2B1FBF7F507FB151142EA01429B
:100E800005FB0EF1914208D91CEB020205F1FF3877
:100E900016D2914214D9023D6244521A45EA0041E9
:100EA00038E73146304608E73946E6E61046FBE6C5
:100EB0004845A9D2B9EB020865EB0C0E013BA3E74C
:100EC0004546EAE72B4694E74046D1E7D0467BE724
:100ED000023D624432E708460AE76444023842E7CA
:100EE000704700BF80B500AF03F06EFA00F09EF8C7
:100EF00000F096FB00F026F900F0C2F900F014FAB9
:100F000000F0BAFA00F062FB00F0EEF800F060FAD0
:100F100003F0CEF901222849284807F026F8284A8C
:100F20000021284808F038F80346274A1360274A6A
:100F30000021274808F030F80346264A1360264A65
:100F40000021264808F028F80346254A1360254A60
:100F50000021254808F020F80346244A1360244A5B
:100F60000021244808F018F80346234A1360234A56
:100F70000021234808F010F80346224A1360224A51
:100F80000021224808F008F80346214A1360214A4C
:100F90000021214808F000F80346204A1360204A47
:100FA0000021204807F0F8FF03461F4A136007F0AE
:100FB000A9FF07F0CBFFFEE730040020C8030020A4
:100FC000B0E80008B12400080C040020D4E80008B0
:100FD0006125000810040020F8E80008A12A000894
:100FE000140400201CE90008BD2C0008180400208F
:100FF00040E90008112D00081C04002064E90008E5
:10100000C12E00082004002088E900081D2F0008D8
:1010100024040020ACE90008A52F000828040020C3
:10102000D0E90008313000082C04002080B594B0CD
:1010300000AF07F120033022002118460BF057FAC9
:1010400007F10C0300221A605A609A60DA601A6194
:101050000023BB60224B1B6C214A43F08053136476
:101060001F4B1B6C03F08053BB60BB6800237B608D
:101070001C4B1B681B4A43F480431360194B1B68CD
:1010800003F480437B607B6802233B620123FB62A5
:1010900010233B630023BB6307F12003184604F0D1
:1010A0005BFD0346002B01D002F092FB0F23FB6097
:1010B00000233B6100237B610023BB610023FB61B4
:1010C00007F10C030021184604F0BEFF0346002B75
:1010D00001D002F07DFB00BF5037BD4680BD00BF90
:1010E000003802400070004080B500AF124B134A38
:1010F0001A60114B124A5A600F4B00229A600E4B35
:101100000022DA600C4B4FF480421A610A4B002235
:101110005A61094B00229A61074B0022DA61064BA3
:1011200000221A62044803F059FD0346002B01D047
:1011300002F04EFB00BF80BD0C02002000540040B6
:10114000A086010080B596B000AF07F148030022E9
:101150001A605A609A60DA6007F1400300221A6050
:101160005A6007F1240300221A605A609A60DA601C
:101170001A615A619A613B1D2022002118460BF02A
:10118000B6F93D4B3D4A1A603B4BA0225A603A4BA0
:1011900000229A60384B4FF47A72DA60364B0022A4
:1011A0001A61354B00225A61334B80229A613248D2
:1011B00005F02AF90346002B01D002F009FB4FF499
:1011C0008053BB6407F1480319462B4805F09EFF86
:1011D0000346002B01D002F0FBFA274805F063F923
:1011E0000346002B01D002F0F3FA00233B640023F6
:1011F0007B6407F1400319461F4806F0F5FC0346DF
:10120000002B01D002F0E4FA60237B620023BB6272
:101210000023FB6200237B630023BB630023FB638B
:1012200007F124030C221946134805F0ADFE0346CE
:10123000002B01D002F0CCFA00237B600023BB60BE
:101240000023FB6000233B6100237B614FF40053CC
:10125000BB6100233B623B1D1946074806F040FD79
:101260000346002B01D002F0B3FA034802F092FCCF
:1012700000BF5837BD4680BD60020020000001401D
:1012800080B58CB000AF07F10C0324220021184672
:101290000BF02DF93B1D00221A605A60214B4FF0D4
:1012A00080421A601F4B00225A601E4B00229A6037
:1012B0001C4B4FF6FF72DA601A4B00221A61194B71
:1012C00000229A610323FB6000233B6101237B61C1
:1012D0000023BB610A23FB6100233B6201237B6285
:1012E0000023BB620A23FB6207F10C0319460D4879
:1012F00005F072FB0346002B01D002F069FA0023CF
:101300007B600023BB603B1D1946064806F06CFC61
:101310000346002B01D002F05BFA00BF3037BD4618
:1013200080BD00BFA802002080B58CB000AF07F1DF
:101330000C032422002118460BF0D9F83B1D002293
:101340001A605A60204B214A1A601F4B00225A60D3
:101350001D4B00229A601C4B4FF6FF72DA601A4B4D
:1013600000221A61184B00229A610323FB600023BC
:101370003B6101237B610023BB610A23FB610023E6
:101380003B6201237B620023BB620A23FB6207F1FD
:101390000C0319460C4805F01FFB0346002B01D037
:1013A00002F016FA00237B600023BB603B1D194648
:1013B000054806F019FC0346002B01D002F008FA9C
:1013C00000BF3037BD4680BDF00200200004004061
:1013D00080B586B000AF07F1100300221A605A6092
:1013E0003B4600221A605A609A60DA60204B214A1C
:1013F0001A601F4B10225A601D4B00229A601C4B32
:101400004FF6FF72DA601A4B00221A61184B002265
:101410009A61174805F068F90346002B01D002F0E5
:10142000D7F900233B6100237B6107F110031946C4
:101430000F4806F0D9FB0346002B01D002F0C8F993
:1014400000233B6001237B600023BB600023FB6023
:101450003B4600221946064805F0FAFC0346002BDD
:1014600001D002F0B5F900BF1837BD4680BD00BFFE
:10147000380300200008004080B596B000AF07F1A7
:10148000480300221A605A609A60DA6007F140034C
:1014900000221A605A6007F1240300221A605A6081
:1014A0009A60DA601A615A619A613B1D202200211C
:1014B00018460BF01CF8434B434A1A60414B00227C
:1014C0005A60404B00229A603E4B41F61F42DA6060
:1014D0003C4B00221A613B4B00225A61394B0022DF
:1014E0009A61384804F090FF0346002B01D002F0C7
:1014F0006FF94FF48053BB6407F148031946314834
:1015000005F004FE0346002B01D002F061F92D48DE
:1015100004F0C9FF0346002B01D002F059F9002363
:101520003B6400237B6407F140031946254806F01D
:101530005BFB0346002B01D002F04AF960237B627B
:101540000023BB620023FB6200233B6300237B6319
:101550000023BB630023FB6307F124030022194629
:10156000184805F011FD0346002B01D002F030F9B8
:1015700007F1240304221946124805F005FD03462D
:10158000002B01D002F024F900237B600023BB6014
:101590000023FB6000233B6100237B614FF4005379
:1015A000BB6100233B623B1D1946064806F098FBD1
:1015B0000346002B01D002F00BF900BF5837BD469F
:1015C00080BD00BF800300200004014080B500AF53
:1015D000114B124A1A60104B4FF4E1325A600E4B15
:1015E00000229A600C4B0022DA600B4B00221A6139
:1015F000094B0C225A61084B00229A61064B0022CB
:10160000DA61054806F0D2FB0346002B01D002F058
:10161000DFF800BF80BD00BFC803002000480040C5
:1016200080B58CB000AF07F11C0300221A605A602D
:101630009A60DA601A610023BB61504B1B6B4F4A02
:1016400043F0100313634D4B1B6B03F01003BB619E
:10165000BB6900237B61494B1B6B484A43F0800305
:101660001363464B1B6B03F080037B617B69002394
:101670003B61424B1B6B414A43F0010313633F4BF9
:101680001B6B03F001033B613B690023FB603B4B99
:101690001B6B3A4A43F002031363384B1B6B03F096
:1016A0000203FB60FB680023BB60344B1B6B334AB7
:1016B00043F008031363314B1B6B03F00803BB605B
:1016C000BB6800237B602D4B1B6B2C4A43F004034B
:1016D00013632A4B1B6B03F004037B607B680022BF
:1016E00042F2E051264803F045FA00223C21254809
:1016F00003F040FA00224FF48061234803F03AFAE5
:1017000042F2E053FB6101233B6200237B62002332
:10171000BB6207F11C031946194803F08FF83C23FC
:10172000FB6101233B6200237B620223BB6207F162
:101730001C031946134803F081F84FF48063FB61E2
:1017400001233B6200237B620023BB6207F11C0381
:1017500019460D4803F072F84FF48073FB614FF4A3
:1017600088133B6200237B6207F11C03194607487C
:1017700003F064F800BF3037BD4680BD003802403A
:10178000001002400000024000040240000C024031
:1017900080B582B000AF786001220649064806F0A5
:1017A000E4FB064B1B680133044A136000BF083793
:1017B000BD4680BD30040020C80300204404002042
:1017C00080B483B000AF0346FB80094B1B68002246
:1017D0005A6200BF064B1B685A6AFB889A42F9D3CB
:1017E00000BF00BF0C37BD465DF8047B704700BFEB
:1017F000380300200000000080B582B000AF7860A0
:101800007B681B7F012B40F08D804B4B1B68002BAE
:101810001BD10021786805F041FD03461A46474B6D
:101820001A60454B01221A607B681B681A6A7B6844
:101830001B6822F00A021A627B681B681A6A7B68BE
:101840001B6842F002021A626CE03B4B1B68012BE2
:1018500068D10021786805F021FD03461A46384B0F
:101860001A607B681B6800225A62354B1A68334B3A
:101870001B689A420DDD324B1A68304B1B68D31A35
:101880001846FEF74FFE02460B462E49C1E90023DB
:1018900015E02A4B1A682A4B1B689A420FDD274B2A
:1018A0001B68C3F57F43FF33254A1268134418466B
:1018B000FEF738FE02460B462249C1E90023214BC0
:1018C000D3E900011AA3D3E90023FEF795FE0246EF
:1018D0000B46104619464FF000024FF08043FEF7CA
:1018E000B5FF02460B461849C1E90023124B0022FE
:1018F0001A607B681B681A6A7B681B6822F00A0200
:101900001A627B681A687B681B68126A1A620F4B3E
:101910001B68DA680D4B1B6822F00202DA600C4B80
:1019200001221A6000BF0837BD4680BDAFF30080BA
:10193000006F8104C58FA13F980500209C05002001
:10194000A0050020A8050020B005002038030020D5
:101950001000002080B500AF0D4B00221A6001225C
:101960004FF400510B4803F005F90A20FFF728FF58
:1019700000224FF40051074803F0FCF8064B1B68A7
:10198000DA68054B1B6842F00202DA6000BF80BDD6
:1019900010000020001002403803002080B582B003
:1019A00000AF78604FF48061074803F0FCF87B6873
:1019B000184602F07BFD4FF48061034803F0F3F812
:1019C00000BF0837BD4680BD000402400000000093
:1019D00080B582B000AF87ED000B2EA3D3E90023C2
:1019E000D7E90001FEF708FE02460B46C7E90023CF
:1019F000214B95221A80962007F060FB1F4B002296
:101A00001A601F4B00221A601E49D7E90023C1E962
:101A100000231D4B1B681D4A13601B4B1B681C4A8F
:101A200013601A4B1B681846FEF77CFDD7E90023AC
:101A3000FEF72CFC02460B4610461946FFF78CF8C1
:101A40000346124A1360124B1B681846FEF76AFDE4
:101A5000D7E90023FEF71AFC02460B46104619464A
:101A6000FFF77AF803460A4A136000BF0837BD46FD
:101A700080BD00BFAFF300800000002050040020B4
:101A80004C0400208804002060040020640400202E
:101A9000680400206666666666E6524080B582B0DD
:101AA00000AF7860094A7B681360094B95221A8061
:101AB000642007F003FB074B00221A60064B00224C
:101AC0001A6000BF0837BD4680BD00BF040000207B
:101AD00000000020500400204C04002080B582B09B
:101AE00000AF87ED000B0E4BE6221A800A2007F0AC
:101AF000E5FA0C4B00221A600B4B00221A600B4BCC
:101B0000D3E90001D7E90023FEF7BEFB02460B46EE
:101B10000649C1E9002300BF0837BD4680BD00BFAC
:101B200000000020500400204C040020700400201D
:101B300080B582B000AF87ED000B0E4B6A221A8091
:101B40000A2007F0BBFA0C4B00221A600B4B002254
:101B50001A600B4BD3E90001D7E90023FEF796FB8F
:101B600002460B460649C1E9002300BF0837BD46BF
:101B700080BD00BF00000020500400204C04002065
:101B80007004002080B584B000AF78600123FB6052
:101B90001E4BE6221A80C82007F090FA1C4B002248
:101BA0001A607B68FA6802FB03F31846FEF7BAFC7A
:101BB00002460B4643EC102BFFF790FF00BF00F0EE
:101BC000BFFB0346002BFAD1104B6A221A809620E5
:101BD00007F074FA0E4B00221A607B68FA6802FB69
:101BE00003F31846FEF79EFC02460B4643EC102B0F
:101BF000FFF79EFF00BF00F0A3FB0346002BFAD1C6
:101C000000BF00BF1037BD4680BD00BF00000020F0
:101C10004C04002080B584B000AF78600123FB60E5
:101C20001E4B6A221A80C82007F048FA1C4B00227B
:101C30001A607B68FA6802FB03F31846FEF772FC31
:101C400002460B4643EC102BFFF772FF00BF00F07B
:101C500077FB0346002BFAD1104BE6221A800520B1
:101C600007F02CFA0E4B00221A607B68FA6802FB20
:101C700003F31846FEF756FC02460B4643EC102BC6
:101C8000FFF72CFF00BF00F05BFB0346002BFAD1EF
:101C900000BF00BF1037BD4680BD00BF0000002060
:101CA0004C04002080B584B000AF78603960002318
:101CB000FB603B68002B18D07B68002B0ADD0122FB
:101CC0001021394802F056FF00222021364802F048
:101CD00051FF22E000221021334802F04BFF012285
:101CE0002021314802F046FF17E07B68002B0ADD17
:101CF000012208212C4802F03DFF002204212A483D
:101D000002F038FF09E000220821274802F032FFE4
:101D100001220421244802F02DFF7B68002B02DA07
:101D20007B685B427B607B68B3F5FA6F05DDFB681F
:101D300003F5EA530C33FB6030E07B68B3F5FA7FC0
:101D400005DDFB6803F5BB531033FB6026E07B68C1
:101D5000C82B04DDFB6803F5FA63FB601EE07B68BB
:101D6000642B04DDFB6803F2DC53FB6016E07B6848
:101D7000322B04DDFB6803F24C43FB600EE07B6812
:101D8000002B05DD094B1B680133084A136005E091
:101D9000064B1B6803F5FA73044A1360FB68184688
:101DA0001037BD4680BD00BF000002404C0400203B
:101DB000B0B588B000AF87ED020B78600023FB61FF
:101DC0007B68002B20D04FF000024FF00003D7E9D2
:101DD0000201FEF7A1FE0346002B0AD001221021CA
:101DE000654802F0C7FE00222021634802F0C2FECF
:101DF0002AE000221021604802F0BCFE01222021CE
:101E00005D4802F0B7FE1FE04FF000024FF0000304
:101E1000D7E90201FEF762FE0346002B0AD0012239
:101E20000821554802F0A6FE00220421524802F083
:101E3000A1FE09E0002208214F4802F09BFE01228A
:101E400004214D4802F096FE4FF000024B4BD7E9BB
:101E50000201FEF7D1FB02460B46C7E904234FF00F
:101E600000024FF00003D7E90401FEF737FE0346F6
:101E7000002B05D03C697B6983F00045C7E9044528
:101E80003BA3D3E90023D7E90401FEF745FE03464F
:101E9000002B05D0FB6903F59C530833FB6160E020
:101EA0004FF00002364BD7E90401FEF735FE03463A
:101EB000002B04D0FB6903F57A63FB6151E04FF01E
:101EC0000002304BD7E90401FEF726FE0346002B43
:101ED00004D0FB6903F5FA63FB6142E04FF00002B6
:101EE000294BD7E90401FEF717FE0346002B04D067
:101EF000FB6903F5C863FB6133E04FF00002234B3D
:101F0000D7E90401FEF708FE0346002B04D0FB6965
:101F100003F59663FB6124E04FF00002174BD7E90D
:101F20000401FEF7F9FD0346002B04D0FB6903F51D
:101F30006173FB6115E04FF00002154BD7E9040116
:101F4000FEF7EAFD0346002B05D0124B1B68013358
:101F5000104A136005E00F4B1B6803F5FA730D4A36
:101F60001360FB6918462037BD46B0BDAFF3008053
:101F70000000000000C07240000002400000244049
:101F80000000694000005940000049400000344012
:101F9000000008404C040020B0B588B000AF87EDC9
:101FA000020B78600023FB617B68002B20D04FF090
:101FB00000024FF00003D7E90201FEF7ADFD034632
:101FC000002B0AD001221021694802F0D3FD002223
:101FD0002021674802F0CEFD2AE00022102164484B
:101FE00002F0C8FD01222021614802F0C3FD1FE07C
:101FF0004FF000024FF00003D7E90201FEF76EFD3B
:102000000346002B0AD001220821594802F0B2FDF4
:1020100000220421564802F0ADFD09E0002208210B
:10202000534802F0A7FD01220421514802F0A2FD0D
:102030004FF000024F4BD7E90201FEF7DDFA0246EE
:102040000B46C7E904234FF000024FF00003D7E925
:102050000401FEF743FD0346002B05D03C697B6974
:1020600083F00045C7E904453FA3D3E90023D7E93E
:102070000401FEF751FD0346002B04D0FB6903F574
:102080009653FB6169E04FF000023B4BD7E9040136
:10209000FEF742FD0346002B05D0FB6903F5805394
:1020A0000433FB6159E04FF00002344BD7E90401DF
:1020B000FEF732FD0346002B04D0FB6903F5C8632D
:1020C000FB614AE04FF000022D4BD7E90401FEF717
:1020D00023FD0346002B04D0FB6903F59663FB61E7
:1020E0003BE04FF00002274BD7E90401FEF714FD57
:1020F0000346002B04D0FB6903F24C43FB612CE048
:102100004FF000021B4BD7E90401FEF705FD034623
:10211000002B04D0FB6903F56173FB611DE04FF0F8
:102120000002194BD7E90401FEF7F6FC0346002B29
:1021300009D0164B1B680133144A1360FB6903F581
:102140006173FB6109E0114B1B6803F5FA730F4AD9
:102150001360FB6903F56173FB61FB691846203767
:10216000BD46B0BDAFF300800000000000C072406B
:102170000000024000002440000069400000594077
:102180000000494000003440000008404C0400209A
:10219000B0B586B000AF87ED020B786000237B619D
:1021A00001233B61614B1B681846FEF7BBF90246F1
:1021B0000B46D7E90201FEF791FC0346002B10D035
:1021C0005A4B1B685B001846FEF7ACF9D7E90223AF
:1021D000FEF75AF802460B46C7E902234FF0FF33D9
:1021E0003B617B68002B18D03B69002B0ADD012284
:1021F00010214F4802F0BEFC002220214C4802F082
:10220000B9FC22E000221021494802F0B3FC01226F
:102210002021474802F0AEFC17E03B69002B0ADDA5
:1022200001220821424802F0A5FC00220421404876
:1022300002F0A0FC09E0002208213D4802F09AFCCF
:10224000012204213A4802F095FC4FF000024FF0C1
:102250000003D7E90201FEF741FC0346002B05D03D
:10226000BC68FB6883F00045C7E902454FF00002F7
:10227000304BD7E90201FEF74FFC0346002B05D097
:102280007B6903F5BB5310337B614AE0274B1B6826
:1022900009331846FEF746F902460B46D7E9020114
:1022A000FEF73AFC0346002B04D07B6903F6FC03DF
:1022B0007B6136E01D4B1B681846FEF733F94FF083
:1022C00000021D4BFDF7E2FF02460B46D7E9020173
:1022D000FEF722FC0346002B04D07B6903F56173F3
:1022E0007B611EE0114B1B681846FEF71BF94FF08F
:1022F0000002114BFDF7CAFF02460B46D7E9020167
:10230000FEF7F6FB0346002B05D00C4B1B68013390
:102310000A4A136005E0094B1B6803F5FA73074A84
:1023200013607B6918461837BD46B0BD0400002015
:1023300000000240000044400000E03F4C04002048
:1023400080B400AF0C4B1B68042B0EDD0B4B01223D
:102350001A600B4B00221A80094B1A88094B1A800D
:10236000054B00221A60002300E001231846BD46F9
:102370005DF8047B704700BF4C040020500400202F
:10238000480400204A04002080B584B002AF034610
:102390003960FB710F4AFB7913700F4B1B789BB2AE
:1023A0005B0099B20A23009301230A4A0B4802F00A
:1023B00059FD094B1B789BB25B0099B21423009323
:1023C00002233A68054802F04BFE00BF0837BD46BD
:1023D00080BD00BFA8040020080000200C020020DF
:1023E00080B584B002AF03460A46FB711346BB7149
:1023F0000A4AFB791370094ABB795370084B1B7862
:102400009BB25B0099B2142300930223034A054850
:1024100002F028FD00BF0837BD4680BDA80400209B
:10242000080000200C02002080B500AF002106202B
:10243000FFF7D6FF0A2006F041FE80210320FFF7B8
:10244000CFFF0A2006F03AFE07210720FFF7C8FF5A
:102450000A2006F033FE01210620FFF7C1FF0A2003
:1024600006F02CFE20217F20FFF7BAFF0A2006F09D
:1024700025FE2F210120FFF7B3FF0A2006F01EFEE4
:1024800000210020FFF7ACFF0A2006F017FE002114
:102490007F20FFF7A5FF0A2006F010FE002107208D
:1024A000FFF79EFF0A2006F009FE00BF80BD000076
:1024B00080B58CB000AF78600021234804F064F947
:1024C00000237B620123FB620123BB6201F0E2FF78
:1024D00038624123FB771D4B1B68002B04D0FFF7AC
:1024E00039FA0A2006F0EAFD142006F0E7FDFB6A3F
:1024F000002B12D0164B1B68022B03D1154B1B78F7
:102500004C2B03D0134B1B78522B06D14FF4806118
:10251000114802F048FB0023FB62BB6A002BDAD0B3
:102520000B4B1B68042BD6D10A4B1B784C2B03D0CA
:10253000084B1B78522BCED14FF48061064802F035
:1025400032FB0023BB62C6E73803002010000020E6
:102550004404002030040020000402400000000079
:1025600080B586B000AF7860A14B00221A80A14BE5
:1025700000221A8000237B6100219F4803F0ECFFBA
:1025800004219D4803F0E8FF0C219C4803F0E4FF80
:102590009A4B1B6895221A6400221021984802F079
:1025A000E9FA01222021964802F0E4FA01220821EA
:1025B000934802F0DFFA00220421914802F0DAFA8F
:1025C0004FF47A7006F07AFD8E4B1A888B4B1B689D
:1025D0001A648D4BD3E900018C4BD3E90023FDF73E
:1025E00053FE02460B46C7E90223864B1B887E2B0F
:1025F00076D8874B1B68012B18D1012097ED020B71
:10260000FFF7CAFC03461846FDF78CFF74A3D3E915
:102610000023FDF7F1FF02460B4610461946FEF770
:10262000C3FA03469AB2724B1A8017E0012097ED65
:10263000020BFFF7BDFB03461846FDF773FF68A3C7
:10264000D3E90023FDF7D8FF02460B461046194692
:10265000FEF7AAFA03469AB2654B1A80644B1B88B0
:102660001846FDF75FFF60A3D3E90023FDF7C4FF21
:1026700002460B4610461946FEF796FA03469AB2F2
:102680005C4B1A805B4B1B88002B08D0594B1B8876
:10269000B3F5617F03D2574B4FF496621A804FF027
:1026A00000024FF00003D7E90201FEF735FA0346B6
:1026B000002B0AD001220821514802F05BFA0022C7
:1026C00004214F4802F056FA98E1002208214C48B4
:1026D00002F050FA01220421494802F04BFA8DE140
:1026E000484B1B88BD2B58D9494B1B68012B09D17E
:1026F000002097ED020BFFF74FFC03469AB23D4BCB
:102700001A8008E0002097ED020BFFF751FB03460B
:102710009AB2384B1A80374B1B881846FDF702FFD8
:1027200031A3D3E90023FDF767FF02460B461046AD
:102730001946FEF739FA03469AB22D4B1A802C4BF4
:102740001B88002B08D02A4B1B88B3F5617F03D26E
:10275000274B4FF496621A804FF000024FF00003AF
:10276000D7E90201FEF7BAF90346002B0AD001228D
:102770001021234802F0FEF900222021204802F017
:10278000F9F93BE1002210211D4802F0F3F9012282
:1027900020211B4802F0EEF930E11E4B1B68012B93
:1027A0003CD11D4B93ED007B0020B0EE470AF0EECC
:1027B000670AFFF7EDFC03461846FDF7B3FE08A3D2
:1027C000D3E90023FDF718FF02460B4610461946D1
:1027D000FEF7EAF903469AB2054B1A803AE000BFC9
:1027E000F4FDD478E926F13FEC51B81E85EBE13FCA
:1027F000480400204A0400208003002060020020DA
:10280000000002400000002070040020A00400200E
:102810007804002058040020B00500208E4B1A6870
:102820008E4B1B68D31A00211846FFF73BFA03466C
:102830001846FDF777FE84A3D3E90023FDF7DCFEFD
:1028400002460B4610461946FEF7AEF903469AB209
:10285000834B1A80814B1B6883EAE372A2EBE3721D
:10286000804B1B68002BB8BF5B429A4203DA7B693E
:1028700001337B6102E07B69013B7B61784B1B8804
:10288000B3F57A7F01D200237B61774B1B68012B64
:1028900012D1764B93ED007B0120B0EE470AF0EEAB
:1028A000670AFFF775FC03469AB27B699BB2134433
:1028B0009AB26F4B1A8010E06E4B1A68694B1B6816
:1028C000D31A01211846FFF7EDF903469AB27B6946
:1028D0009BB213449AB2664B1A80674B1B68012B5C
:1028E00040F08C80654B1B681846FDF71BFE5F4B64
:1028F000D3E90023FEF7F2F80346002B3FD04FF058
:1029000000025F4BD7E90201FEF706F90346002BF0
:1029100003D05C4B8D221A8070E04FF000025A4BBE
:10292000D7E90201FEF7DAF80346002B03D0554B36
:102930009D221A8062E04FF00002544BD7E9020159
:10294000FDF75AFE02460B46104619464FF00002AC
:102950004B4BFDF77BFF02460B46104619463CA346
:10296000D3E90023FDF792FC02460B4610461946B8
:10297000FEF71AF903469AB2424B1A803EE04FF036
:1029800000023F4BD7E90201FEF7C6F80346002BD1
:1029900003D03C4B9D221A8030E04FF000023A4BAE
:1029A000D7E90201FEF79AF80346002B03D0354B16
:1029B0008D221A8022E04FF00002354BD7E9020148
:1029C000FDF71AFE02460B46104619464FF000026C
:1029D0002B4BFDF73BFF02460B46104619461CA346
:1029E000D3E90023FDF752FC02460B461046194678
:1029F000FEF7DAF803469AB2224B1A80254B1B6881
:102A0000002B06D0164B00221A80154B1A88184B43
:102A10001A80174B1A88204B1B685A63104B1A8870
:102A20001D4B1B689A63012006F048FB1B4B1B687B
:102A3000B3F57A7F7FF7C8AD184B40F2E9321A60E0
:102A4000C2E500BFAFF30080F4FDD478E926F13F82
:102A50000000000000A06240680400206004002024
:102A6000480400205C04002058040020B005002029
:102A70004A040020640400205404002004000020C4
:102A80000000144000000020000014C0000020C01E
:102A90000000204050040020800300204C0400204F
:102AA000B0B5A8B002AF78600023C7F8803007F156
:102AB000840300221A605A609A60DA600023FB6681
:102AC00007F1700300221A605A609A60DA600023EE
:102AD000BB6507F15C0300221A605A609A60DA60F5
:102AE00000237B6407F1480300221A605A609A6051
:102AF000DA6000233B6307F1340300221A605A6056
:102B00009A60DA600023FB6107F1200300221A605B
:102B10005A609A60DA60594A07F1080392E80300A4
:102B200018600433198002330A0C1A7007F10F037E
:102B300000221A605A609A601A73514BD3E900233D
:102B400010461946FEF708F802464E4B1B7807F16F
:102B50006C004D4909F068FC07F16C031A460A2124
:102B6000002001F073FB494BD3E90045474BD3E903
:102B7000002310461946FDF7EFFF03461846FDF700
:102B8000D1FC02460B4620462946FDF77DFB024656
:102B90000B46104619464FF000023D4BFDF72CFD49
:102BA00002460B4610461946FDF7D6FF0346002B9A
:102BB000B8BF5B42C7F89430344BD3E900014FF003
:102BC00000024FF00003FDF77FFF0346002B0ED1FC
:102BD0002E4BD3E9002310461946FDF7BDFF0246F0
:102BE00007F14400D7F894302A4909F01DFC07F199
:102BF00044031A461421002001F028FB264B1A68D2
:102C0000264B1B6807F15800254909F00DFC07F118
:102C100058031A461E21002001F018FB214B1A68A8
:102C2000204B1B6807F130001F4909F0FDFB07F13D
:102C300030031A462821002001F008FB1B4B1B78AB
:102C40001946104B1B781C46194B1B68194A126811
:102C500007F11C000192009323460A46164909F029
:102C6000E3FB07F11C031A463221002001F0EEFAC3
:102C700001F078F9642006F021FA5EE770E80008B8
:102C8000B0050020020000201CE80008A00400207D
:102C900000408F402CE80008800400207C040020C5
:102CA0003CE800085C0400204CE8000830040020E8
:102CB00044040020100000205CE8000880B584B0C7
:102CC00000AF78604123FB732923BB730123BB60F2
:102CD0000D4B2D221A700C4B57225A700A4B412271
:102CE0009A70094B4922DA70074B54221A7102E09C
:102CF000642006F0E3F9054B1B68002BF8D1012096
:102D000006F0DCF9FBE700BF300400200C000020D7
:102D1000B0B586B000AF7860FFF786FB00233B823A
:102D200000237B8200237B610023FB604FF49670BD
:102D300006F0C4F96420FEF731FE4CE0322006F0C4
:102D4000BDF907F1100319463720FFF71DFB3B7C47
:102D50001B021AB27B7C1BB213437B82B7F9123081
:102D60001846FDF7DFFB04460D4601F093FB0246D3
:102D70007B69D31A1846FDF7C5FB4BA3D3E90023A3
:102D8000FDF764FD02460B4620462946FDF734FC5C
:102D900002460B4610461946454BD3E90023FDF782
:102DA00075FA02460B464249C1E9002301F072FB65
:102DB0007861B7F912301846FDF7B4FB3D4BD3E903
:102DC0000023FDF763FA02460B463A49C1E90023A6
:102DD000FB680133FB60FB68632BAFDD6420FEF70B
:102DE000DDFD344BD3E90045FB681846FDF79AFB3F
:102DF00002460B4620462946FDF728FD02460B46B3
:102E00002C49C1E9002301F045FB78612A4B0022DF
:102E10001A60322006F052F907F1100319463720E4
:102E2000FFF7B2FA3B7C1B021AB27B7C1BB2134346
:102E30007B82B7F912301846FDF774FB1D4BD3E9BE
:102E40000023FDF721FA02460B4614461D4601F009
:102E500021FB02467B69D31A1846FDF753FB12A3E8
:102E6000D3E90023FDF7F2FC02460B462046294633
:102E7000FDF7C2FB02460B46104619460F4BD3E93D
:102E80000023FDF703FA02460B460C49C1E9002373
:102E900001F000FB7861FA68B7F91230D31AFB60D1
:102EA000FB680133FB60B4E7000000000004D04081
:102EB000C8040020C00400200C000020A004002052
:102EC00080B584B000AF78600023FB600E4B0F4AE2
:102ED00092E803001860043319700B4B0C4A053359
:102EE0001068186012791A7102E0642006F0E6F8A2
:102EF000084B1B68002BF8D1074806F0DFF842F2B8
:102F0000107006F0DBF8F3E7D004002084E8000836
:102F10008CE800080C000020A086010080B586B077
:102F200000AF78603C211D4803F0FCFD01237B616C
:102F300001F0B0FAF86001F0ADFA0246FB68D31A6E
:102F40000A2BF8D9154B1B685B6ABB60BB68B3F5ED
:102F5000FA4F06DD01237B61BB68C3F580333B611B
:102F600004E04FF0FF337B61BB683B617B69012B61
:102F700006D10B4B1A683B69D31A094A136005E066
:102F8000074B1A683B691344054A1360034B1B68DF
:102F900000225A6201F07EFAF860CCE7F0020020CD
:102FA0005C04002080B586B000AF78603C211D48ED
:102FB00003F0B8FD01237B6101F06CFAF86001F0C9
:102FC00069FA0246FB68D31A0A2BF8D9154B1B681D
:102FD0005B6ABB60BB68B3F5FA4F06DD01237B611A
:102FE000BB68C3F580333B6104E04FF0FF337B6186
:102FF000BB683B617B69012B06D10B4B1A683B69AF
:103000001344094A136005E0074B1A683B69D31A59
:10301000054A1360034B1B6800225A6201F03AFA1A
:10302000F860CCE7A8020020600400200000000047
:1030300080B582B000AF786002E0642006F03EF810
:103040006B4B1B68002BF8D140F2DC5006F036F8D1
:1030500002E0322006F032F8664B1B78532BF8D191
:103060004FF48061644801F09EFD644B00221A60B9
:10307000624B1B68624A1360624B01221A60624B0A
:1030800001221A60614B00221A601A20FEF706FD29
:1030900000BFFFF755F90346002BFAD15A4B002227
:1030A0001A60584B00221A60594B1A68534B1B6820
:1030B0001344574A1360574B1A68514B1B6813440B
:1030C000544A1360544B1A684C4B1B681344524AC1
:1030D0001360524B1A684A4B1B6813444F4A1360E3
:1030E000052005F0EBFF4E4B5A221A700FE04D4BB6
:1030F0001B68022B03D13F4B1B784C2B03D03D4B5D
:103100001B78522B03D13B4B1A78454B1A70444B1A
:103110001B785A2BEBD0444B00221A60404B1B7893
:10312000522B40F08D80414BE6221A80FA2005F0A8
:10313000C5FF364B00221A609FED270BFEF7CEFC31
:1031400000BFFFF7FDF80346002BFAD1374B6A2288
:103150001A804FF4FA7005F0B1FF2C4B00221A6070
:103160009FED1F0BFEF7E4FC00BFFFF7E9F80346F5
:10317000002BFAD12D4BE6221A804FF4FA7005F09D
:103180009DFF224B00221A609FED170BFEF7A6FC55
:1031900000BFFFF7D5F80346002BFAD1234B952249
:1031A0001A80FA2005F08AFF214BD3E900014FF085
:1031B0000002204BFDF768F802460B461C49C1E9A6
:1031C00000234FF6FF7301221B491C4804F03BFE0D
:1031D0008FE000BFAFF30080000000000000494016
:1031E0000000000000005940000000000080464040
:1031F0000C00002030040020000402406004002085
:103200005C04002058040020540400204C040020DA
:103210007C040020800400209004002094040020FE
:103220000200002044040020780400200000002058
:10323000700400200000144094E80008C803002037
:10324000774B1B784C2B54D1764B6A221A80FA208C
:1032500005F034FF744B00221A609FED690BFEF7F6
:1032600067FC00BFFFF76CF80346002BFAD16D4BEB
:10327000E6221A804FF4FA7005F020FF6A4B002214
:103280001A609FED610BFEF729FC00BFFFF758F8AD
:103290000346002BFAD1634B6A221A804FF4FA706E
:1032A00005F00CFF604B00221A609FED590BFEF7F2
:1032B0003FFC00BFFFF744F80346002BFAD1594BFF
:1032C00095221A80FA2005F0F9FE584BD3E9000147
:1032D0004FF00002564BFCF7D9FF02460B4653490C
:1032E000C1E900234FF6FF7301225249524804F00E
:1032F000AAFD524B01221A60514BD3E900014FF055
:103300000002504BFDF708FC0346002B0AD14C4B42
:10331000D3E900014FF000024B4BFDF7DFFB034602
:10332000002B19D0494B01221A603F4B00221A6032
:10333000474B00221A60464B1B68464A13609FEDBC
:10334000360BFEF745FB00BFFEF7FAFF0346002BE6
:10335000FAD13E4B00221A6002E0322005F0AEFEA8
:103360003D4B1B78442BF8D14FF480613B4801F072
:103370001AFC2C4B95221A80642005F09FFE344BDA
:1033800000221A60334B00221A60354B01221A606A
:103390002E4B01221A60244B00221A601E20FEF7D9
:1033A0007DFB00BFFEF7CCFF0346002BFAD1274B75
:1033B00000221A602A4B00221A602A4B1A68254BF9
:1033C0001B681344274A1360274B1A68204B1B685D
:1033D0001344254A1360254B1A681E4B1B6813447F
:1033E000224A1360224B1A68194B1B681344204A67
:1033F00013600B4B5A221A704CE000BFAFF30080F1
:10340000000000000000494000000000000059409A
:10341000000000000080464000000000000024C0C2
:1034200002000020000000204C0400207004002056
:103430000000144094E80008C8030020780400202D
:10344000B005002000208C400000184054040020EB
:103450005C040020600400203004002000040240CE
:10346000580400207C0400208004002098040020E0
:103470009C040020A24B1B68042B0BD1A14B1B7892
:103480004C2B03D09F4B1B78522B03D19D4B1A78AA
:103490009D4B1A709C4B1B785A2BEBD09A4B1B7888
:1034A000522B5FD1994B00221A609FED8D0BFEF7D6
:1034B00015FB00BFFEF744FF0346002BFAD1944BE7
:1034C00095221A80C82005F0F9FD914B6A221A80D6
:1034D000C82005F0F3FD8D4B00221A609FED820B92
:1034E000FEF726FB00BFFEF72BFF0346002BFAD1A9
:1034F000874B95221A80C82005F0E0FD854B0122FC
:103500001A60824B00221A60834B00221A60824BA1
:103510001B68824A13609FED760BFEF759FA00BFD5
:10352000FEF70EFF0346002BFAD17A4B00221A60F9
:10353000774B6A221A80C82005F0C0FD734B002229
:103540001A609FED670BFEF7F3FA00BFFEF7F8FE77
:103550000346002BFAD16E4B95221A80C82005F045
:10356000ADFD62E0684B1B784C2B5ED1674B0022AF
:103570001A609FED5B0BFEF7DBFA00BFFEF7E0FE83
:103580000346002BFAD1624B95221A80C82005F021
:1035900095FD5F4BE6221A80C82005F08FFD5B4B3E
:1035A00000221A609FED500BFEF798FA00BFFEF75D
:1035B000C7FE0346002BFAD1554B95221A80C8202E
:1035C00005F07CFD534B01221A60504B00221A601B
:1035D000514B00221A60504B1B68504A13609FEDFC
:1035E000440BFEF7F5F900BFFEF7AAFE0346002BD9
:1035F000FAD1484B00221A60454BE6221A80C820B7
:1036000005F05CFD414B00221A609FED350BFEF783
:1036100065FA00BFFEF794FE0346002BFAD13C4B3F
:1036200095221A80C82005F049FD3D4B1A683D4B94
:103630001B681344DA0F13445B1003F5595313331B
:10364000394A1360344B00221A60334B1B68334AEB
:103650001360364B00221A602E4B01221A602B4B4E
:1036600000221A60304B1B681846FCF75BFF22A350
:10367000D3E90023FDF7EAF802460B461046194647
:103680004FF000022A4BFCF7FFFD02460B4643ECCD
:10369000172BB0EE470AF0EE670AFEF799F900BF64
:1036A000FEF74EFE0346002BFAD11A4B00221A6099
:1036B000154B1B78522B3DD1144B00221A604B2026
:1036C000FEF7A8FA00BFFEF73BFE0346002BFAD137
:1036D0000F4B95221A80C82005F0F0FC40E000BF97
:1036E000000000000080564000000000008066409E
:1036F00000000000000049406666666666E65240CB
:103700004404002030040020020000204C0400206B
:1037100000000020540400205C040020600400200D
:103720009C040020980400208004002058040020FD
:10373000004055401E4B1B784C2B11D11D4B0022D5
:103740001A604620FEF71EFA00BFFEF7F9FD034699
:10375000002BFAD1184B95221A80C82005F0AEFC38
:10376000154B95221A80642005F0A8FC134B00220B
:103770001A60134B00221A60124B01221A60124B7E
:1037800001221A600B4B00221A601620FEF786F900
:1037900000BFFEF7D5FD0346002BFAD10A4B0022ED
:1037A0001A60084B00221A60084805F087FC47E4BD
:1037B000020000204C040020000000205C040020D7
:1037C00060040020580400205404002080969800D3
:1037D00080B400AF72B600BFFEE7000080B582B0D3
:1037E00000AF00237B60164B5B6C154A43F48043AB
:1037F0005364134B5B6C03F480437B607B68002352
:103800003B600F4B1B6C0E4A43F0805313640C4B10
:103810001B6C03F080533B603B6800220F216FF06C
:10382000010000F042FF00220521052000F03DFFCD
:10383000052000F056FF00BF0837BD4680BD00BF21
:103840000038024080B58AB000AF786007F11403F9
:1038500000221A605A609A60DA601A617B681B68FD
:10386000194A93422CD100233B61184B1B6B174A1A
:1038700043F002031363154B1B6B03F002033B6120
:103880003B694FF440737B611223BB610023FB61F2
:1038900003233B6204237B6207F1140319460C489F
:1038A00000F0CCFF0023FB60084B1B6C074A43F47D
:1038B00000131364054B1B6C03F40013FB60FB68DF
:1038C00000BF2837BD4680BD00540040003802408C
:1038D0000004024080B58AB000AF786007F114039D
:1038E00000221A605A609A60DA601A617B681B686D
:1038F0002F4A93421ED100233B612E4B5B6C2D4A15
:1039000043F0010353642B4B5B6C03F001033B61F9
:103910003B6900220521182000F0C7FE182000F0A6
:10392000E0FE00220521192000F0BFFE192000F062
:10393000D8FE38E07B681B681F4A934233D10023CE
:10394000FB601C4B5B6C1B4A43F002035364194B36
:103950005B6C03F00203FB60FB680023BB60154B4C
:103960001B6B144A43F004031363124B1B6B03F0ED
:103970000403BB60BB68C0237B610223BB610023DF
:10398000FB6100233B6203237B6207F114031946AA
:103990000A4800F053FF002205212D2000F085FE8B
:1039A0002D2000F09EFE00BF2837BD4680BD00BF21
:1039B00000000140003802400004014000080240BD
:1039C00080B58CB000AF786007F11C0300221A604C
:1039D0005A609A60DA601A617B681B68B3F1804FA5
:1039E0004BD10023BB613F4B1B6C3E4A43F00103AC
:1039F00013643C4B1B6C03F00103BB61BB690023E8
:103A00007B61384B1B6B374A43F001031363354B23
:103A10001B6B03F001037B617B6900233B61314B2E
:103A20001B6B304A43F0020313632E4B1B6B03F0F6
:103A300002033B613B694FF40043FB6102233B629D
:103A400000237B620023BB620123FB6207F11C039E
:103A50001946254800F0F2FE0823FB6102233B6271
:103A600000237B620023BB620123FB6207F11C037E
:103A700019461E4800F0E2FE30E07B681B681C4AD5
:103A800093422BD10023FB60164B1B6C154A43F06D
:103A900002031364134B1B6C03F00203FB60FB680F
:103AA0000023BB600F4B1B6B0E4A43F001031363F3
:103AB0000C4B1B6B03F00103BB60BB68C023FB61B5
:103AC00002233B6200237B620023BB620223FB6272
:103AD00007F11C031946044800F0B0FE00BF303760
:103AE000BD4680BD00380240000002400004024094
:103AF0000004004080B58AB000AF786007F114037D
:103B000000221A605A609A60DA601A617B681B684A
:103B10001D4A934234D100233B611C4B1B6C1B4A52
:103B200043F004031364194B1B6C03F004033B6163
:103B30003B690023FB60154B1B6B144A43F00803E1
:103B40001363124B1B6B03F00803FB60FB684FF41D
:103B500080537B610223BB610023FB6100233B6236
:103B600002237B6207F114031946094800F066FE40
:103B7000002205211E2000F098FD1E2000F0B1FD5E
:103B800000BF2837BD4680BD000800400038024015
:103B9000000C024080B588B000AF786007F10C03DC
:103BA00000221A605A609A60DA601A617B681B68AA
:103BB000124A93421ED10023BB60114B1B6B104A6B
:103BC00043F0100313630E4B1B6B03F01003BB6039
:103BD000BB684FF48043FB6002233B6100237B61A1
:103BE0000023BB610123FB6107F10C031946054863
:103BF00000F024FE00BF2037BD4680BD000001401C
:103C0000003802400010024080B58AB000AF7860F2
:103C100007F1140300221A605A609A60DA601A6190
:103C20007B681B681D4A934234D100233B611C4BC7
:103C30001B6C1B4A43F480231364194B1B6C03F465
:103C400080233B613B690023FB60154B1B6B144ACF
:103C500043F004031363124B1B6B03F00403FB607C
:103C6000FB684FF440637B610223BB610023FB616F
:103C700003233B6207237B6207F1140319460948BB
:103C800000F0DCFD00220521272000F00EFD27209A
:103C900000F027FD00BF2837BD4680BD004800402A
:103CA000003802400008024080B400AFFEE780B454
:103CB00000AFFEE780B400AFFEE780B400AFFEE7E0
:103CC00080B400AFFEE780B400AF00BFBD465DF832
:103CD000047B704780B500AF00F0C8FB06F026FEFD
:103CE0000346012B01D007F00FFC00BF80BD80B45C
:103CF00000AF00BFBD465DF8047B704780B500AFE4
:103D0000024802F09DFF00BF80BD00BF600200209E
:103D100080B500AF024802F093FF00BF80BD00BF36
:103D20006002002080B500AF024802F089FF00BFAA
:103D300080BD00BF3803002080B500AF024804F00A
:103D400045F900BF80BD00BFC803002080B500AFAB
:103D5000024802F075FF00BF80BD00BF8003002055
:103D600080B400AF01231846BD465DF8047B704760
:103D700080B582B000AF7860396008F061FC03461E
:103D800016221A604FF0FF3318460837BD4680BD33
:103D900080B582B000AF78604FF0FF317868FFF7F0
:103DA000E7FFFEE780B586B000AFF860B9607A60E3
:103DB00000237B610AE0AFF300800146BB685A1C18
:103DC000BA60CAB21A707B6901337B617A697B6819
:103DD0009A42F0DB7B6818461837BD4680BD80B537
:103DE00086B000AFF860B9607A6000237B6109E0BB
:103DF000BB685A1CBA601B781846AFF300807B6919
:103E000001337B617A697B689A42F1DB7B681846F3
:103E10001837BD4680BD80B483B000AF78604FF0E6
:103E2000FF3318460C37BD465DF8047B704780B4FD
:103E300083B000AF786039603B684FF400525A603D
:103E4000002318460C37BD465DF8047B704780B4EC
:103E500083B000AF7860012318460C37BD465DF88B
:103E6000047B704780B485B000AFF860B9607A60B9
:103E7000002318461437BD465DF8047B70470000E8
:103E800080B586B000AF7860144A154BD31A7B61B9
:103E90007B693B61134B1B68002B02D1114B124A0B
:103EA0001A60104B1A687B6813443A699A4207D229
:103EB00008F0C6FB03460C221A604FF0FF3309E0FE
:103EC000084B1B68FB60074B1A687B681344054A64
:103ED0001360FB6818461837BD4680BD00000220FD
:103EE00000040000B8050020F854002080B400AFA2
:103EF000064BD3F88830054A43F47003C2F8883083
:103F000000BFBD465DF8047B704700BF00ED00E0D8
:103F1000DFF834D00D480E490E4A002302E0D45891
:103F2000C4500433C4188C42F9D30B4A0B4C002301
:103F300001E013600432A242FBD3FFF7D7FF08F081
:103F400085FBFCF7CFFF7047000002200000002037
:103F5000EC010020F4F70008F0010020F4540020E8
:103F6000FEE7000080B582B000AF0023FB7126E0C1
:103F7000FB79503BDBB20021184600F02BF8002102
:103F8000002000F027F80021102000F023F8002383
:103F9000BB710DE0BA79FB790D49D2000A44134494
:103FA0001B780121184600F015F8BB790133BB716D
:103FB00097F90630002BEDDAFB790133FB71FB79C1
:103FC000072BD5D900BF00BF0837BD4680BD00BF55
:103FD000BC05002080B584B000AF03460A46FB71E3
:103FE0001346BB71BB79002B06D001224FF48071C0
:103FF0001C4800F0BFFD05E000224FF48071194815
:1040000000F0B8FD0023FB731EE0002220211548BC
:1040100000F0B0FD97F90730002B05DA01224021AE
:10402000104800F0A7FD04E0002240210D4800F0F8
:10403000A1FD012220210B4800F09CFDFB795B00D3
:10404000FB71FB7B0133FB73FB7B072BDDD901226B
:104050004FF48071034800F08DFD00BF1037BD465E
:1040600080BD00BF0010024080B582B000AF0023C9
:10407000FB7114E00023BB710AE0BA79FB790C49AB
:10408000D2000A44134400221A70BB790133BB7179
:1040900097F90630002BF0DAFB790133FB71FB79DD
:1040A000072BE7D9FFF75EFF00BF0837BD4680BD8D
:1040B000BC05002080B485B000AF0346FB710B4601
:1040C000BB7113467B710023FB7397F90730002BFC
:1040D00041DBBB793F2B3ED8BB79DB08DBB2C3F1B8
:1040E0000703BB73BB7903F007037B737B7BC3F1CF
:1040F0000703012202FA03F3FB737B79002B12D032
:10410000FA79BB7B1749D2000A4413441878FA792C
:10411000BB7BF97B0143C8B21249D2000A44134465
:1041200002461A7018E0FA79BB7B0E49D2000A44A5
:1041300013441B785AB297F90F30DB435BB213403C
:1041400059B2FA79BB7BC8B20649D2000A4413447B
:1041500002461A7000E000BF1437BD465DF8047BCC
:10416000704700BFBC05002090B585B000AF044685
:10417000084611461A462346FB710346BB710B469F
:104180007B7113463B71BB793B737B79203B7B7121
:104190000023BB734DE03B790C2B0BD17A79B97BB3
:1041A000284813465B0013449B0003440B441B78D0
:1041B000FB7307E07A79BB7B234912010A4413445D
:1041C0001B78FB7300237B732DE097F90F30002BD6
:1041D00007DA97F82020B979FB791846FFF76AFFCC
:1041E0000CE097F82030002B0CBF01230023DBB23A
:1041F0001A46B979FB791846FFF75CFFFB7B5B0039
:10420000FB73BB790133BB71BA793B7BD21A3B7923
:104210009A4205D13B7BBB71FB790133FB7105E011
:104220007B7B01337B737B7B072BCED9BB7B01333D
:10423000BB73BA7B3B799A42ADD300BF00BF143742
:10424000BD4690BD0CEA000880EE000880B584B041
:1042500002AF03463A60FB710B46BB711FE0FB796E
:104260007A2B04D90023FB71BB791033BB71BB7966
:104270003A2B05D90023FB71FB79BB71FFF7F4FEE4
:104280003B681A78B979F879012300930C23FFF77A
:104290006BFFFB790833FB713B6801333B603B6884
:1042A0001B78002BDBD100BF00BF0837BD4680BDA7
:1042B00080B500AF01F028FC414B1B6F404A23F052
:1042C000010313673E4B1B6F3D4A23F00403136742
:1042D00001F02EFC002280213A4800F04BFC6420C3
:1042E00000F0E4F801228021364800F043FC002170
:1042F000AE20FFF76FFE0021D520FFF76BFE0021F7
:104300005020FFF767FE0021A820FFF763FE002181
:104310003F20FFF75FFE0021D320FFF75BFE002167
:104320000020FFF757FE00214020FFF753FE002139
:104330008D20FFF74FFE00211420FFF74BFE0021D8
:104340002020FFF747FE00210220FFF743FE002157
:10435000A120FFF73FFE0021C020FFF73BFE002118
:10436000DA20FFF737FE00211220FFF733FE00218D
:104370008120FFF72FFE0021EF20FFF72BFE002109
:10438000D920FFF727FE0021F120FFF723FE0021AF
:10439000DB20FFF71FFE00213020FFF71BFE00216E
:1043A000A420FFF717FE0021A620FFF713FE00212F
:1043B000AF20FFF70FFEFFF757FE00BF80BD00BF25
:1043C000003802400010024080B500AF0E4B1B6861
:1043D0000D4A43F4007313600B4B1B680A4A43F405
:1043E00080631360084B1B68074A43F480731360B3
:1043F000032000F04FF90F2000F008F8FFF7EEF966
:104400000023184680BD00BF003C024080B582B04A
:1044100000AF7860124B1A68124B1B7819464FF4A4
:104420007A73B3FBF1F3B2FBF3F3184600F067F9CC
:104430000346002B01D001230EE07B680F2B0AD826
:10444000002279684FF0FF3000F02FF9064A7B68B0
:104450001360002300E0012318460837BD4680BDE5
:10446000140000201C0000201800002080B400AFC1
:10447000064B1B781A46064B1B681344044A13600C
:1044800000BFBD465DF8047B704700BF1C000020E4
:10449000BC09002080B400AF034B1B681846BD4622
:1044A0005DF8047B704700BFBC09002080B584B074
:1044B00000AF7860FFF7EEFFB8607B68FB60FB68D9
:1044C000B3F1FF3F05D00A4B1B781A46FB68134433
:1044D000FB6000BFFFF7DEFF0246BB68D31AFA6835
:1044E0009A42F7D800BF00BF1037BD4680BD00BF5D
:1044F0001C00002080B485B000AF78607B6803F0BA
:104500000703FB600C4BDB68BB60BA684FF6FF0328
:104510001340BB60FB681A02BB68134343F0BF63E0
:1045200043F40033BB60044ABB68D36000BF143758
:10453000BD465DF8047B704700ED00E080B400AF3D
:10454000044BDB681B0A03F007031846BD465DF801
:10455000047B704700ED00E080B483B000AF0346F9
:10456000FB7197F90730002B0BDBFB7903F01F027F
:10457000074997F907305B09012000FA02F241F878
:10458000232000BF0C37BD465DF8047B704700BF99
:1045900000E100E080B483B000AF03463960FB71F6
:1045A00097F90730002B0ADB3B68DAB20C4997F920
:1045B00007301201D2B20B4483F800230AE03B68B3
:1045C000DAB20849FB7903F00F03043B1201D2B2BF
:1045D0000B441A7600BF0C37BD465DF8047B70476C
:1045E00000E100E000ED00E080B489B000AFF860C9
:1045F000B9607A60FB6803F00703FB61FB69C3F1F4
:104600000703042B28BF0423BB61FB690433062B7B
:1046100002D9FB69033B00E000237B614FF0FF32CE
:10462000BB6902FA03F3DA43BB681A407B699A401C
:104630004FF0FF317B6901FA03F3D9437B680B40EC
:10464000134318462437BD465DF8047B70470000CD
:1046500080B582B000AF78607B68013BB3F1807FAA
:1046600001D301230FE00A4A7B68013B53600F210D
:104670004FF0FF30FFF78EFF054B00229A60044B8E
:1046800007221A60002318460837BD4680BD00BFC8
:1046900010E000E080B582B000AF78607868FFF786
:1046A00029FF00BF0837BD4680BD80B586B000AF8A
:1046B0000346B9607A60FB7300237B61FFF73EFF1E
:1046C00078617A68B9687869FFF78EFF024697F9D2
:1046D0000F3011461846FFF75DFF00BF1837BD4683
:1046E00080BD80B582B000AF0346FB7197F90730FB
:1046F0001846FFF731FF00BF0837BD4680BD80B5C3
:1047000082B000AF78607868FFF7A2FF03461846D2
:104710000837BD4680BD80B584B000AF78607B6847
:104720009B6DFB60FFF7B6FEB8607B6893F8353091
:10473000DBB2022B08D07B6880225A657B6800229E
:1047400083F83420012352E07B681B681A687B6879
:104750001B6822F016021A607B681B685A697B6826
:104760001B6822F080025A617B681B6C002B03D10E
:104770007B689B6C002B07D07B681B681A687B6882
:104780001B6822F008021A607B681B681A687B6845
:104790001B6822F001021A6013E0FFF77BFE02465D
:1047A000BB68D31A052B0CD97B6820225A657B681D
:1047B000032283F835207B68002283F8342003230A
:1047C00015E07B681B681B6803F00103002BE4D134
:1047D0007B68DB6D3F229A40FB689A607B68012210
:1047E00083F835207B68002283F8342000231846A4
:1047F0001037BD4680BD80B483B000AF78607B6861
:1048000093F83530DBB2022B04D07B6880225A65E6
:1048100001230CE07B68052283F835207B681B6848
:104820001A687B681B6822F001021A600023184690
:104830000C37BD465DF8047B7047000080B489B03A
:1048400000AF7860396000237B6100233B61002367
:10485000BB610023FB616BE10122FB6902FA03F3F8
:104860007B613B681B687A6913403B613A697B69ED
:104870009A4240F05A813B685B6803F00303012BC6
:1048800005D03B685B6803F00303022B30D17B68E3
:104890009B68BB61FB695B00032202FA03F3DB4305
:1048A000BA691340BB613B68DA68FB695B0002FAD6
:1048B00003F3BA691343BB617B68BA699A607B688A
:1048C0005B68BB610122FB6902FA03F3DB43BA694F
:1048D0001340BB613B685B681B0903F00102FB6985
:1048E00002FA03F3BA691343BB617B68BA695A6081
:1048F0003B685B6803F00303032B17D07B68DB681E
:10490000BB61FB695B00032202FA03F3DB43BA6974
:104910001340BB613B689A68FB695B0002FA03F3D2
:10492000BA691343BB617B68BA69DA603B685B684C
:1049300003F00303022B23D1FB69DA087B680832FA
:1049400053F82230BB61FB6903F007039B000F2281
:1049500002FA03F3DB43BA691340BB613B681A698F
:10496000FB6903F007039B0002FA03F3BA691343E0
:10497000BB61FB69DA087B680832B96943F8221029
:104980007B681B68BB61FB695B00032202FA03F3CF
:10499000DB43BA691340BB613B685B6803F0030209
:1049A000FB695B0002FA03F3BA691343BB617B68DE
:1049B000BA691A603B685B6803F44033002B00F06F
:1049C000B4800023FB60604B5B6C5F4A43F4804320
:1049D00053645D4B5B6C03F48043FB60FB685B4A94
:1049E000FB699B08023352F82330BB61FB6903F07B
:1049F00003039B000F2202FA03F3DB43BA6913405F
:104A0000BB617B68524A93422BD07B68514A9342E8
:104A100025D07B68504A93421FD07B684F4A93420F
:104A200019D07B684E4A934213D07B684D4A93421B
:104A30000DD07B684C4A934207D07B684B4A934227
:104A400001D107230EE008230CE006230AE005232A
:104A500008E0042306E0032304E0022302E001232C
:104A600000E00023FA6902F0030292009340BA6961
:104A70001343BB613549FB699B080233BA6941F8AE
:104A800023203B4B9B68BB613B69DB43BA69134006
:104A9000BB613B685B6803F48013002B03D0BA69E9
:104AA0003B691343BB61324ABB699360304BDB689F
:104AB000BB613B69DB43BA691340BB613B685B6820
:104AC00003F40013002B03D0BA693B691343BB61A5
:104AD000274ABB69D360264B5B68BB613B69DB43FC
:104AE000BA691340BB613B685B6803F40033002B79
:104AF00003D0BA693B691343BB611D4ABB6953606C
:104B00001B4B1B68BB613B69DB43BA691340BB614C
:104B10003B685B6803F48033002B03D0BA693B69C0
:104B20001343BB61124ABB691360FB690133FB612C
:104B3000FB690F2B7FF690AE00BF00BF2437BD4648
:104B40005DF8047B704700BF003802400038014028
:104B5000000002400004024000080240000C024035
:104B6000001002400014024000180240001C0240E5
:104B7000003C014080B483B000AF78600B467B807E
:104B800013467B707B78002B03D07A887B689A6110
:104B900003E07B881A047B689A6100BF0C37BD462E
:104BA0005DF8047B704780B485B000AF78600B4639
:104BB0007B807B685B69FB607A88FB6813401A0422
:104BC000FB68D9437B880B401A437B689A6100BF1E
:104BD0001437BD465DF8047B7047000080B584B093
:104BE00000AF78607B68002B01D101232BE17B684B
:104BF00093F83D30DBB2002B06D17B68002283F8AE
:104C00003C207868FEF71EFE7B68242283F83D2056
:104C10007B681B681A687B681B6822F001021A60B7
:104C20007B681B681A687B681B6842F400421A6044
:104C30007B681B681A687B681B6822F400421A6054
:104C400001F0BAFBF8607B685B68814A934207D841
:104C5000FB68804A934294BF01230023DBB206E045
:104C6000FB687D4A934294BF01230023DBB2002BF3
:104C700001D00123E7E0FB68784AA2FB03239B0CE9
:104C8000BB607B681B685B6823F03F017B681B6827
:104C9000BA680A435A607B681B681B6A23F03F01AD
:104CA0007B685B686A4A934202D8BB68013309E0BB
:104CB000BB684FF4967202FB03F3694AA2FB03231D
:104CC0009B0901337A6812680B4313627B681B6887
:104CD000DB6923F44F4222F0FF027B685B685C498A
:104CE0008B4219D8FB68591E7B685B685B00B1FB7F
:104CF000F3F3591C40F6FC730B40002B0AD0FB6801
:104D0000591E7B685B685B00B1FBF3F30133C3F3AF
:104D10000B0351E004234FE07B689B68002B11D10B
:104D2000FB68581E7B6859680B465B000B44B0FB60
:104D3000F3F30133C3F30B03002B0CBF0123002358
:104D4000DBB212E0FB68581E7B6859680B469B007B
:104D50000B4499000B44B0FBF3F30133C3F30B0393
:104D6000002B0CBF01230023DBB2002B01D0012359
:104D700022E07B689B68002B0ED1FB68581E7B6885
:104D800059680B465B000B44B0FBF3F30133C3F3EC
:104D90000B0343F400430FE0FB68581E7B6859681F
:104DA0000B469B000B4499000B44B0FBF3F301331B
:104DB000C3F30B0343F44043796809681343CB61A1
:104DC0007B681B681B6823F0C0017B68DA697B681D
:104DD0001B6A1A437B681B680A431A607B681B685E
:104DE0009B6823F4034323F0FF037A6811697A6810
:104DF000D26811437A6812680B4393607B681B6822
:104E0000DB6823F0FF017B685A697B689B691A4362
:104E10007B681B680A43DA607B681B681A687B68DA
:104E20001B6842F001021A607B6800221A647B68EA
:104E3000202283F83D207B6800221A637B680022D1
:104E400083F83E20002318461037BD4680BD00BFC2
:104E5000A08601007F841E00FF083D0083DE1B4307
:104E6000D34D621080B588B002AFF8607A601A4600
:104E70000B467B8113463B81FFF70CFB7861FB6897
:104E800093F83D30DBB2202B40F0E0807B6900934B
:104E9000192301227049F86800F058FC0346002BE2
:104EA00001D00223D3E0FB6893F83C30012B01D101
:104EB0000223CCE0FB68012283F83C20FB681B68DE
:104EC0001B6803F00103012B07D0FB681B681A68FD
:104ED000FB681B6842F001021A60FB681B681A68D5
:104EE000FB681B6822F400621A60FB68212283F8C9
:104EF0003D20FB68102283F83E20FB6800221A64E4
:104F0000FB687A685A62FB683A895A85FB685B8D50
:104F10009AB2FB681A85FB68504ADA6279897B6924
:104F20003A6AF86800F0C2FA0346002B01D0012368
:104F30008DE000233B61FB681B685B693B61FB689C
:104F40001B689B693B613B6966E07A69396AF8686E
:104F500000F0D2FC0346002B0DD0FB681B6C042B29
:104F600007D1FB681B681A68FB681B6842F4007273
:104F70001A6001236BE0FB685B6A1A78FB681B68A8
:104F80001A61FB685B6A5A1CFB685A62FB685B8D9E
:104F90009BB2013B9AB2FB685A85FB681B8D013BB3
:104FA0009AB2FB681A85FB681B685B6903F004030F
:104FB000042B1BD1FB681B8D002B17D0FB685B6A91
:104FC0001A78FB681B681A61FB685B6A5A1CFB68ED
:104FD0005A62FB685B8D9BB2013B9AB2FB685A85B3
:104FE000FB681B8D013B9AB2FB681A857A69396AA6
:104FF000F86800F0C2FC0346002B0DD0FB681B6C68
:10500000042B07D1FB681B681A68FB681B6842F415
:1050100000721A6001231AE0FB681B8D002B94D1EB
:10502000FB681B681A68FB681B6842F400721A6010
:10503000FB68202283F83D20FB68002283F83E2095
:10504000FB68002283F83C20002300E0022318467E
:105050001837BD4680BD00BF020010000000FFFFF2
:1050600080B58CB002AFF8607A601A460B467B813F
:1050700013463B81FFF70EFA7862FB6893F83D30E8
:10508000DBB2202B40F00B827B6A009319230122B4
:105090007C49F86800F05AFB0346002B01D002233C
:1050A000FEE1FB6893F83C30012B01D10223F7E1CC
:1050B000FB68012283F83C20FB681B681B6803F037
:1050C0000103012B07D0FB681B681A68FB681B688B
:1050D00042F001021A60FB681B681A68FB681B68D3
:1050E00022F400621A60FB68222283F83D20FB68EC
:1050F000102283F83E20FB6800221A64FB687A685D
:105100005A62FB683A895A85FB685B8D9AB2FB68E4
:105110001A85FB685C4ADA6279897B6A3A6BF868BF
:1051200000F046FA0346002B01D00123B8E1FB68EA
:105130001B8D002B13D100233B62FB681B685B694E
:105140003B62FB681B689B693B623B6AFB681B68B0
:105150001A68FB681B6842F400721A608CE1FB68F5
:105160001B8D012B1BD1FB681B681A68FB681B6831
:1051700022F480621A600023FB61FB681B685B6994
:10518000FB61FB681B689B69FB61FB69FB681B6833
:105190001A68FB681B6842F400721A606CE1FB68D5
:1051A0001B8D022B1BD1FB681B681A68FB681B68F0
:1051B00022F480621A60FB681B681A68FB681B682F
:1051C00042F400621A600023BB61FB681B685B69E4
:1051D000BB61FB681B689B69BB61BB694CE1FB68F9
:1051E0001B681A68FB681B6842F480621A6000231F
:1051F0007B61FB681B685B697B61FB681B689B6963
:105200007B617B6938E1FB681B8D032B00F2F18029
:10521000FB681B8D012B23D17A6A396BF86800F08B
:10522000EDFB0346002B01D0012339E1FB681B682D
:105230001A69FB685B6AD2B21A70FB685B6A5A1C17
:10524000FB685A62FB681B8D013B9AB2FB681A85AA
:10525000FB685B8D9BB2013B9AB2FB685A850BE100
:10526000FB681B8D022B4ED17B6A00933B6B0022A7
:105270000649F86800F06AFA0346002B08D00123BB
:105280000EE100BF020010000000FFFF040001005B
:10529000FB681B681A68FB681B6842F400721A609E
:1052A000FB681B681A69FB685B6AD2B21A70FB68FC
:1052B0005B6A5A1CFB685A62FB681B8D013B9AB201
:1052C000FB681A85FB685B8D9BB2013B9AB2FB6859
:1052D0005A85FB681B681A69FB685B6AD2B21A7050
:1052E000FB685B6A5A1CFB685A62FB681B8D013BBA
:1052F0009AB2FB681A85FB685B8D9BB2013B9AB240
:10530000FB685A85B8E07B6A00933B6B00226649D4
:10531000F86800F01BFA0346002B01D00123BFE020
:10532000FB681B681A68FB681B6822F480621A60BD
:10533000FB681B681A69FB685B6AD2B21A70FB686B
:105340005B6A5A1CFB685A62FB681B8D013B9AB270
:10535000FB681A85FB685B8D9BB2013B9AB2FB68C8
:105360005A857B6A00933B6B00224F49F86800F036
:10537000EDF90346002B01D0012391E0FB681B6887
:105380001A68FB681B6842F400721A60FB681B68AD
:105390001A69FB685B6AD2B21A70FB685B6A5A1CB6
:1053A000FB685A62FB681B8D013B9AB2FB681A8549
:1053B000FB685B8D9BB2013B9AB2FB685A85FB6828
:1053C0001B681A69FB685B6AD2B21A70FB685B6A79
:1053D0005A1CFB685A62FB681B8D013B9AB2FB6842
:1053E0001A85FB685B8D9BB2013B9AB2FB685A85BC
:1053F00042E07A6A396BF86800F000FB0346002B44
:1054000001D001234CE0FB681B681A69FB685B6AEA
:10541000D2B21A70FB685B6A5A1CFB685A62FB685E
:105420001B8D013B9AB2FB681A85FB685B8D9BB2B2
:10543000013B9AB2FB685A85FB681B685B6903F005
:105440000403042B18D1FB681B681A69FB685B6AAC
:10545000D2B21A70FB685B6A5A1CFB685A62FB681E
:105460001B8D013B9AB2FB681A85FB685B8D9BB272
:10547000013B9AB2FB685A85FB681B8D002B7FF4B9
:10548000C2AEFB68202283F83D20FB68002283F82F
:105490003E20FB68002283F83C20002300E002232A
:1054A00018462837BD4680BD0400010080B588B08D
:1054B00002AFF8607A603B600B467B81FB68DB6A79
:1054C0007B617B69082B06D07B69012B03D07B694C
:1054D00013F5803F08D1FB681B681A68FB681B68DE
:1054E00042F480721A600BE0FB681B6B122B07D131
:1054F000FB681B681A68FB681B6842F480721A60BC
:105500003B6800937B6800224FF00111F86800F0BF
:105510001DF90346002B0DD0FB681B681B6803F4C4
:105520008073B3F5807F03D1FB684FF400721A6477
:10553000032335E0FB681B69B3F5804F08D17B89F5
:10554000DBB21A46FB681B6802F0FE021A611BE020
:105550007B89DB11DBB203F00603DBB263F00F03E0
:10556000DAB2FB681B681A613B687A680E49F86812
:1055700000F043F90346002B01D0012310E07B89A2
:10558000DAB2FB681B681A613B687A680749F868F9
:1055900000F033F90346002B01D0012300E0002383
:1055A00018461837BD4680BD080001000200010002
:1055B00080B588B002AFF8607A603B600B467B81B3
:1055C000FB68DB6A7B61FB681B681A68FB681B6809
:1055D00042F480621A607B69082B06D07B69012B3C
:1055E00003D07B6913F5803F08D1FB681B681A68FC
:1055F000FB681B6842F480721A600BE0FB681B6B4F
:10560000112B07D1FB681B681A68FB681B6842F402
:1056100080721A603B6800937B6800224FF0011192
:10562000F86800F093F80346002B0DD0FB681B6868
:105630001B6803F48073B3F5807F03D1FB684FF4DC
:1056400000721A64032379E0FB681B69B3F5804F8D
:1056500008D17B89DBB243F00103DAB2FB681B6837
:105660001A615FE07B89DB11DBB203F00603DBB27A
:1056700063F00F03DAB2FB681B681A613B687A6853
:105680003049F86800F0B9F80346002B01D0012337
:1056900054E07B89DAB2FB681B681A613B687A6860
:1056A0002949F86800F0A9F80346002B01D001232E
:1056B00044E000233B61FB681B685B693B61FB685E
:1056C0001B689B693B613B69FB681B681A68FB6848
:1056D0001B6842F480721A603B6800937B6800226A
:1056E0004FF00111F86800F031F80346002B0DD09F
:1056F000FB681B681B6803F48073B3F5807F03D1DC
:10570000FB684FF400721A64032317E07B89DB11F6
:10571000DBB203F00603DBB263F00E03DAB2FB6820
:105720001B681A613B687A680749F86800F065F8F9
:105730000346002B01D0012300E000231846183750
:10574000BD4680BD080001000200010080B584B0A4
:1057500000AFF860B9603B601346FB7125E03B6821
:10576000B3F1FF3F21D0FEF795FE0246BB69D31A85
:105770003A689A4202D33B68002B16D1FB6800229C
:105780001A63FB68202283F83D20FB68002283F81F
:105790003E20FB681B6C43F02002FB681A64FB6828
:1057A000002283F83C20012323E0BB681B0CDBB202
:1057B000012B0DD1FB681B685B69DA43BB681340A2
:1057C0009BB2002B0CBF01230023DBB21A460CE076
:1057D000FB681B689B69DA43BB6813409BB2002BD4
:1057E0000CBF01230023DBB21A46FB799A42B6D0E4
:1057F000002318461037BD4680BD80B584B000AF89
:10580000F860B9607A603B6051E0FB681B685B69D7
:1058100003F48063B3F5806F23D1FB681B681A68BB
:10582000FB681B6842F400721A60FB681B686FF427
:1058300080625A61FB6800221A63FB68202283F8A9
:105840003D20FB68002283F83E20FB681B6C43F080
:105850000402FB681A64FB68002283F83C200123E1
:1058600046E07B68B3F1FF3F21D0FEF713FE02460E
:105870003B68D31A7A689A4202D37B68002B16D110
:10588000FB6800221A63FB68202283F83D20FB6836
:10589000002283F83E20FB681B6C43F02002FB686B
:1058A0001A64FB68002283F83C20012320E0BB68D7
:1058B0001B0CDBB2012B0CD1FB681B685B69DA4364
:1058C000BB6813409BB2002B14BF01230023DBB243
:1058D0000BE0FB681B689B69DA43BB6813409BB213
:1058E000002B14BF01230023DBB2002B8DD100233A
:1058F00018461037BD4680BD80B584B000AFF86053
:10590000B9607A602DE0F86800F0CEF80346002B0D
:1059100001D001232DE0BB68B3F1FF3F21D0FEF79A
:10592000B9FD02467B68D31ABA689A4202D3BB68B3
:10593000002B16D1FB6800221A63FB68202283F833
:105940003D20FB68002283F83E20FB681B6C43F07F
:105950002002FB681A64FB68002283F83C200123C4
:1059600007E0FB681B685B6903F08003802BCAD1EA
:10597000002318461037BD4680BD80B584B000AF07
:10598000F860B9607A602DE0F86800F08DF80346A1
:10599000002B01D001232DE0BB68B3F1FF3F21D0E4
:1059A000FEF778FD02467B68D31ABA689A4202D3A2
:1059B000BB68002B16D1FB6800221A63FB6820220B
:1059C00083F83D20FB68002283F83E20FB681B6CB7
:1059D00043F02002FB681A64FB68002283F83C2035
:1059E000012307E0FB681B685B6903F00403042BD9
:1059F000CAD1002318461037BD4680BD80B584B09B
:105A000000AFF860B9607A6042E0FB681B685B69D0
:105A100003F01003102B19D1FB681B686FF0100204
:105A20005A61FB6800221A63FB68202283F83D203C
:105A3000FB68002283F83E20FB681A6CFB681A643E
:105A4000FB68002283F83C20012329E0FEF722FDB9
:105A500002467B68D31ABA689A4202D3BB68002B0D
:105A600016D1FB6800221A63FB68202283F83D20D0
:105A7000FB68002283F83E20FB681B6C43F0200289
:105A8000FB681A64FB68002283F83C20012307E0CE
:105A9000FB681B685B6903F04003402BB5D1002312
:105AA00018461037BD4680BD80B483B000AF786023
:105AB0007B681B685B6903F48063B3F5806F1BD15F
:105AC0007B681B686FF480625A617B6800221A63EE
:105AD0007B68202283F83D207B68002283F83E20EB
